:100000000C9456010C947E010C947E010C9476099C
:100010000C9452090C9428090C947E010C945B12E8
:100020000C947E010C947E010C947E010C947E0154
:100030000C947E010C947E010C947E010C947E0144
:100040000C94DB160C947E010C944E0D0C94910DC7
:100050000C947E010C947E010C947E010C947E0124
:100060000C947E010C947E0182017D017801740163
:1000700072016D016901640161015C015801530164
:1000800050014D01490144013F013B013701350158
:1000900031012C01280123011E01190113010D0159
:1000A00007010101FB00F500EF00E900E300DD00BE
:1000B000D600CF00C800C100BA002D2A2D2A2D2D50
:1000C000002A2D2D2D2D2A002A2A2D2D2A2A002DF9
:1000D0002D2A2A2D2D002A2D2A2D2A2D002D2D2DB9
:1000E0002D2A002D2D2D2A2A002D2D2A2A2A002DD9
:1000F0002A2A2A2A002A2A2A2A2A002A2A2A2A2DB1
:10010000002A2A2A2D2D002A2A2D2D2D002A2D2DB8
:100110002D2D002D2D2D2D2D002D2D2A2A002D2A9F
:100120002D2D002D2A2A2D002A2D2D002A2A2A2D98
:10013000002A2A2D002D002A2A2A002A2D2A002DE5
:100140002D2A2D002A2D2D2A002D2D2D002D2A009F
:100150002D2D002A2D2A2A002D2A2D002A2D2D2D65
:10016000002A2A002A2A2A2A002D2D2A002A2A2D8E
:100170002A002A002D2A2A002D2A2D2A002D2A2A7B
:100180002A002A2D004142434445464748494A4BEC
:100190004C4D4E4F505152535455565758595A3052
:1001A0003132333435363738392E2C3F2721000091
:1001B000C201000100110011000C0000E100000A62
:1001C00000250025002100009600001900390039A3
:1001D000003600127A00001F0046004600440080EE
:1001E00070000022004D004D004A00004B00003618
:1001F00000750075007200403800004A009C009CA9
:10020000009900802500007200EC00EC00E900C0BD
:10021000120000E900DA01DA01D70160090000D715
:1002200001B603B603B303B0040000B3036E076E58
:10023000076B07580200006E07DC0EDC0ED80E2C90
:10024000010000DC0EC11DC11DBE1D020000000723
:10025000000201000003040600000000000000008E
:10026000010204081020408001020408102001024D
:10027000040810200404040404040404020202021A
:10028000020203030303030300000000230026000F
:10029000290000000000250028002B0000000000BD
:1002A000240027002A00F006500EB60711241FBEB6
:1002B000CFEFD8E0DEBFCDBF11E0A0E0B1E0E0E0DD
:1002C000F2E302C005900D92AA3AB107D9F723E0F4
:1002D000AAEAB1E001C01D92A934B207E1F711E02A
:1002E000C5E5D1E004C02197FE010E94A718C335DF
:1002F000D107C9F70E94CE160C94F3180C94000095
:10030000E0E0F1E0908181E0892780839181892775
:1003100081830895CF93DF93DC018C91082E000C2C
:10032000990BED0121E030E0FD0101900020E9F79B
:100330003197EA1BFB0B2E173F0728F4498149939D
:100340002F5F3F4FF1CFEA0FFB1F31971082DF91F4
:10035000CF91089543E050E061E771E08CE792E0CF
:100360000E948B0E81E08093B7010895BF92CF92D7
:10037000DF92EF92FF920F931F93CF93DF93CDB74E
:10038000DEB727970FB6F894DEBF0FBECDBF7C0156
:100390006B01B42E8C010C5F1F4F41E04B2560E0D8
:1003A000C8010E949E0BF701BB2011F0608101C0C3
:1003B0006181C8010E94FF0E6AE3C8010E94FF0E1E
:1003C000F60124813581F701828193818217930799
:1003D00098F4A901481B590BB601CE0101960E9461
:1003E0007714BE016F5F7F4FC8010E94C80ECE0117
:1003F00001960E94B71215C0B601C8010E94C80E2E
:10040000C12CD12CF70182819381C816D90648F4FA
:100410006BE771E0C8010E94FD0EFFEFCF1ADF0A03
:10042000F1CF27960FB6F894DEBF0FBECDBFDF9198
:10043000CF911F910F91FF90EF90DF90CF90BF90E1
:100440000895E5E8F1E0082E000C990B21E0EE3A62
:10045000F20741F0249130E0319682179307B1F70B
:1004600081E0089580E00895EF92FF920F931F932B
:10047000CF93DF937C0108E610E0C0E0D0E0C93202
:10048000D10589F0F80165917491C7010E94C418E3
:100490000E5F1F4F892B29F4FE01EB57FE4F84910D
:1004A00003C02196ECCF80E0DF91CF911F910F9197
:1004B000FF90EF9008950F931F93CF93DF93CDB7E5
:1004C000DEB728970FB6F894DEBF0FBECDBF8C0104
:1004D000CB0120E030E048E050E0BE016F5F7F4F8D
:1004E0000E944814CE0101960E943402811106C078
:1004F00064E771E0C8010E94251304C0682FC80199
:100500000E94B513C80128960FB6F894DEBF0FBE3F
:10051000CDBFDF91CF911F910F910895CF92DF92C0
:10052000EF92FF920F931F93CF93DF93CDB7DEB778
:1005300028970FB6F894DEBF0FBECDBF7C0100E058
:1005400010E0C62E660FDD08C6010E94BC18F80137
:10055000EB57FE4FE491F0E0E817F90779F4F80162
:10056000EE0FFF1FE859FF4F65917491CE01019680
:100570000E94CD18BE016F5F7F4F07C00F5F1F4FF6
:100580000932110509F764E771E0C7010E942513DC
:10059000C70128960FB6F894DEBF0FBECDBFDF911E
:1005A000CF911F910F91FF90EF90DF90CF90089522
:1005B000CF93DF93EC0168831A8219821C821B821D
:1005C0001E821D820E9425176F83788789879A87EC
:1005D0001C861B861E861D86188A1F86DF91CF917A
:1005E0000895CF92DF92EF92FF920F931F93CF93D4
:1005F000DF93EC0188810E940A188C010E94251764
:100600006B017C018F819885A985BA85B701A60108
:10061000481B590B6A0B7B0B8B859C85092E000CA4
:10062000AA0BBB0B84179507A607B70760F48D8547
:100630009E85181619063CF4ED81FE81309719F05D
:1006400009951E861D860130110591F489819A81D4
:10065000892B71F4EB81FC81309751F00995CF82A1
:10066000D886E986FA868D859E8501969E878D8738
:1006700089819A810817190731F0EF85F889309739
:1006800011F0C80109951A830983DF91CF911F9159
:100690000F91FF90EF90DF90CF900895EF92FF922F
:1006A0000F931F93CF93DF93CDB7DEB72E970FB67F
:1006B000F894DEBF0FBECDBF7C01162F862F0E949F
:1006C0002102882309F450C088E3E80EF11C612F51
:1006D000CE0108960E948E0264E771E0CE01019679
:1006E0000E94251300E010E08C859D8508171907EE
:1006F00050F5B801CE0108960E942514FC018081B6
:100700008A3219F467E771E017C0B801CE01089684
:100710000E942514FC0180818D3219F465E771E097
:100720000BC0B801CE0108960E942514FC018081FF
:10073000803231F46AE771E0CE0101960E94031421
:100740000F5F1F4FD1CF20E030E044E250E0B7010F
:10075000CE0101960E944814CE0101960E94B71264
:10076000CE0108960E94B7122E960FB6F894DEBFFF
:100770000FBECDBFDF91CF911F910F91FF90EF90F2
:100780000895CF92DF92EF92FF920F931F93CF9332
:10079000DF93EC0188AD811103C08C81811163C0AE
:1007A00088AD8823A9F10E9425178E01035A1F4F97
:1007B000F801C080D180E280F380DC01CB018C198C
:1007C0009D09AE09BF099E012F593F4F79018D3216
:1007D0009140A105B105A8F088AD882391F0CE0124
:1007E000C8960E948A0121E08236910509F020E036
:1007F000F70120830E942517F801608371838283AB
:100800009383F7018081882319F081E08B838A83A9
:100810008881882381F08A81882351F020E030E0AC
:10082000A9016CEB72E086E00E94AB0F1A8203C054
:1008300086E00E9446128981882321F18B818823DA
:1008400031F061E082E00E94DB171B821BC060E098
:1008500082E0DF91CF911F910F91FF90EF90DF9099
:10086000CF900C94DB17FE01E45AFF4F808181503A
:100870008083CE0104960E948A01BC01CE010E94B1
:100880004E038ECFDF91CF911F910F91FF90EF908C
:10089000DF90CF9008950F931F93CF93C0915C0189
:1008A0000C2F10E098012F5F3F4F2233310560F489
:1008B000082E000C990B0E94BC18F801E050FF4F65
:1008C0008483CF5FC0935C01CF911F910F910895F6
:1008D0000F931F93CF93DF93CDB7DEB727970FB654
:1008E000F894DEBF0FBECDBF8C014AE050E0BC01E2
:1008F0008CE792E00E94A40F41E050E063E771E0D2
:100900008CE792E00E948B0E0130110541F460915A
:10091000C4017091C5016115710519F56EC00230F1
:100920001105A1F464E771E080EC91E00E949E1350
:1009300064E771E087EC91E00E949E13109204013D
:100940001092380110925C018FE555C003301105FB
:1009500009F053C064E771E089EB91E00E949E13B7
:100960004CC08091B801882361F16150710980EC1D
:1009700091E00E942514FC018081803211F52091C4
:10098000C4013091C5012250310940E050E060ECD3
:1009900071E0CE0101960E947714BE016F5F7F4F18
:1009A00080EC91E00E949213CE0101960E94B71252
:1009B0008DE20E944B048DE20E944B041092B8011C
:1009C0001CC02091C4013091C5012150310940E083
:1009D00050E060EC71E0CE0101960E947714BE01F8
:1009E0006F5F7F4F80EC91E00E949213CE010196E1
:1009F0000E94B7128DE20E944B0427960FB6F8941E
:100A0000DEBF0FBECDBFDF91CF911F910F91089533
:100A1000CF92DF92EF92FF921F93CF93DF93CDB7E8
:100A2000DEB727970FB6F894DEBF0FBECDBF80911B
:100A3000AF0181110DC00E9425176093AB01709327
:100A4000AC018093AD019093AE0181E08093AF0142
:100A500084E00E940A18182F0E942517C090AB014D
:100A6000D090AC01E090AD01F090AE019B01AC01E3
:100A70002C193D094E095F0969017A018091AA018B
:100A8000181759F11092B70111110FC036E9C316AA
:100A9000D104E104F10418F46DE771E002C06FE7DE
:100AA00071E087EC91E00E9403148091CB0190915A
:100AB000CC01089730F064E771E087EC91E00E9488
:100AC0009E130E9425176093AB017093AC01809335
:100AD000AD019093AE011093AA01111161C08091F4
:100AE000CB019091CC01892B19F1D701C601835C10
:100AF0009140A109B10987359240A105B105C0F423
:100B000067EC71E0CE0101960E945B02BE016F5F4F
:100B10007F4F80EC91E00E94FC13CE0101960E9471
:100B2000B71264E771E087EC91E00E949E132AC03F
:100B30006091C4017091C5016115710589F1615021
:100B4000710980EC91E00E942514FC0180818032C3
:100B500039F18091B701811123C0FBE1CF1AF4E094
:100B6000DF0AE108F10825E9C216D104E104F10425
:100B7000B8F46BE771E080EC91E00E94031481E02F
:100B80008093B8016091C4017091C50161507109F1
:100B900080EC91E00E942514FC0180810E944B04AE
:100BA00027960FB6F894DEBF0FBECDBFDF91CF9171
:100BB0001F91FF90EF90DF90CF900895CF93DF9338
:100BC000CDB7DEB727970FB6F894DEBF0FBECDBF07
:100BD00060EC71E0CE0101960E94881367EC71E031
:100BE000CE0101960E94121441E0BC0181E092E026
:100BF0000E94B601CE0101960E94B71240E069EB57
:100C000071E081E092E00E94B60127960FB6F89459
:100C1000DEBF0FBECDBFDF91CF910895CF93DF939D
:100C2000CDB7DEB727970FB6F894DEBF0FBECDBFA6
:100C30008091C4019091C5010F9798F041E050E078
:100C400060EC71E0CE0101960E94BC14BE016F5FA2
:100C50007F4F80EC91E00E949213CE0101960E949A
:100C6000B7128091BD019091BE010F9798F041E0BD
:100C700050E069EB71E0CE0101960E94BC14BE0108
:100C80006F5F7F4F89EB91E00E949213CE01019636
:100C90000E94B71227960FB6F894DEBF0FBECDBFE5
:100CA000DF91CF9108950F931F93CF93DF93CDB72B
:100CB000DEB727970FB6F894DEBF0FBECDBF60E05A
:100CC0008091F0010E949F170FED11E060E0F801A4
:100CD00080810E949F178AEA91E0F80194838383C0
:100CE00088E694E0968385838CE291E094878387FD
:100CF0000EEC11E060E0F80180810E949F1780E80F
:100D000091E0F8019483838361E082E00E949F1761
:100D100061E086E00E949F17E0E0F1E0148210AEEF
:100D200040E855E260E070E08AE192E00E94130A38
:100D300040E855E260E070E08CE792E00E94CC0D64
:100D400020E040E162E085E092E00E94D40B85E083
:100D500092E00E94970B6BE771E0CE0101960E9432
:100D6000251341E0BE016F5F7F4F81E092E00E945A
:100D7000B601CE0101960E94B7126BE771E0CE0179
:100D800001960E94251340E0BE016F5F7F4F81E016
:100D900092E00E94B601CE0101960E94B7122796FA
:100DA0000FB6F894DEBF0FBECDBFDF91CF911F917C
:100DB0000F91089580EF91E00E94F1028FED91E094
:100DC0000E94F1028EEC91E00E94F1020E940E0658
:100DD0000E9408050E94DE0580E091E00C94C103AA
:100DE000CF92EF920F93CF93DF93CDB7DEB76C978F
:100DF0000FB6F894DEBF0FBECDBF20E04AE06BE037
:100E0000CE0101960E94E809EAE1F2E08B819C8123
:100E1000938382838D819E81AF81B88584839583FE
:100E2000A683B78389859A85AB85BC8580879187A2
:100E3000A287B38785E891E0918380838D8584873D
:100E40008E8585878F859889978786878989808B06
:100E50008A899B89928B818B8C899D89948B838BCA
:100E60008E899F89968B858B888D998D908F878BA6
:100E70008A8D9B8D928F818F9C8DA5E3B2E08C91A2
:100E800090FB80F99695917090FB81F98C9381E6A7
:100E9000848F158ECE0101960E94D90A8CE0C82E4F
:100EA00099E0E92E08E027E045E063E0CE010196F5
:100EB0000E94880C81E092E023E5FC01208322E57A
:100EC00021832EE030E0338322832B813C813783E2
:100ED000268325E931E0358324832D8120872E81E7
:100EE00021872F81228728E0FE013896ACE0B2E00E
:100EF00001900D922A95E1F72889FC01238B29891D
:100F0000248B2A89258B2B89268B2C89278B2D894D
:100F1000208F64E080EF91E00E94D8026DE08FEDB9
:100F200091E00E94D80263E18EEC91E00E94D80229
:100F300064E771E087EC91E00E94251364E771E0BB
:100F400080EC91E00E94251364E771E089EB91E069
:100F50000E9425136C960FB6F894DEBF0FBECDBF6E
:100F6000DF91CF910F91EF90CF90089589EB91E0B1
:100F70000E94B71280EC91E00E94B71287EC91E0DA
:100F80000E94B7128AE192E00C94D90A20917A0269
:100F900030917B0228173907B9F49091380280917B
:100FA0003902981789F0E0913802F0E0E65CFD4FD5
:100FB00080812091380230E02F5F3F4F2F7333271D
:100FC0002093380290E008958FEF9FEF08952091CD
:100FD0007A0230917B022817390781F49091380208
:100FE00080913902981751F0E0913802F0E0E65C08
:100FF000FD4F8081082E000C990B08958FEF9FEF15
:10100000089520917A0230917B022817390771F4F4
:10101000809139022091380290E0805C9F4F821BC2
:10102000910960E470E00E943318089580E090E038
:10103000089520917A0230917B022817390739F4FC
:101040008FB7F89410923902109238028FBF08952A
:10105000DC015196ED91FC915297908150968C91C4
:10106000809589238083089520E001972FEF8F3F9B
:101070009207D9F7089520917A0230917B022817C0
:10108000390789F0FC01238D2E7F238F2FB7F89429
:10109000109239021092380290937B0280937A0268
:1010A0002FBF81E0089580E00895EF92FF920F93A3
:1010B0001F93CF93DF93EC018B8DEE85FF859D858C
:1010C00081FF04C08081982329F446C08081982341
:1010D00009F042C08B899C890E94340888E0E82E80
:1010E000F12C10E001E08D899E890E943408EE8584
:1010F000FF8590818D85892311F0102B03C0802FEF
:1011000080951823000F81E0E81AF10861F78F89B4
:10111000988D0E9434088B8D81FD10958091390245
:101120002091380290E001968F73992730E0821762
:10113000930779F0E0913902F0E0E65CFD4F10830F
:101140008091390290E001968F739927809339023C
:1011500003C08B8D81608B8FDF91CF911F910F9199
:10116000FF90EF900895611102C00C942808DC01F3
:101170005196ED91FC915297208150968C91822B43
:1011800080830895DF92EF92FF920F931F93CF9386
:10119000DF93EC01298D3A8D2115310529F481E089
:1011A00090E09B838A834BC0162FDFB6F8946B8D3B
:1011B000669561700E94B308898D9A8D05960E948C
:1011C00034088B8D98E0E92EF12C01E081FF18C0E6
:1011D000812F802321F0CE010E94280804C061E005
:1011E000CE010E94B308898D9A8D0E943408000FA9
:1011F00081E0E81AF10861F7CE010E94280818C0C2
:10120000812F802329F061E0CE010E94B30803C042
:10121000CE010E942808898D9A8D0E943408000F03
:1012200081E0E81AF10861F761E0CE010E94B3089D
:10123000DFBE898D9A8D0E94340821E030E0C9011B
:10124000DF91CF911F910F91FF90EF90DF90089564
:101250001F920F920FB60F9211242F933F934F932B
:101260005F936F937F938F939F93AF93BF93EF930E
:10127000FF9380917A0290917B02009711F00E9477
:101280005508FF91EF91BF91AF919F918F917F9101
:101290006F915F914F913F912F910F900FBE0F90E3
:1012A0001F9018951F920F920FB60F9211242F9333
:1012B0003F934F935F936F937F938F939F93AF93DE
:1012C000BF93EF93FF930E942809FF91EF91BF9185
:1012D000AF919F918F917F916F915F914F913F91CE
:1012E0002F910F900FBE0F901F9018951F920F9285
:1012F0000FB60F9211242F933F934F935F936F93E9
:101300007F938F939F93AF93BF93EF93FF930E942D
:101310002809FF91EF91BF91AF919F918F917F919C
:101320006F915F914F913F912F910F900FBE0F9052
:101330001F9018951F93CF93DF93EC01162F61E058
:10134000812F0E949F1761E0812F0E94DB17812F60
:1013500090E0FC01E05AFD4FE491E88BFC01EC5871
:10136000FD4FE491F0E0EE0FFF1FEE56FD4F85912B
:1013700094919A8B898BDF91CF911F9108951F9340
:10138000CF93DF93EC01162F60E0812F0E949F170F
:101390008B8D81FD04C061E0812F0E94DB171C87CB
:1013A000812F90E0FC01E05AFD4FE491ED87FC01B4
:1013B000EC58FD4FE491F0E0EE0FFF1FE857FD4FB2
:1013C000859194919F878E87DF91CF911F9108958A
:1013D0001F93CF93DF93EC01162F1B821A8288EEA6
:1013E00093E0A0E0B0E08C839D83AE83BF8385E86B
:1013F00091E0998388831C8A1B8A1E8A1D8A188E15
:101400001F8A1A8E198E8B8D8E7F20FB81F98B8F10
:10141000642FCE010E949A09612FCE01DF91CF91F6
:101420001F910C94BF09CF92DF92EF92FF92CF935E
:10143000DF93EC011A8E198E188E1F8A1E8A1D8A60
:101440008FEA91E020E030E0FC01C590D590E59076
:10145000F490C416D506E606F70619F54CE0429F4F
:10146000C001439F900D1124FC01ED54FE4F2591C6
:1014700034913C8B2B8BFC01EB54FE4F2591349126
:101480003E8B2D8BFC01E954FE4F25913491388F12
:101490002F8BFC01E754FE4F859194919A8F898F91
:1014A00009C02F5F3F4F0C962D30310509F0CCCF8E
:1014B0001C8A1B8A8F89988D892B09F444C08C85DE
:1014C0008631E8F590916800883050F021E08E3048
:1014D00008F420E081E001C0880F2A95EAF701C0F6
:1014E00084E0892B809368009C85983038F09E308A
:1014F00040F0963148F0E0E0F0E008C0EDE6F0E0C2
:1015000005C0EBE6F0E002C0ECE6F0E04081983088
:1015100030F481E001C0880F9A95EAF70EC0292FB8
:1015200030E09E3018F42850310902C02E503109A5
:1015300081E001C0880F2A95EAF7842B8083898D8A
:101540009A8D0E943408CE01DF91CF91FF90EF90E9
:10155000DF90CF900C943B08FC012485263140F5A8
:10156000283028F02E3030F4EBE6F0E005C0EDE650
:10157000F0E002C0ECE6F0E03081283038F481E0A1
:1015800090E001C0880F2A95EAF70FC0422F50E083
:101590002E3018F44850510902C04E50510981E0D4
:1015A00090E001C0880F4A95EAF7809583238083F5
:1015B000089525E831E0FC01318320830C94AC0AC6
:1015C000CF93DF93EC0160E08E810E94DB1781E016
:1015D00090E00E94311761E08E810E94DB1781E06C
:1015E00090E00E94311760E08E810E94DB1784E654
:1015F00090E0DF91CF910C943117AF92BF92CF92D0
:10160000DF92EF92FF920F931F93CF93DF935C01D2
:101610007C0187E0E80EF11CC0E0D0E0062F10E06E
:10162000670161E0F70181917F010E949F17B80176
:101630000C2E02C0759567950A94E2F76170F60169
:1016400080810E94DB172196C430D10549F7C5017E
:10165000DF91CF911F910F91FF90EF90DF90CF908E
:10166000BF90AF900C94E00AAF92BF92CF92DF92FE
:10167000EF92FF920F931F93CF93DF935C017C0156
:1016800087E0E80EF11CC0E0D0E0062F10E0670113
:1016900061E0F70181917F010E949F17B8010C2E34
:1016A00002C0759567950A94E2F76170F601808132
:1016B0000E94DB172196C830D10549F7C501DF919B
:1016C000CF911F910F91FF90EF90DF90CF90BF903F
:1016D000AF900C94E00A1F93CF93DF93EC01162F89
:1016E000642F8C810E94DB178D818F3F19F060E0A1
:1016F0000E94DB178F85612F84FF06C0CE01DF912A
:10170000CF911F910C94340B70E084E07595679530
:101710008A95E1F7CE010E94FD0A612FCE01DF918B
:10172000CF911F910C94FD0A40E00C946B0B61E08B
:101730000E94940B80ED97E00C943117CF93DF93C8
:10174000CDB7DEB728970FB6F894DEBF0FBECDBF7A
:101750009C0188E0E9E6F1E0DE01119601900D922E
:101760008A95E1F7F9018389481710F04FEF480F88
:10177000FE013196E40FF11DE40FF11D9081690F18
:101780006068C90128960FB6F894DEBF0FBECDBFC2
:10179000DF91CF910C94940BFC016089262F24607B
:1017A000208B6C600C94940BCF93DF93EC01423050
:1017B00018F08F8588608F874B8B1C8A222329F035
:1017C000413019F48F8584608F8780E593EC0E9407
:1017D000311760E08C810E94DB1760E08E810E94EF
:1017E000DB178D818F3F19F060E00E94DB176F855A
:1017F00064FD1DC063E0CE010E94FD0A84E991E111
:101800000E94311763E0CE010E94FD0A84E991E154
:101810000E94311763E0CE010E94FD0A86E990E044
:101820000E94311762E0CE010E94FD0A16C060627C
:10183000CE010E94940B84E991E10E9431176F85DB
:101840006062CE010E94940B86E990E00E943117FD
:101850006F856062CE010E94940B6F856062CE013D
:101860000E94940B84E0888BCE010E94CC0BCE01A9
:101870000E94970B82E0898B66E0CE01DF91CF91C9
:101880000C94940B6F927F928F92AF92CF92EF92C3
:101890000F931F93CF93DF93CDB7DEB73C01162F85
:1018A000842F5D854E853F859889F3018483258348
:1018B0000683E782C086A186828653874487358760
:1018C000968761E00E949F17F30185818F3F19F091
:1018D00061E00E949F1761E0F30186810E949F17DB
:1018E000112319F0F301178603C080E1F301878704
:1018F00020E041E060E1C301DF91CF911F910F91A2
:10190000EF90CF90AF908F907F906F900C94D40B0E
:101910008F92AF92CF92EF920F93DC0113961C92AD
:101920001E921297E5E9F1E0ED93FC931F921F924E
:101930001F921F928C2CAE2CC02EE22E042F2FEF64
:10194000462F61E00E94420C0F900F900F900F9075
:101950000F91EF90CF90AF908F90089541E00E944B
:101960006B0B81E090E00895FC0124853585F90139
:10197000E05CFF4F80819181329620813181821B12
:10198000930B8F7399270895DC011C96ED91FC91C0
:101990001D97DF01A05CBF4F2D913C9111971296CE
:1019A0008D919C9111972817390739F08D919C9151
:1019B000E80FF91F808190E008958FEF9FEF089561
:1019C000FC01A485B585FD01E05CFF4F20813181DC
:1019D0003296808191812817390779F08081918131
:1019E000A80FB91F8C91208131812F5F3F4F2F733A
:1019F00033273183208390E008958FEF9FEF089580
:101A0000FC0181A1882329F0A489B5898C9186FFE6
:101A1000FBCF11A208950F931F93CF93DF93FC0187
:101A2000A685B7858D01005C1F4FE80188819981EB
:101A300001968F739927AD014E5B5F4FEA012881B4
:101A4000398128173907D1F3E80128813981A20F9C
:101A5000B31F6C93A685B785A05CBF4F11969C936E
:101A60008E93A689B7892C9181E090E0078C02C003
:101A7000880F991F0A94E2F7822B8C9381E081A34F
:101A80000488F589E02D80818064808381E090E086
:101A9000DF91CF911F910F91089508951F920F929A
:101AA0000FB60F9211242F934F935F938F939F93B1
:101AB000EF93FF938091C00082FD1CC02091C6006F
:101AC0008091220390912303409124035091250398
:101AD00001968F7399274817590771F0E0912203F7
:101AE000F0912303EE51FD4F2083909323038093C5
:101AF000220302C08091C600FF91EF919F918F91C8
:101B00005F914F912F910F900FBE0F901F901895DE
:101B10008CE792E00E94B40C892B11F00C944D0DCF
:101B200008951F920F920FB60F9211242F933F9397
:101B30008F939F93EF93FF932091DE023091DF020A
:101B40008091E0029091E1022817390731F48091E9
:101B5000C1008F7D8093C10014C0E091E002F0913C
:101B6000E102E256FD4F20818091E0029091E10276
:101B700001968F7399279093E1028093E00220935E
:101B8000C600FF91EF919F918F913F912F910F9000
:101B90000FBE0F901F901895CF92DF92EF92FF9299
:101BA000CF93DF93EC016A017B014115514E610532
:101BB000710509F1EC89FD8981E090E008A002C07F
:101BC000880F991F0A94E2F7808360E079E08DE343
:101BD00090E0A70196010E944718DA01C901019718
:101BE000A109B109B695A795979587959C012115EF
:101BF00080E13807A8F0EC89FD89108260E874E87C
:101C00008EE190E0A70196010E944718DA01C90110
:101C10000197A109B109B695A795979587959C015C
:101C2000E889F9893083EA89FB89208319A2EE8942
:101C3000FF89408181E090E09C010C8C02C0220F62
:101C4000331F0A94E2F7242B2083EE89FF89408119
:101C50009C010D8C02C0220F331F0A94E2F7242B43
:101C60002083EE89FF8940819C010E8C02C0220FE7
:101C7000331F0A94E2F7242B2083EE89FF89208109
:101C80000F8C02C0880F991F0A94E2F78095822377
:101C90008083DF91CF91FF90EF90DF90CF900895F8
:101CA000ECE7F2E01382128288EE93E0A0E0B0E06D
:101CB00084839583A683B7838DE991E091838083A4
:101CC00082EE92E0958784878EE992E097878687F7
:101CD00085EC90E0918B808B84EC90E0938B828BF1
:101CE00080EC90E0958B848B81EC90E0978B868BD9
:101CF00082EC90E0918F808F86EC90E0938F828FC2
:101D000084E0848F83E0858F87E0868F85E0878FEE
:101D100081E080A30895CF92DF92EF92FF920F931C
:101D20001F93CF93DF936C01EB017B01E40EF51E53
:101D300000E010E0CE15DF0561F06991D601ED916C
:101D4000FC910190F081E02DC6010995080F191F43
:101D5000F1CFC801DF91CF911F910F91FF90EF90CC
:101D6000DF90CF9008956115710579F0FB01019026
:101D70000020E9F73197AF01461B570BDC01ED91CD
:101D8000FC910280F381E02D099480E090E00895B9
:101D9000AF92BF92CF92DF92EF92FF920F931F9379
:101DA000CF93DF937C016B01C0E0D0E000E010E056
:101DB000D60114968D919C911597C817D90788F470
:101DC000D701ED91FC91A080B180BE01C6010E94B7
:101DD0003714682FC701F5010995080F191F2196BF
:101DE000E7CFC801DF91CF911F910F91FF90EF9046
:101DF000DF90CF90BF90AF9008950C94B30EDC01AC
:101E0000ED91FC910190F081E02D09948F929F92C9
:101E1000AF92BF92CF92DF92EF92FF920F931F93F8
:101E2000CF93DF93CDB7DEB7A1970FB6F894DEBF9F
:101E30000FBECDBF6C01142FE52FCB01022F19A2CD
:101E4000223008F40AE07E0121E2E20EF11C802E2D
:101E5000912CA12CB12C612F7E2FA50194010E9401
:101E60004718029F1019112481E0E81AF1081A306E
:101E700014F4105D01C0195CF7011083122FE32FD9
:101E8000CA01232B242B252B31F7B701C6010E9451
:101E9000B30EA1960FB6F894DEBF0FBECDBFDF9193
:101EA000CF911F910F91FF90EF90DF90CF90BF9057
:101EB000AF909F908F900895CF92DF92EF92FF9214
:101EC0000F931F93CF93DF932115310581F4DC012C
:101ED000ED91FC910190F081E02D642FDF91CF9185
:101EE0001F910F91FF90EF90DF90CF9009942A30CF
:101EF000310501F577FF1DC06A017B01EC016DE240
:101F00000E94FF0E8C0144275527BA014C195D0928
:101F10006E097F092AE0CE010E94060F800F911FF3
:101F2000DF91CF911F910F91FF90EF90DF90CF90B5
:101F300008952AE0DF91CF911F910F91FF90EF90CC
:101F4000DF90CF900C94060F9A01AB01770F660BD0
:101F5000770B0C945C0F4F925F926F927F928F92EF
:101F60009F92AF92BF92CF92DF92EF92FF920F9328
:101F70001F93CF93DF9300D000D01F92CDB7DEB771
:101F80008B0129013A0190916201891721F09F3F4D
:101F900009F046C205C0EBE4F2E024912D8384C031
:101FA00080936201EBE4F2E094919D839F3F09F4FA
:101FB00037C2913009F44DC058F1923009F074C025
:101FC0001092B0001092B1009091B0009260909386
:101FD000B0009091B10091609093B100282F30E053
:101FE000F901EC58FD4FE491F0E0EE0FFF1FEE56C3
:101FF000FD4F459154915093280340932703F901D5
:10200000E05AFD4FE491E093260392E09D8304C2E1
:1020100014BC15BC94B5926094BD95B5916095BD06
:10202000282F30E0F901EC58FD4FE491F0E0EE0F7D
:10203000FF1FEE56FD4F4591549150933603409348
:102040003503F901E05AFD4FE491E09334031D821A
:10205000E3C11092800010928100909181009860FD
:102060009093810090918100916090938100282F3E
:1020700030E0F901EC58FD4FE491F0E0EE0FFF1F66
:10208000EE56FD4F4591549150932F0340932E03EC
:10209000F901E05AFD4FE491E0932D0361E00E94C5
:1020A0009F1721E02D8382C02D8127FDB9C161E0FA
:1020B0000E949F178D818D7F09F078C04801A12C67
:1020C000B12C60E072E18AE790E0A50194010E94E2
:1020D000691829833A834B835C8369017A0181E023
:1020E000C81AD108E108F1089FEFC916D104E1042C
:1020F000F10409F008F44EC060E472E48FE090E06F
:10210000A50194010E94691869017A0181E0C81A49
:10211000D108E108F1089D81923009F52FEFC21630
:10212000D104E104F10409F008F43DC160E970ED67
:1021300083E090E0A50194010E94691869017A0189
:1021400081E0C81AD108E108F1089FEFC916D1044F
:10215000E104F10411F008F0B3C083E024C02FEFD4
:10216000C216D104E104F104B9F0B0F068E478EEED
:1021700081E090E0A50194010E94691869017A014B
:1021800081E0C81AD108E108F1089D81992309F47A
:102190000CC1D5C081E001C082E09D81911103C0D6
:1021A00085BD40C085E08093B1003CC04801A12CB2
:1021B000B12C60E072E18AE790E0A50194010E94F1
:1021C000691869017A0181E0C81AD108E108F108AB
:1021D000C114D10491E0E906F10488F068E478EED6
:1021E00081E090E0A50194010E94691869017A01DB
:1021F00081E0C81AD108E108F10883E001C081E05C
:102200009D81913079F490918100987F892B809302
:102210008100411451046104710449F42FEF3FEF30
:10222000A9012CC0411451046104710471F0D8015A
:10223000AA0FBB1FA30192010E94881828EE33E069
:1022400040E050E00E94471803C02FEF3FEFA90184
:102250008D81813099F0823019F18111E1C0C7BCC4
:1022600020933703309338034093390350933A0354
:1022700080916E00826080936E00D2C0D0928900FF
:10228000C09288002093300330933103409332038F
:102290005093330380916F00826080936F00C0C0C1
:1022A000C092B3002093290330932A0340932B0359
:1022B00050932C0380917000826080937000B0C0B6
:1022C00068E478EE81E090E0A50194010E9469182D
:1022D00069017A0191E0C91AD108E108F1082FEFEC
:1022E000C216D104E104F10441F138F164E274EF63
:1022F00080E090E0A50194010E94691869017A01CB
:1023000081E0C81AD108E108F1089FEFC916D1048D
:10231000E104F10409F008F445CF62E17AE780E0D6
:1023200090E0A50194010E94691869017A0181E099
:10233000C81AD108E108F10819C084E034CF2FEFA2
:10234000C216D104E104F10409F008F463C062E1AB
:102350007AE780E090E0A50194010E946918690184
:102360007A0191E0C91AD108E108F1088FEFC81687
:10237000D104E104F104A9F0A0F089819A81AB8134
:10238000BC812AE0B595A795979587952A95D1F7B1
:102390006C017D0121E0C21AD108E108F10887E053
:1023A00002CF86E000CF82E0FECE8FEFC816D104C8
:1023B000E104F10469F160F162E17AE780E090E024
:1023C000A50194010E94691869017A0191E0C91A76
:1023D000D108E108F1082FEFC216D104E104F1049D
:1023E000A9F0A0F089819A81AB81BC813AE0B595D2
:1023F000A795979587953A95D1F76C017D0121E0D6
:10240000C21AD108E108F10885E0CACE84E0C8CE3E
:1024100083E0C6CE84E0C1CE61E00E949F174ECE1D
:102420000F900F900F900F900F90DF91CF911F9111
:102430000F91FF90EF90DF90CF90BF90AF909F9063
:102440008F907F906F905F904F900895813039F01A
:1024500018F0823051F0089510926E000895809126
:102460006F008D7F80936F000895809170008D7F45
:102470008093700081E08093B0008091B100887FEC
:1024800084608093B1001092B3000895CF93C82F59
:1024900080916201C81307C0EBE4F2E084919FEFE2
:1024A0009093620101C08FEF0E94261260E08C2F92
:1024B000CF910C94DB171F920F920FB60F9211243D
:1024C0002F933F934F935F936F937F938F939F933C
:1024D000AF93BF93EF93FF938091290390912A03C9
:1024E000A0912B03B0912C03892B8A2B8B2B51F1BC
:1024F00090912603E0912703F0912803808189279A
:1025000080838091290390912A03A0912B03B0919D
:102510002C03181619061A061B06C4F48091290309
:1025200090912A03A0912B03B0912C030197A1094C
:10253000B1098093290390932A03A0932B03B093AE
:102540002C0304C0809162010E944612FF91EF911A
:10255000BF91AF919F918F917F916F915F914F91BB
:102560003F912F910F900FBE0F901F901895FC0177
:10257000808191810C946015CF93DF93EC01888169
:102580009981009711F00E946015198218821D82AE
:102590001C821B821A82DF91CF9108950F931F93A3
:1025A000CF93DF93EC018B016F5F7F4F888199811F
:1025B0000E94E915009731F0998388831B830A8371
:1025C00081E001C080E0DF91CF911F910F910895CC
:1025D000CF93DF93EC0188819981892B29F08A813F
:1025E0009B818617970760F4CE010E94CE12882344
:1025F00041F08C819D81892B19F4E881F981108249
:1026000081E0DF91CF910895EF92FF920F931F9396
:10261000CF93DF93EC017B018A01BA010E94E8129B
:10262000811104C0CE010E94BC1207C01D830C831F
:10263000B701888199810E94DD18CE01DF91CF9189
:102640001F910F91FF90EF900895FC01118210826D
:10265000138212821582148216826115710551F05F
:10266000FB0101900020E9F73197AF01461B570BA2
:102670000C94041308950F931F93CF93DF938C0151
:10268000EB01FC0180819181009799F04281538197
:102690002C813D814217530750F0688179810E9457
:1026A000DD188C819D81F8019583848313C00E947D
:1026B000601588819981F801918380838A819B814B
:1026C000938382838C819D81958384831982188270
:1026D0001B821A821D821C82DF91CF911F910F9164
:1026E0000895CF93DF93EC01FB018617970761F004
:1026F000608171816115710529F0448155810E94C5
:10270000041302C00E94BC12CE01DF91CF91089544
:10271000FC011182108213821282158214821682A9
:102720000C947113CF93DF93EC018617970711F088
:102730000E943B13CE01DF91CF910895CF93DF9399
:10274000EC016115710559F0FB0101900020E9F7DA
:102750003197AF01461B570B0E94041302C00E9421
:10276000BC12CE01DF91CF910895CF93DF9300D0BB
:10277000CDB7DEB7FC01118210821382128215825E
:102780001482168269831A82BE016F5F7F4F0E9496
:102790009E130F900F90DF91CF910895EF92FF92CB
:1027A0000F931F93CF93DF936115710511F480E0B0
:1027B0001CC041155105C1F07B01EC018C819D814C
:1027C0008A01080F191FB801CE010E94E812882360
:1027D00071F3288139818C819D81B701820F931F0C
:1027E0000E94DD181D830C8381E0DF91CF911F9142
:1027F0000F91FF90EF900895FB0144815581608116
:1028000071810C94CE136115710551F0FB0101909B
:102810000020E9F73197AF01461B570B0C94CE13FC
:1028200080E00895CF93DF93EC01FB014481558153
:10283000608171810E94CE13811103C0CE010E947C
:10284000BC12CE01DF91CF910895FC012481358126
:102850006217730720F480819181009729F4109208
:102860003B038BE393E00895860F971F0895FC01C7
:10287000248135816217730748F480819181009724
:1028800029F0FC01E60FF71F8081089580E008958C
:102890000F931F93CF93DF934115510519F16115E4
:1028A000710501F1DC011496ED91FC9115972E173D
:1028B0003F0718F0FB01108215C0E21BF30BEA0181
:1028C0002197EC17FD0708F4EF018B01FC016081F3
:1028D0007181620F731FAE01C8010E94E418C00F1E
:1028E000D11F1882DF91CF911F910F910895BF9250
:1028F000CF92DF92EF92FF920F931F93CF93DF93CC
:102900007C016B018A01E9012417350720F4812F2E
:102910008901C42FD82F64E771E0C7010E942513F5
:10292000D60114968D919C91159780179107C8F048
:102930008C179D0708F4EC01D601ED91FC911197DD
:10294000EC0FFD1FB08010826D917C91600F711FA4
:10295000C7010E949E13D601ED91FC91EC0FFD1F63
:10296000B082C701DF91CF911F910F91FF90EF903F
:10297000DF90CF90BF900895CF93DF93EC01FB01E0
:10298000248135810E947714CE01DF91CF91089583
:102990000F931F93CF93DF938230910510F482E061
:1029A00090E0E0914703F091480320E030E0A0E0A0
:1029B000B0E0309719F140815181028113814817AD
:1029C0005907C8F08417950769F4109731F01296EB
:1029D0000C93129713961C9327C0009347031093F0
:1029E000480322C02115310519F04217530718F486
:1029F0009A01BD01EF01DF01F801DBCF211531059F
:102A0000F9F0281B390B2430310580F48A819B8131
:102A10006115710521F0FB019383828304C09093BB
:102A2000480380934703FE01329644C0FE01E20F43
:102A3000F31F8193919322503109398328833AC03F
:102A40002091450330914603232B41F420916501E9
:102A50003091660130934603209345032091630132
:102A6000309164012115310541F42DB73EB74091F5
:102A7000670150916801241B350BE0914503F091EB
:102A80004603E217F307A0F42E1B3F0B2817390764
:102A900078F0AC014E5F5F4F2417350748F04E0FBA
:102AA0005F1F50934603409345038193919302C067
:102AB000E0E0F0E0CF01DF91CF911F910F910895F9
:102AC000CF93DF93009709F481C0FC013297138202
:102AD0001282A0914703B0914803109781F420819E
:102AE0003181820F931F20914503309146032817AF
:102AF000390751F5F0934603E093450367C0ED01B4
:102B000020E030E0CE17DF0740F44A815B819E0170
:102B100041155105F1F0EA01F5CFD383C28340811D
:102B20005181840F951FC817D90759F4888199815D
:102B3000840F951F0296918380838A819B81938362
:102B400082832115310529F4F0934803E09347036C
:102B50003DC0E901FB83EA8349915991C40FD51F18
:102B6000EC17FD0761F480819181840F951F029617
:102B7000E90199838883828193819B838A83E0E042
:102B8000F0E012968D919C911397009719F0FD013A
:102B9000DC01F7CF8D919C9111979D012E5F3F4FE6
:102BA000820F931F20914503309146032817390760
:102BB00069F4309729F4109248031092470302C039
:102BC00013821282B0934603A0934503DF91CF9105
:102BD00008956F927F928F929F92AF92BF92CF9201
:102BE000DF92EF92FF920F931F93CF93DF930097A3
:102BF00089F4CB01DF91CF911F910F91FF90EF905E
:102C0000DF90CF90BF90AF909F908F907F906F900C
:102C10000C94C814FC01E60FF71F9C0122503109E7
:102C2000E217F30708F4A9C0EC01D9010D911C913A
:102C3000119706171707B0F00530110508F49BC06F
:102C4000C80104978617970708F495C00250110928
:102C5000061B170B019311936D937C93CF010E9478
:102C6000601589C05B01A01AB10A4C01800E911E4B
:102C7000A0914703B0914803612C712CE12CF12CF9
:102C8000109709F446C08D919C911197A815B9052C
:102C9000B1F56C0142E0C40ED11CCA14DB0478F11A
:102CA0004C018A189B08640142E0C40ED11C1296A4
:102CB000BC9012971396AC91B5E0CB16D10440F0BE
:102CC000B282A38391828082D9016D937C9309C0E3
:102CD0000E5F1F4F800F911FF90191838083EB2DB1
:102CE000FA2FE114F10431F0D7011396FC93EE931F
:102CF000129741C0F0934803E09347033CC0681625
:102D0000790608F43C017D0112960D90BC91A02D2E
:102D1000B7CF809145039091460388169906E1F458
:102D200066167706C8F4809163019091640100975C
:102D300041F48DB79EB74091670150916801841BA3
:102D4000950BE817F907C8F4F0934603E0934503A1
:102D5000F901718360830FC0CB010E94C8147C010C
:102D6000009759F0A801BE010E94D418CE010E941C
:102D70006015C70104C0CE0102C080E090E0DF9181
:102D8000CF911F910F91FF90EF90DF90CF90BF9068
:102D9000AF909F908F907F906F9008950E943B1707
:102DA0000E945306C8E8DDE00E94DA062097E1F3AE
:102DB0000E94880DF9CF1F920F920FB60F92112427
:102DC0002F933F938F939F93AF93BF9380913D0336
:102DD00090913E03A0913F03B091400330913C039A
:102DE00023E0230F2D3720F40196A11DB11D05C04E
:102DF00026E8230F0296A11DB11D20933C0380936A
:102E00003D0390933E03A0933F03B0934003809112
:102E1000410390914203A0914303B0914403019672
:102E2000A11DB11D8093410390934203A0934303DE
:102E3000B0934403BF91AF919F918F913F912F9198
:102E40000F900FBE0F901F9018952FB7F8946091B8
:102E50003D0370913E0380913F03909140032FBF4B
:102E60000895019739F0880F991F880F991F0297CD
:102E70000197F1F70895789484B5826084BD84B594
:102E8000816084BD85B5826085BD85B5816085BD65
:102E9000EEE6F0E0808181608083E1E8F0E010827E
:102EA000808182608083808181608083E0E8F0E0BF
:102EB000808181608083E1EBF0E0808184608083A9
:102EC000E0EBF0E0808181608083EAE7F0E08081E0
:102ED0008460808380818260808380818160808340
:102EE0008081806880831092C1000895833081F0D2
:102EF00028F4813099F08230A1F008958630A9F04D
:102F00008730B9F08430D1F4809180008F7D03C088
:102F1000809180008F7780938000089584B58F77AB
:102F200002C084B58F7D84BD08958091B0008F77F5
:102F300003C08091B0008F7D8093B0000895CF933F
:102F4000DF9390E0FC01E05AFD4F2491FC01EC5826
:102F5000FD4F8491882361F190E0880F991FFC0157
:102F6000E456FD4FC591D491FC01EE56FD4FA5915D
:102F7000B491611109C09FB7F8948881209582238C
:102F80008883EC912E230BC0623061F49FB7F894D4
:102F90008881322F309583238883EC912E2B2C93BC
:102FA0009FBF06C08FB7F894E8812E2B28838FBF70
:102FB000DF91CF9108951F93CF93DF93282F30E0B7
:102FC000F901E45BFD4F8491F901E05AFD4FD49182
:102FD000F901EC58FD4FC491CC23C1F0162F81119B
:102FE0000E947617EC2FF0E0EE0FFF1FEE56FD4F1C
:102FF000A591B4919FB7F894111104C08C91D0950C
:10300000D82302C0EC91DE2BDC939FBFDF91CF91E0
:103010001F910895CF93DF93282F30E0F901E45BEF
:10302000FD4F8491F901E05AFD4FD491F901EC581C
:10303000FD4FC491CC2391F081110E947617EC2FA3
:10304000F0E0EE0FFF1FE857FD4FA591B491EC9112
:10305000ED2381E090E021F480E002C080E090E088
:10306000DF91CF91089597FB072E16F4009407D0B7
:1030700077FD09D00E94931807FC05D03EF4909587
:1030800081959F4F0895709561957F4F0895A1E2B6
:103090001A2EAA1BBB1BFD010DC0AA1FBB1FEE1FD2
:1030A000FF1FA217B307E407F50720F0A21BB30B1D
:1030B000E40BF50B661F771F881F991F1A9469F799
:1030C00060957095809590959B01AC01BD01CF01F5
:1030D0000895052E97FB1EF400940E94801857FD5A
:1030E00007D00E94471807FC03D04EF40C948018B8
:1030F00050954095309521953F4F4F4F5F4F089524
:1031000090958095709561957F4F8F4F9F4F089553
:103110000E94AD18A59F900DB49F900DA49F800DA7
:10312000911D11240895AA1BBB1B51E107C0AA1FC2
:10313000BB1FA617B70710F0A61BB70B881F991F58
:103140005A95A9F780959095BC01CD010895EE0F91
:10315000FF1F0590F491E02D0994A29FB001B39F49
:10316000C001A39F700D811D1124911DB29F700D90
:10317000811D1124911D08959111089581568A5140
:1031800008F4805285580895FB01DC018D9105906B
:1031900080190110D9F3990B0895FB01DC0105900A
:1031A0000D920020E1F70895FB01DC0102C00190BF
:1031B0000D9241505040D8F70895FB01DC01019079
:1031C0000D920020E1F70895FB01DC0141505040D1
:1031D00048F001900D920020C9F701C01D924150A6
:1031E0005040E0F7089511E0C5E5D1E004C0FE01CC
:1031F0000E94A7182196C635D107C9F7F894FFCFCA
:1032000001010000000000000000000000000000BC
:1032100000000000000000000000000000000000AE
:10322000000000000000000000000000000000009E
:10323000000000000000000000000000000000008E
:10324000000000000000000000000000000000007E
:10325000000000000000000000000000000000006E
:103260000000FF00004903800000004000140054EB
:10327000003A320A0062626220002020002A002DFB
:103280000000000000C2088B0E0108C607E70719FE
:103290000800000000AE0C8B0E000000000B0D8B30
:0A32A0000EB40CE00CC40C000D008D
:00000001FF
