:100000000C94B3000C94DB000C94DB000C94CA0A33
:100010000C94A60A0C947C0A0C94DB000C94031339
:100020000C94DB000C94DB000C94DB000C94DB00E4
:100030000C94DB000C94DB000C94DB000C94DB00D4
:100040000C94A9170C94DB000C94A20E0C94E50EF2
:100050000C94DB000C94DB000C94DB000C94DB00B4
:100060000C94DB000C94DB0000C2010001001100C5
:1000700011000C0000E100000A002500250021000D
:10008000009600001900390039003600127A00008D
:100090001F004600460044008070000022004D0012
:1000A0004D004A00004B00003600750075007200DC
:1000B000403800004A009C009C0099008025000008
:1000C0007200EC00EC00E900C0120000E900DA0167
:1000D000DA01D70160090000D701B603B603B30304
:1000E000B0040000B3036E076E076B0758020000F0
:1000F0006E07DC0EDC0ED80E2C010000DC0EC11DDC
:10010000C11DBE1D02000000070002010000030423
:10011000060000000000000000010204081020405A
:1001200080010204081020010204081020040404C5
:100130000404040404020202020202030303030390
:100140000300000000230026002900000000002515
:100150000028002B0000000000240027002A0000D7
:100160006006A40FFB0811241FBECFEFD8E0DEBF4E
:10017000CDBF12E0A0E0B1E0E4E7F3E302C00590F8
:100180000D92A031B107D9F725E0A0E1B2E001C09E
:100190001D92A33FB207E1F710E0C2EBD0E004C02C
:1001A0002197FE010E947519C03BD107C9F70E9433
:1001B0009C170C94AB190C940000A0911002B09104
:1001C0001102109769F0ED91FC91119712968D91A3
:1001D0009C91139790931102809310020995EDCF93
:1001E0000895CF93DF93EC0184E090E00E94961590
:1001F000009781F0FC01D183C083209110023091DF
:10020000110233832283909311028093100280E0C5
:1002100090E002C081E090E0DF91CF91089583E209
:1002200092E00C945F138AE292E00C945F13EF92D9
:10023000FF920F931F93CF93DF93CDB7DEB727972E
:100240000FB6F894DEBF0FBECDBF8C017B0181E0FD
:10025000482762E0C8010E94F20CF7012481358131
:100260002F30310598F0A9014E505109B701CE0148
:1002700001960E943115BE016F5F7F4FC8010E9439
:100280001C10CE0101960E945F1310C0B701C80177
:100290000E941C108EE0E82EF12C6DE171E0C80187
:1002A0000E945110F1E0EF1AF108B9F727960FB646
:1002B000F894DEBF0FBECDBFDF91CF911F910F919C
:1002C000FF90EF9008950F931F93CF93DF93CDB7D7
:1002D000DEB727970FB6F894DEBF0FBECDBF8C01F7
:1002E00040E060E00E94F20C61E171E0C8010E9410
:1002F00051106DE171E0CE0101960E94CD1341E0F5
:10030000BE016F5F7F4FC8010E941701CE010196A9
:100310000E945F1341E060E0C8010E94F20C64E1BA
:1003200071E0C8010E9451106DE171E0CE010196AB
:100330000E94CD1340E0BE016F5F7F4FC8010E9455
:100340001701CE0101960E945F1327960FB6F8940D
:10035000DEBF0FBECDBFDF91CF911F910F910895EA
:10036000EF92FF920F931F93CF93DF938C017B014A
:10037000C4EAD2E0B701CE0107960E94FD1488239B
:1003800029F0BE01C8010E9430140AC02E9684E0F4
:10039000C23ED80779F76EE171E0C8010E94CD1323
:1003A000C801DF91CF911F910F91FF90EF900895B9
:1003B0009F92AF92BF92CF92DF92EF92FF920F93F4
:1003C0001F93CF93DF93CDB7DEB727970FB6F8947F
:1003D000DEBF0FBECDBF7C015B016EE171E00E940C
:1003E000CD13C12CD12CF50184819581C816D90675
:1003F000B8F5B601C5010E940E15FC01808180325E
:10040000F9F004EA12E0B601C5010E940E15FC01E4
:100410006081CE0101960E945D14BE016F5F7F4F27
:10042000C8010E94FD14982ECE0101960E945F1310
:10043000992061F0B801695F7F4FC7010E94A41441
:100440006DE171E0C7010E94AB1406C0025F1F4F4F
:10045000F4E0023E1F07B9F68FEFC81AD80AC3CFDF
:10046000C70127960FB6F894DEBF0FBECDBFDF9150
:10047000CF911F910F91FF90EF90DF90CF90BF90A1
:10048000AF909F900895EF92FF920F931F93CF9399
:10049000DF938C017B016EE171E00E94CD13C0E01F
:1004A000D0E0F70184819581C817D90728F5BE01EE
:1004B000C7010E940E15FC0180818A3219F469E19E
:1004C00071E015C0BE01C7010E940E15FC018081BC
:1004D0008D3219F467E171E00AC0BE01C7010E94C4
:1004E0000E15FC018081803229F46CE171E0C801B5
:1004F0000E94AB142196D5CFC801DF91CF911F91F7
:100500000F91FF90EF9008950F931F93CF93DF9378
:10051000CDB7DEB72E970FB6F894DEBF0FBECDBFB6
:100520008C01CE0108960E943014BE01685F7F4F97
:10053000CE0101960E94D801BE016F5F7F4FC801B6
:100540000E944302CE0101960E945F13CE010896DD
:100550000E945F13C8012E960FB6F894DEBF0FBE3F
:10056000CDBFDF91CF911F910F9108950F931F93EE
:10057000CF93DF93CDB7DEB765970FB6F894DEBFA4
:100580000FBECDBF8C018091510281110DC06EE173
:1005900071E08AE292E00E94CD1381E080935102E3
:1005A00083E191E00E94F1008091490281110DC028
:1005B0006EE171E083E292E00E94CD1381E08093CE
:1005C00049028FE091E00E94F10080914102811187
:1005D0000DC00E94F31760931F0270932002809356
:1005E00021029093220281E080934102F8018481EC
:1005F0009581892B41F0C8010E948215B8018AE2D9
:1006000092E00E94A4148091270290912802892BE5
:1006100009F04FC080912E0290912F02892B09F48E
:1006200081C060E070E08AE292E00E940E15FC0159
:100630006081CE010F960E945D14BE01615F7F4F05
:100640008CE592E00E94A414BE01615F7F4FCE0151
:1006500008960E943014BE01685F7F4FCE0101965C
:100660000E948402BE016F5F7F4F83E292E00E948E
:100670003A14CE0101960E945F13CE0108960E94A3
:100680005F1341E050E06AE272E0CE0101960E9401
:100690007615BE016F5F7F4F8AE292E00E943A14A6
:1006A000CE0101960E945F13CE010F960E945F1348
:1006B00015C00E94F31700911F0210912002209193
:1006C000210230912202DC01CB01801B910BA20B95
:1006D000B30B8D329140A105B10588F480912702BA
:1006E00090912802892BC9F160E070E083E292E0EA
:1006F0000E940E15FC018081823679F51EC041E012
:1007000050E063E272E0CE0101960E947615BE01D0
:100710006F5F7F4F83E292E00E943A14CE01019610
:100720000E945F130E94F31760931F0270932002D0
:100730008093210290932202D1CF809101018823DE
:1007400021F061E082E00E94A918809100018823D5
:1007500061F081E08093590208C0809101018823F3
:1007600021F060E082E00E94A91865960FB6F89427
:10077000DEBF0FBECDBFDF91CF911F910F910895C6
:100780000F931F93CF93DF93CDB7DEB727970FB6A5
:10079000F894DEBF0FBECDBF8091390281110DC02C
:1007A0000E94F31760931B0270931C0280931D023A
:1007B00090931E0281E0809339028DE00E94D81848
:1007C000182F80911A021817C9F00E94F31760932E
:1007D0001B0270931C0280931D0290931E02113025
:1007E00059F4809118029091190201969093190280
:1007F0008093180210935A0210931A020E94F31762
:1008000000911B0210911C0220911D0230911E02CA
:10081000DC01CB01801B910BA20BB30B8739910537
:10082000A105B10508F474C08091180290911902D5
:10083000019789F5609167027091680261157105F1
:1008400051F180915B02882309F448C0615071091D
:1008500083E692E00E940E15FC0180818032F1F562
:1008600020916702309168022250310940E050E047
:1008700063E672E0CE0101960E943115BE016F5F02
:100880007F4F83E692E00E943A14CE0101960E94C7
:100890005F1310925B0280911802909119020297E7
:1008A00061F46EE171E083E692E00E9446146EE12D
:1008B00071E08AE692E00E944614809118029091BD
:1008C0001902039731F46EE171E08CE592E00E9429
:1008D000461410921902109218021AC02091670251
:1008E000309168022150310940E050E063E672E047
:1008F000CE0101960E943115BE016F5F7F4F83E6E6
:1009000092E00E943A14CE0101960E945F13C3CF79
:1009100027960FB6F894DEBF0FBECDBFDF91CF9103
:100920001F910F91089583E10E94D81890911702AA
:100930008917E9F0811119C02091010190910001FE
:10094000222331F0992361F01092010191E00BC054
:10095000992331F091E0909301011092000105C0BC
:1009600091E0909301019093000180931702089504
:10097000FF920F931F93CF93DF93CDB7DEB72E97E0
:100980000FB6F894DEBF0FBECDBF8091310281114A
:100990000DC00E94F31760931302709314028093AA
:1009A00015029093160281E08093310284E00E9448
:1009B000D818F82E0E94F3172091130230911402D8
:1009C0008B01021B130B80911202F81641F1109259
:1009D0005A02F1100CC00639110518F46FE971E0E4
:1009E00002C067E971E08AE692E00E94AB14809150
:1009F0006E0290916F02089730F06EE171E08AE626
:100A000092E00E9446140E94F317609313027093C1
:100A100014028093150290931602F0921202F110C4
:100A20005CC080916E0290916F02892B49F1C801E0
:100A3000835C91408735924018F56AE672E0CE01FA
:100A400008960E943014BE01685F7F4FCE01019668
:100A50000E94B001BE016F5F7F4F83E692E00E946B
:100A6000A414CE0101960E945F13CE0108960E9445
:100A70005F136EE171E08AE692E00E94461423C0A3
:100A800060916702709168026115710531F16150E2
:100A9000710983E692E00E940E15FC01808180328C
:100AA000E1F080915A02811118C00B5114400539B0
:100AB000110598F46DE171E083E692E00E94AB14B9
:100AC00081E080935B0260916702709168026150DF
:100AD000710983E692E00E940E152E960FB6F894E7
:100AE000DEBF0FBECDBFDF91CF911F910F91FF9061
:100AF0000895CF93DF93CDB7DEB727970FB6F8945D
:100B0000DEBF0FBECDBF63E672E0CE0101960E944C
:100B100030146AE672E0CE0101960E94BA1441E0F8
:100B2000BC0181E792E00E941701CE0101960E946C
:100B30005F1340E06CE572E081E792E00E941701EC
:100B400027960FB6F894DEBF0FBECDBFDF91CF91D1
:100B50000895CF93DF93CDB7DEB727970FB6F894FC
:100B6000DEBF0FBECDBF6EE171E0CE0101960E94E7
:100B7000CD13CE0101960E94B602CE0101960E94CD
:100B80005F1380915902882349F020E030E0A901E9
:100B90006CEB72E086E00E94531003C086E00E9476
:100BA000EE121092590227960FB6F894DEBF0FBED0
:100BB000CDBFDF91CF91089560E084E00E946D1871
:100BC00060E08DE00E946D1860E083E10E946D1886
:100BD00061E082E00E946D1861E086E00E946D187D
:100BE00040E855E260E070E086E892E00E94670B22
:100BF00040E855E260E070E086E295E00E94200F58
:100C000020E040E162E081E792E00E94280D81E768
:100C100092E00E94EB0C81E792E00C946301CF9389
:100C2000DF93CDB7DEB727970FB6F894DEBF0FBEC0
:100C3000CDBF80916702909168020F9798F041E0D4
:100C400050E063E672E0CE0101960E947615BE0187
:100C50006F5F7F4F83E692E00E943A14CE010196C7
:100C60000E945F1380916002909161020F9798F04B
:100C700041E050E06CE572E0CE0101960E947615ED
:100C8000BE016F5F7F4F8CE592E00E943A14CE0167
:100C900001960E945F1327960FB6F894DEBF0FBE31
:100CA000CDBFDF91CF9108950E940F060E94C0032F
:100CB0000E9493040E94B8040E9479050C94A9052F
:100CC000CF92EF920F93CF93DF93CDB7DEB76C97B0
:100CD0000FB6F894DEBF0FBECDBF6FE171E084EABE
:100CE00092E00E94CD1366E971E08BEA92E00E94E7
:100CF000CD1361E271E082EB92E00E94CD136CEAC9
:100D000071E089EB92E00E94CD1363E271E080EC28
:100D100092E00E94CD1365E271E087EC92E00E94C0
:100D2000CD136AE271E08EEC92E00E94CD1362E492
:100D300071E085ED92E00E94CD136CE271E08CEDE4
:100D400092E00E94CD136FE971E083EE92E00E9481
:100D5000CD136EE271E08AEE92E00E94CD1360E363
:100D600071E081EF92E00E94CD1365E371E088EFBE
:100D700092E00E94CD136FE471E08FEF92E00E9449
:100D8000CD1367E371E086E093E00E94CD136CE938
:100D900071E08DE093E00E94CD1369E371E084E19E
:100DA00093E00E94CD136EE971E08BE193E00E9425
:100DB000CD136BE371E082E293E00E94CD1364E80F
:100DC00071E089E293E00E94CD136DE371E080E36E
:100DD00093E00E94CD1360EC71E087E393E00E9402
:100DE000CD136FE371E08EE393E00E94CD1361E4D5
:100DF00071E085E493E00E94CD1366E471E08CE439
:100E000093E00E94CD136EE871E083E593E00E94C9
:100E1000CD1368E471E08AE593E00E94CD1362E3AC
:100E200071E081E693E00E94CD136AE471E088E608
:100E300093E00E94CD1365E871E08FE693E00E9495
:100E4000CD136CE471E086E793E00E94CD136EE46D
:100E500071E08DE793E00E94CD1363E571E084E8D3
:100E600093E00E94CD1365E571E08BE893E00E946A
:100E7000CD136AE571E082E993E00E94CD1361E34E
:100E800071E089E993E00E94CD136CE571E080EA9E
:100E900093E00E94CD136DE971E087EA93E00E9430
:100EA000CD136EE571E08EEA93E00E94CD1367E901
:100EB00071E085EB93E00E94CD1360E671E08CEB6E
:100EC00093E00E94CD1365E971E083EC93E00E940A
:100ED000CD1362E671E08AEC93E00E94CD1364E9E1
:100EE00071E081ED93E00E94CD1364E671E088ED3E
:100EF00093E00E94CD136DE871E08FED93E00E94C6
:100F0000CD1366E671E086EE93E00E94CD1368E6AD
:100F100071E08DEE93E00E94CD136DE671E084EFF9
:100F200093E00E94CD1363EE71E08BEF93E00E949B
:100F3000CD136FE671E082E094E00E94CD1361ED85
:100F400071E089E094E00E94CD1361E771E080E1F7
:100F500094E00E94CD1363E771E087E194E00E9482
:100F6000CD1369E771E08EE194E00E94CD136BE749
:100F700071E085E294E00E94CD1361E871E08CE2BB
:100F800094E00E94CD1363E871E083E394E00E9453
:100F9000CD1369E871E08AE394E00E94CD136BE819
:100FA00071E081E494E00E94CD1361E971E088E48E
:100FB00094E00E94CD1363E971E08FE494E00E9415
:100FC000CD1369E971E086E594E00E94CD136BE9E9
:100FD00071E08DE594E00E94CD1361EA71E084E652
:100FE00094E00E94CD1363EA71E08BE694E00E94E6
:100FF000CD1369EA71E082E794E00E94CD136BEAB9
:1010000071E089E794E00E94CD1361EB71E080E824
:1010100094E00E94CD1363EB71E087E894E00E94B6
:10102000CD1369EB71E08EE894E00E94CD1369ED79
:1010300071E085E994E00E94CD136BEB71E08CE9DF
:1010400094E00E94CD136DEB71E083EA94E00E947E
:10105000CD1364EC71E08AEA94E00E94CD1366EC53
:1010600071E081EB94E00E94CD136DEC71E088EBB0
:1010700094E00E94CD136FEC71E08FEB94E00E943E
:10108000CD1366ED71E086EC94E00E94CD1368ED1F
:1010900071E08DEC94E00E94CD136FED71E084ED72
:1010A00094E00E94CD1361EE71E08BED94E00E941C
:1010B000CD1320E04AE06BE0CE0101960E943C0B8C
:1010C000E6E8F2E08B819C81938382838D819E810F
:1010D000AF81B88584839583A683B78389859A85F4
:1010E000AB85BC8580879187A287B3878CEE91E022
:1010F000918380838D8584878E8585878F85988968
:10110000978786878989808B8A899B89928B818B37
:101110008C899D89948B838B8E899F89968B858BF7
:10112000888D998D908F878B8A8D9B8D928F818FE3
:101130009C8DA1EAB2E08C9190FB80F9969591701C
:1011400090FB81F98C9381E6848F158ECE010196F8
:101150000E942D0C8CE0C82E99E0E92E08E027E0D3
:1011600045E063E0CE0101960E94DC0D81E792E04C
:101170002B813C81FC01338322832CEF31E03183CE
:1011800020832D8124832E8125832F81268328E0AF
:10119000FE013896A8E7B2E001900D922A95E1F79A
:1011A0002889FC0127872989208B2A89218B2B8973
:1011B000228B2C89238B2D89248B6EE171E08AE6AA
:1011C00092E00E94CD136EE171E083E692E00E940E
:1011D000CD136EE171E08CE592E00E94CD136C9628
:1011E0000FB6F894DEBF0FBECDBFDF91CF910F9148
:1011F000EF90CF900895CF93DF938CE592E00E941B
:101200005F1383E692E00E945F138AE692E00E94F9
:101210005F1386E892E00E942D0CC2EED4E027977F
:10122000CE010E945F1382E0C43AD807C1F7DF9174
:10123000CF9108952091240530912505281739076D
:10124000B9F49091E2048091E304981789F0E09159
:10125000E204F0E0EC51FB4F80812091E20430E0A9
:101260002F5F3F4F2F7333272093E20490E00895C0
:101270008FEF9FEF089520912405309125052817C1
:10128000390781F49091E2048091E304981751F0BA
:10129000E091E204F0E0EC51FB4F8081082E000C5D
:1012A000990B08958FEF9FEF0895209124053091B9
:1012B00025052817390771F48091E3042091E20491
:1012C00090E0805C9F4F821B910960E470E00E9477
:1012D0000119089580E090E008952091240530914F
:1012E00025052817390739F48FB7F8941092E304CD
:1012F0001092E2048FBF0895DC015196ED91FC91AC
:101300005297908150968C9180958923808308957F
:1013100020E001972FEF8F3F9207D9F70895209192
:101320002405309125052817390789F0FC01238D04
:101330002E7F238F2FB7F8941092E3041092E204CB
:1013400090932505809324052FBF81E0089580E0C8
:101350000895EF92FF920F931F93CF93DF93EC01C9
:101360008B8DEE85FF859D8581FF04C0808198234C
:1013700029F446C08081982309F042C08B899C895A
:101380000E94880988E0E82EF12C10E001E08D89A8
:101390009E890E948809EE85FF8590818D8589232D
:1013A00011F0102B03C0802F80951823000F81E0CF
:1013B000E81AF10861F78F89988D0E9488098B8D52
:1013C00081FD10958091E3042091E20490E0019664
:1013D0008F73992730E08217930779F0E091E30447
:1013E000F0E0EC51FB4F10838091E30490E0019614
:1013F0008F7399278093E30403C08B8D81608B8F5B
:10140000DF91CF911F910F91FF90EF90089561119F
:1014100002C00C947C09DC015196ED91FC9152972D
:10142000208150968C91822B80830895DF92EF92D9
:10143000FF920F931F93CF93DF93EC01298D3A8D89
:101440002115310529F481E090E09B838A834BC00C
:10145000162FDFB6F8946B8D669561700E94070AAF
:10146000898D9A8D05960E9488098B8D98E0E92ECA
:10147000F12C01E081FF18C0812F802321F0CE01E3
:101480000E947C0904C061E0CE010E94070A898D98
:101490009A8D0E948809000F81E0E81AF10861F72F
:1014A000CE010E947C0918C0812F802329F061E0C1
:1014B000CE010E94070A03C0CE010E947C09898DDB
:1014C0009A8D0E948809000F81E0E81AF10861F7FF
:1014D00061E0CE010E94070ADFBE898D9A8D0E94CD
:1014E000880921E030E0C901DF91CF911F910F9170
:1014F000FF90EF90DF9008951F920F920FB60F921A
:1015000011242F933F934F935F936F937F938F9308
:101510009F93AF93BF93EF93FF9380912405909196
:101520002505009711F00E94A909FF91EF91BF9145
:10153000AF919F918F917F916F915F914F913F916B
:101540002F910F900FBE0F901F9018951F920F9222
:101550000FB60F9211242F933F934F935F936F9386
:101560007F938F939F93AF93BF93EF93FF930E94CB
:101570007C0AFF91EF91BF91AF919F918F917F91E5
:101580006F915F914F913F912F910F900FBE0F90F0
:101590001F9018951F920F920FB60F9211242F9340
:1015A0003F934F935F936F937F938F939F93AF93EB
:1015B000BF93EF93FF930E947C0AFF91EF91BF913D
:1015C000AF919F918F917F916F915F914F913F91DB
:1015D0002F910F900FBE0F901F9018951F93CF93D0
:1015E000DF93EC01162F61E0812F0E946D1861E0FE
:1015F000812F0E94A918812F90E0FC01E75EFE4F29
:10160000E491E88BFC01E35DFE4FE491F0E0EE0F26
:10161000FF1FE55BFE4F859194919A8B898BDF913B
:10162000CF911F9108951F93CF93DF93EC01162F55
:1016300060E0812F0E946D188B8D81FD04C061E0F8
:10164000812F0E94A9181C87812F90E0FC01E75E82
:10165000FE4FE491ED87FC01E35DFE4FE491F0E085
:10166000EE0FFF1FEF5BFE4F859194919F878E8752
:10167000DF91CF911F9108951F93CF93DF93EC01DA
:10168000162F1B821A8288EE93E0A0E0B0E08C83D4
:101690009D83AE83BF838CEE91E0998388831C8AFF
:1016A0001B8A1E8A1D8A188E1F8A1A8E198E8B8D90
:1016B0008E7F20FB81F98B8F642FCE010E94EE0A72
:1016C000612FCE01DF91CF911F910C94130BCF921C
:1016D000DF92EF92FF92CF93DF93EC011A8E198E77
:1016E000188E1F8A1E8A1D8A88E690E020E030E06E
:1016F000FC01C590D590E590F490C416D506E60699
:10170000F70619F54CE0429FC001439F900D11244C
:10171000FC01E459FF4F259134913C8B2B8BFC014C
:10172000E259FF4F259134913E8B2D8BFC01E059FE
:10173000FF4F25913491388F2F8BFC01EE58FF4FCE
:10174000859194919A8F898F09C02F5F3F4F0C9696
:101750002D30310509F0CCCF1C8A1B8A8F89988DDA
:10176000892B09F444C08C858631E8F59091680096
:10177000883050F021E08E3008F420E081E001C094
:10178000880F2A95EAF701C084E0892B80936800CE
:101790009C85983038F09E3040F0963148F0E0E07B
:1017A000F0E008C0EDE6F0E005C0EBE6F0E002C0D6
:1017B000ECE6F0E04081983030F481E001C0880F21
:1017C0009A95EAF70EC0292F30E09E3018F4285081
:1017D000310902C02E50310981E001C0880F2A95DD
:1017E000EAF7842B8083898D9A8D0E948809CE0127
:1017F000DF91CF91FF90EF90DF90CF900C948F0905
:10180000FC012485263140F5283028F02E3030F4B4
:10181000EBE6F0E005C0EDE6F0E002C0ECE6F0E05B
:101820003081283038F481E090E001C0880F2A959B
:10183000EAF70FC0422F50E02E3018F448505109FB
:1018400002C04E50510981E090E001C0880F4A95D6
:10185000EAF780958323808308952CEE31E0FC0124
:10186000318320830C94000CCF93DF93EC0160E074
:101870008E810E94A91881E090E00E94FF1761E02C
:101880008E810E94A91881E090E00E94FF1760E01D
:101890008E810E94A91884E690E0DF91CF910C948C
:1018A000FF17AF92BF92CF92DF92EF92FF920F930A
:1018B0001F93CF93DF935C017C0187E0E80EF11C5E
:1018C000C0E0D0E0062F10E0670161E0F7018191F0
:1018D0007F010E946D18B8010C2E02C075956795A6
:1018E0000A94E2F76170F60180810E94A91821969E
:1018F000C430D10549F7C501DF91CF911F910F91F8
:10190000FF90EF90DF90CF90BF90AF900C94340C8D
:10191000AF92BF92CF92DF92EF92FF920F931F93FD
:10192000CF93DF935C017C0187E0E80EF11CC0E0FF
:10193000D0E0062F10E0670161E0F70181917F019F
:101940000E946D18B8010C2E02C0759567950A9417
:10195000E2F76170F60180810E94A9182196C830D3
:10196000D10549F7C501DF91CF911F910F91FF90EC
:10197000EF90DF90CF90BF90AF900C94340C1F93FA
:10198000CF93DF93EC01162F642F8C810E94A9184E
:101990008D818F3F19F060E00E94A9188F85612F1B
:1019A00084FF06C0CE01DF91CF911F910C94880C6B
:1019B00070E084E0759567958A95E1F7CE010E9405
:1019C000510C612FCE01DF91CF911F910C94510CDE
:1019D00040E00C94BF0C61E00E94E80C80ED97E0C1
:1019E0000C94FF17CF93DF93CDB7DEB728970FB6D0
:1019F000F894DEBF0FBECDBF9C0188E0E9E0F1E0C6
:101A0000DE01119601900D928A95E1F7F901838923
:101A1000481710F04FEF480FFE013196E40FF11D0B
:101A2000E40FF11D9081690F6068C90128960FB617
:101A3000F894DEBF0FBECDBFDF91CF910C94E80CC0
:101A4000FC016089262F2460208B6C600C94E80CCC
:101A5000CF93DF93EC01423018F08F8588608F8739
:101A60004B8B1C8A222329F0413019F48F85846026
:101A70008F8780E593EC0E94FF1760E08C810E94C5
:101A8000A91860E08E810E94A9188D818F3F19F0FE
:101A900060E00E94A9186F8564FD1DC063E0CE015F
:101AA0000E94510C84E991E10E94FF1763E0CE018E
:101AB0000E94510C84E991E10E94FF1763E0CE017E
:101AC0000E94510C86E990E00E94FF1762E0CE016F
:101AD0000E94510C16C06062CE010E94E80C84E99D
:101AE00091E10E94FF176F856062CE010E94E80CB1
:101AF00086E990E00E94FF176F856062CE010E9428
:101B0000E80C6F856062CE010E94E80C84E0888B4F
:101B1000CE010E94200DCE010E94EB0C82E0898B49
:101B200066E0CE01DF91CF910C94E80C6F927F922A
:101B30008F92AF92CF92EF920F931F93CF93DF9339
:101B4000CDB7DEB73C01162F842F5D854E853F85CE
:101B50009889F301848325830683E782C086A18662
:101B60008286538744873587968761E00E946D1887
:101B7000F30185818F3F19F061E00E946D1861E0EB
:101B8000F30186810E946D18112319F0F301178665
:101B900003C080E1F301878720E041E060E1C301F9
:101BA000DF91CF911F910F91EF90CF90AF908F90D9
:101BB0007F906F900C94280D8F92AF92CF92EF92FE
:101BC0000F93DC0113961C921E921297ECEFF1E03A
:101BD000ED93FC931F921F921F921F928C2CAE2CA0
:101BE000C02EE22E042F2FEF462F61E00E94960DAB
:101BF0000F900F900F900F900F91EF90CF90AF90AC
:101C00008F90089541E00E94BF0C81E090E008951C
:101C1000FC0124853585F901E05CFF4F80819181CD
:101C2000329620813181821B930B8F7399270895FF
:101C3000DC011C96ED91FC911D97DF01A05CBF4F6C
:101C40002D913C91119712968D919C911197281787
:101C5000390739F08D919C91E80FF91F808190E050
:101C600008958FEF9FEF0895FC01A485B585FD01D0
:101C7000E05CFF4F2081318132968081918128176D
:101C8000390779F080819181A80FB91F8C9120814B
:101C900031812F5F3F4F2F7333273183208390E0B3
:101CA00008958FEF9FEF0895FC0181A1882329F00B
:101CB000A489B5898C9186FFFBCF11A208950F935B
:101CC0001F93CF93DF93FC01A685B7858D01005C40
:101CD0001F4FE8018881998101968F739927AD0183
:101CE0004E5B5F4FEA012881398128173907D1F30C
:101CF000E80128813981A20FB31F6C93A685B785AF
:101D0000A05CBF4F11969C938E93A689B7892C91A6
:101D100081E090E0078C02C0880F991F0A94E2F7D7
:101D2000822B8C9381E081A30488F589E02D80814A
:101D30008064808381E090E0DF91CF911F910F91CB
:101D4000089508951F920F920FB60F9211242F93AA
:101D50004F935F938F939F93EF93FF938091C00076
:101D600082FD1CC02091C6008091CC059091CD05CC
:101D70004091CE055091CF0501968F739927481752
:101D8000590771F0E091CC05F091CD05E457FA4F79
:101D900020839093CD058093CC0502C08091C6002E
:101DA000FF91EF919F918F915F914F912F910F90A4
:101DB0000FBE0F901F90189586E295E00E94080EC6
:101DC000892B11F00C94A10E08951F920F920FB65B
:101DD0000F9211242F933F938F939F93EF93FF9331
:101DE000209188053091890580918A0590918B0515
:101DF0002817390731F48091C1008F7D8093C1008D
:101E000014C0E0918A05F0918B05E85BFA4F2081C0
:101E100080918A0590918B0501968F7399279093F5
:101E20008B0580938A052093C600FF91EF919F91C7
:101E30008F913F912F910F900FBE0F901F9018958B
:101E4000CF92DF92EF92FF92CF93DF93EC016A0182
:101E50007B014115514E6105710509F1EC89FD8940
:101E600081E090E008A002C0880F991F0A94E2F771
:101E7000808360E079E08DE390E0A70196010E9405
:101E80001519DA01C9010197A109B109B695A795FC
:101E9000979587959C01211580E13807A8F0EC897A
:101EA000FD89108260E874E88EE190E0A701960158
:101EB0000E941519DA01C9010197A109B109B69566
:101EC000A795979587959C01E889F9893083EA89D8
:101ED000FB89208319A2EE89FF89408181E090E08F
:101EE0009C010C8C02C0220F331F0A94E2F7242BB2
:101EF0002083EE89FF8940819C010D8C02C0220F56
:101F0000331F0A94E2F7242B2083EE89FF89408156
:101F10009C010E8C02C0220F331F0A94E2F7242B7F
:101F20002083EE89FF8920810F8C02C0880F991FC2
:101F30000A94E2F7809582238083DF91CF91FF900E
:101F4000EF90DF90CF900895E6E2F5E013821282E1
:101F500088EE93E0A0E0B0E084839583A683B78306
:101F600084E092E0918380838CE895E09587848774
:101F700088E495E09787868785EC90E0918B808B4D
:101F800084EC90E0938B828B80EC90E0958B848B3B
:101F900081EC90E0978B868B82EC90E0918F808F24
:101FA00086EC90E0938F828F84E0848F83E0858F2E
:101FB00087E0868F85E0878F81E080A30895CF92A8
:101FC000DF92EF92FF920F931F93CF93DF936C01F9
:101FD000EB017B01E40EF51E00E010E0CE15DF05FD
:101FE00061F06991D601ED91FC910190F081E02DB5
:101FF000C6010995080F191FF1CFC801DF91CF91D4
:102000001F910F91FF90EF90DF90CF900895611591
:10201000710579F0FB0101900020E9F73197AF01DC
:10202000461B570BDC01ED91FC910280F381E02D02
:10203000099480E090E00895AF92BF92CF92DF9232
:10204000EF92FF920F931F93CF93DF937C016B016D
:10205000C0E0D0E000E010E0D60114968D919C9194
:102060001597C817D90788F4D701ED91FC91A08086
:10207000B180BE01C6010E942015682FC701F5017D
:102080000995080F191F2196E7CFC801DF91CF915D
:102090001F910F91FF90EF90DF90CF90BF90AF9086
:1020A00008950C9407104F925F926F927F928F92D7
:1020B0009F92AF92BF92CF92DF92EF92FF920F93D7
:1020C0001F93CF93DF9300D000D01F92CDB7DEB720
:1020D0008B0129013A0190910201891721F09F3F5C
:1020E00009F046C205C0E4E0F1E024912D8384C0EC
:1020F00080930201E4E0F1E094919D839F3F09F415
:1021000037C2913009F44DC058F1923009F074C0D3
:102110001092B0001092B1009091B0009260909334
:10212000B0009091B10091609093B100282F30E001
:10213000F901E35DFE4FE491F0E0EE0FFF1FE55B78
:10214000FE4F459154915093D2054093D105F9012A
:10215000E75EFE4FE491E093D00592E09D8304C2D8
:1021600014BC15BC94B5926094BD95B5916095BDB5
:10217000282F30E0F901E35DFE4FE491F0E0EE0F2F
:10218000FF1FE55BFE4F459154915093E00540934E
:10219000DF05F901E75EFE4FE491E093DE051D8265
:1021A000E3C11092800010928100909181009860AC
:1021B0009093810090918100916090938100282FED
:1021C00030E0F901E35DFE4FE491F0E0EE0FFF1F18
:1021D000E55BFE4F459154915093D9054093D80546
:1021E000F901E75EFE4FE491E093D70561E00E94BC
:1021F0006D1821E02D8382C02D8127FDB9C161E0DA
:102200000E946D188D818D7F09F078C04801A12C46
:10221000B12C60E072E18AE790E0A50194010E9490
:10222000371929833A834B835C8369017A0181E002
:10223000C81AD108E108F1089FEFC916D104E104DA
:10224000F10409F008F44EC060E472E48FE090E01D
:10225000A50194010E94371969017A0181E0C81A29
:10226000D108E108F1089D81923009F52FEFC216DF
:10227000D104E104F10409F008F43DC160E970ED16
:1022800083E090E0A50194010E94371969017A0169
:1022900081E0C81AD108E108F1089FEFC916D104FE
:1022A000E104F10411F008F0B3C083E024C02FEF83
:1022B000C216D104E104F104B9F0B0F068E478EE9C
:1022C00081E090E0A50194010E94371969017A012B
:1022D00081E0C81AD108E108F1089D81992309F429
:1022E0000CC1D5C081E001C082E09D81911103C085
:1022F00085BD40C085E08093B1003CC04801A12C61
:10230000B12C60E072E18AE790E0A50194010E949F
:10231000371969017A0181E0C81AD108E108F1088A
:10232000C114D10491E0E906F10488F068E478EE84
:1023300081E090E0A50194010E94371969017A01BA
:1023400081E0C81AD108E108F10883E001C081E00A
:102350009D81913079F490918100987F892B8093B1
:102360008100411451046104710449F42FEF3FEFDF
:10237000A9012CC0411451046104710471F0D80109
:10238000AA0FBB1FA30192010E94561928EE33E049
:1023900040E050E00E94151903C02FEF3FEFA90164
:1023A0008D81813099F0823019F18111E1C0C7BC73
:1023B0002093E1053093E2054093E3055093E40553
:1023C00080916E00826080936E00D2C0D0928900AE
:1023D000C09288002093DA053093DB054093DC053A
:1023E0005093DD0580916F00826080936F00C0C0C4
:1023F000C092B3002093D3053093D4054093D50504
:102400005093D60580917000826080937000B0C0B8
:1024100068E478EE81E090E0A50194010E9437190C
:1024200069017A0191E0C91AD108E108F1082FEF9A
:10243000C216D104E104F10441F138F164E274EF11
:1024400080E090E0A50194010E94371969017A01AA
:1024500081E0C81AD108E108F1089FEFC916D1043C
:10246000E104F10409F008F445CF62E17AE780E085
:1024700090E0A50194010E94371969017A0181E079
:10248000C81AD108E108F10819C084E034CF2FEF51
:10249000C216D104E104F10409F008F463C062E15A
:1024A0007AE780E090E0A50194010E943719690164
:1024B0007A0191E0C91AD108E108F1088FEFC81636
:1024C000D104E104F104A9F0A0F089819A81AB81E3
:1024D000BC812AE0B595A795979587952A95D1F760
:1024E0006C017D0121E0C21AD108E108F10887E002
:1024F00002CF86E000CF82E0FECE8FEFC816D10477
:10250000E104F10469F160F162E17AE780E090E0D2
:10251000A50194010E94371969017A0191E0C91A55
:10252000D108E108F1082FEFC216D104E104F1044B
:10253000A9F0A0F089819A81AB81BC813AE0B59580
:10254000A795979587953A95D1F76C017D0121E084
:10255000C21AD108E108F10885E0CACE84E0C8CEED
:1025600083E0C6CE84E0C1CE61E00E946D184ECEFD
:102570000F900F900F900F900F90DF91CF911F91C0
:102580000F91FF90EF90DF90CF90BF90AF909F9012
:102590008F907F906F905F904F900895813039F0C9
:1025A00018F0823051F0089510926E0008958091D5
:1025B0006F008D7F80936F000895809170008D7FF4
:1025C0008093700081E08093B0008091B100887F9B
:1025D00084608093B1001092B3000895CF93C82F08
:1025E00080910201C81307C0E4E0F1E084919FEFFD
:1025F0009093020101C08FEF0E94CE1260E08C2FF9
:10260000CF910C94A9181F920F920FB60F9211241C
:102610002F933F934F935F936F937F938F939F93EA
:10262000AF93BF93EF93FF938091D3059091D4051F
:10263000A091D505B091D605892B8A2B8B2B51F112
:102640009091D005E091D105F091D2058081892744
:1026500080838091D3059091D405A091D505B09148
:10266000D605181619061A061B06C4F48091D30560
:102670009091D405A091D505B091D6050197A109F7
:10268000B1098093D3059093D405A093D505B09359
:10269000D60504C0809102010E94EE12FF91EF91D5
:1026A000BF91AF919F918F917F916F915F914F916A
:1026B0003F912F910F900FBE0F901F901895FC0126
:1026C000808191810C942E16CF93DF93EC01888149
:1026D0009981009711F00E942E16198218821D828E
:1026E0001C821B821A82DF91CF9108950F931F9352
:1026F000CF93DF93EC018B016F5F7F4F88819981CE
:102700000E94B716009731F0998388831B830A8350
:1027100081E001C080E0DF91CF911F910F9108957A
:10272000CF93DF93EC0188819981892B29F08A81ED
:102730009B818617970760F4CE010E947613882349
:1027400041F08C819D81892B19F4E881F9811082F7
:1027500081E0DF91CF910895EF92FF920F931F9345
:10276000CF93DF93EC017B018A01BA010E949013A1
:10277000811104C0CE010E94641307C01D830C8325
:10278000B701888199810E94A419CE01DF91CF9170
:102790001F910F91FF90EF900895FC01118210821C
:1027A000138212821582148216826115710551F00E
:1027B000FB0101900020E9F73197AF01461B570B51
:1027C0000C94AC1308950F931F93CF93DF938C0158
:1027D000EB01FC0180819181009799F04281538146
:1027E0002C813D814217530750F0688179810E9406
:1027F000A4198C819D81F8019583848313C00E9464
:102800002E1688819981F801918380838A819B812A
:10281000938382838C819D8195838483198218821E
:102820001B821A821D821C82DF91CF911F910F9112
:102830000895CF93DF93EC01FB018617970761F0B2
:10284000608171816115710529F0448155810E9473
:10285000AC1302C00E946413CE01DF91CF910895A2
:10286000FC01118210821382128215821482168258
:102870000C941914CF93DF93EC018617970711F08E
:102880000E94E313CE01DF91CF910895CF93DF93A0
:10289000EC016115710559F0FB0101900020E9F789
:1028A0003197AF01461B570B0E94AC1302C00E9428
:1028B0006413CE01DF91CF910895CF93DF9300D0C1
:1028C000CDB7DEB7FC01118210821382128215820D
:1028D0001482168269831A82BE016F5F7F4F0E9445
:1028E00046140F900F90DF91CF910895EF92FF92D1
:1028F0000F931F93CF93DF936115710511F480E05F
:102900001CC041155105C1F07B01EC018C819D81FA
:102910008A01080F191FB801CE010E949013882365
:1029200071F3288139818C819D81B701820F931FBA
:102930000E94A4191D830C8381E0DF91CF911F9128
:102940000F91FF90EF900895FB01448155816081C4
:1029500071810C9476146115710551F0FB010190A1
:102960000020E9F73197AF01461B570B0C94761402
:1029700080E00895CF93DF93EC01FB014481558102
:10298000608171810E947614811103C0CE010E9482
:102990006413CE01DF91CF910895CF93DF93DC01D3
:1029A000ED91FC91EB01A881B981309711F010975E
:1029B000C9F4109759F0EB012C813D81232B31F0A4
:1029C0008C9190E091958195910914C0309781F098
:1029D000DC0114968D919C911597892B49F080818B
:1029E00090E008C0BD01CF01DF91CF910C949B19FD
:1029F00080E090E0DF91CF910895FC014481558102
:102A0000FB01248135814217530729F40E94CD141C
:102A100021E0892B09F020E0822F0895FC01248118
:102A200035816217730720F480819181009729F422
:102A30001092E50585EE95E00895860F971F08959D
:102A4000FC01248135816217730748F480819181EC
:102A5000009729F0FC01E60FF71F8081089580E0C0
:102A60000895BF92CF92DF92EF92FF920F931F9340
:102A7000CF93DF937C016B018A01E90124173507AD
:102A800020F4812F8901C42FD82F6EE171E0C70196
:102A90000E94CD13D60114968D919C9115978017A5
:102AA0009107C8F08C179D0708F4EC01D601ED9151
:102AB000FC911197EC0FFD1FB08010826D917C91FD
:102AC000600F711FC7010E944614D601ED91FC9161
:102AD000EC0FFD1FB082C701DF91CF911F910F91C5
:102AE000FF90EF90DF90CF90BF900895CF93DF934A
:102AF000EC01FB01248135810E943115CE01DF916B
:102B0000CF910895CF93DF93FC01C081D1812097AD
:102B100051F08881882339F0082E000C990B0E940F
:102B20008A198993F6CFDF91CF9108950F931F9360
:102B3000CF93DF938230910510F482E090E0E09132
:102B4000F105F091F20520E030E0A0E0B0E0309730
:102B500019F1408151810281138148175907C8F04A
:102B60008417950769F4109731F012960C93129719
:102B700013961C9327C00093F1051093F20522C011
:102B80002115310519F04217530718F49A01BD01B8
:102B9000EF01DF01F801DBCF21153105F9F0281B2A
:102BA000390B2430310580F48A819B8161157105D0
:102BB00021F0FB019383828304C09093F2058093FC
:102BC000F105FE01329644C0FE01E20FF31F81932E
:102BD000919322503109398328833AC02091EF051F
:102BE0003091F005232B41F420910501309106012D
:102BF0003093F0052093EF052091030130910401FB
:102C00002115310541F42DB73EB740910701509190
:102C10000801241B350BE091EF05F091F005E21758
:102C2000F307A0F42E1B3F0B2817390778F0AC01EF
:102C30004E5F5F4F2417350748F04E0F5F1F5093CC
:102C4000F0054093EF058193919302C0E0E0F0E03E
:102C5000CF01DF91CF911F910F910895CF93DF9313
:102C6000009709F481C0FC01329713821282A0916F
:102C7000F105B091F205109781F420813181820F26
:102C8000931F2091EF053091F0052817390751F572
:102C9000F093F005E093EF0567C0ED0120E030E030
:102CA000CE17DF0740F44A815B819E014115510533
:102CB000F1F0EA01F5CFD383C28340815181840FC3
:102CC000951FC817D90759F488819981840F951FDA
:102CD0000296918380838A819B81938382832115CD
:102CE000310529F4F093F205E093F1053DC0E901C7
:102CF000FB83EA8349915991C40FD51FEC17FD0757
:102D000061F480819181840F951F0296E901998376
:102D10008883828193819B838A83E0E0F0E012962E
:102D20008D919C911397009719F0FD01DC01F7CF6D
:102D30008D919C9111979D012E5F3F4F820F931FA4
:102D40002091EF053091F0052817390769F4309785
:102D500029F41092F2051092F10502C0138212823A
:102D6000B093F005A093EF05DF91CF9108956F9296
:102D70007F928F929F92AF92BF92CF92DF92EF920B
:102D8000FF920F931F93CF93DF93009789F4CB01AA
:102D9000DF91CF911F910F91FF90EF90DF90CF9037
:102DA000BF90AF909F908F907F906F900C949615EE
:102DB000FC01E60FF71F9C0122503109E217F307CF
:102DC00008F4A9C0EC01D9010D911C9111970617C7
:102DD0001707B0F00530110508F49BC0C80104972F
:102DE0008617970708F495C002501109061B170BA8
:102DF000019311936D937C93CF010E942E1689C08D
:102E00005B01A01AB10A4C01800E911EA091F10540
:102E1000B091F205612C712CE12CF12C109709F482
:102E200046C08D919C911197A815B905B1F56C011B
:102E300042E0C40ED11CCA14DB0478F14C018A189C
:102E40009B08640142E0C40ED11C1296BC901297FC
:102E50001396AC91B5E0CB16D10440F0B282A383B7
:102E600091828082D9016D937C9309C00E5F1F4FC0
:102E7000800F911FF90191838083EB2DFA2FE114CC
:102E8000F10431F0D7011396FC93EE93129741C0F1
:102E9000F093F205E093F1053CC06816790608F45A
:102EA0003C017D0112960D90BC91A02DB7CF809171
:102EB000EF059091F00588169906E1F466167706FD
:102EC000C8F48091030190910401009741F48DB7FB
:102ED0009EB74091070150910801841B950BE8179C
:102EE000F907C8F4F093F005E093EF05F901718359
:102EF00060830FC0CB010E9496157C01009759F0AA
:102F0000A801BE010E949219CE010E942E16C7018F
:102F100004C0CE0102C080E090E0DF91CF911F910C
:102F20000F91FF90EF90DF90CF90BF90AF909F9068
:102F30008F907F906F9008950E9409180E94DC0581
:102F4000CCEDDEE00E9454062097E1F30E94DC0EF7
:102F5000F9CF1F920F920FB60F9211242F933F9328
:102F60008F939F93AF93BF938091E7059091E8056E
:102F7000A091E905B091EA053091E60523E0230F21
:102F80002D3720F40196A11DB11D05C026E8230FA1
:102F90000296A11DB11D2093E6058093E70590934D
:102FA000E805A093E905B093EA058091EB059091BF
:102FB000EC05A091ED05B091EE050196A11DB11DA6
:102FC0008093EB059093EC05A093ED05B093EE058F
:102FD000BF91AF919F918F913F912F910F900FBE15
:102FE0000F901F9018952FB7F8946091E705709196
:102FF000E8058091E9059091EA052FBF08950197B2
:1030000039F0880F991F880F991F02970197F1F7E0
:103010000895789484B5826084BD84B5816084BD50
:1030200085B5826085BD85B5816085BDEEE6F0E041
:10303000808181608083E1E8F0E01082808182609D
:103040008083808181608083E0E8F0E0808181601E
:103050008083E1EBF0E0808184608083E0EBF0E04E
:10306000808181608083EAE7F0E0808184608083F2
:10307000808182608083808181608083808180689C
:1030800080831092C1000895833081F028F481304C
:1030900099F08230A1F008958630A9F08730B9F018
:1030A0008430D1F4809180008F7D03C080918000B6
:1030B0008F7780938000089584B58F7702C084B5A0
:1030C0008F7D84BD08958091B0008F7703C080917B
:1030D000B0008F7D8093B0000895CF93DF9390E090
:1030E000FC01E75EFE4F2491FC01E35DFE4F8491FD
:1030F000882361F190E0880F991FFC01EB5AFE4F85
:10310000C591D491FC01E55BFE4FA591B49161118D
:1031100009C09FB7F8948881209582238883EC9119
:103120002E230BC0623061F49FB7F8948881322F50
:10313000309583238883EC912E2B2C939FBF06C060
:103140008FB7F894E8812E2B28838FBFDF91CF9122
:1031500008951F93CF93DF93282F30E0F901EB5FA1
:10316000FE4F8491F901E75EFE4FD491F901E35DD2
:10317000FE4FC491CC23C1F0162F81110E94441838
:10318000EC2FF0E0EE0FFF1FE55BFE4FA591B49131
:103190009FB7F894111104C08C91D095D82302C028
:1031A000EC91DE2BDC939FBFDF91CF911F910895AF
:1031B000CF93DF93282F30E0F901EB5FFE4F84912E
:1031C000F901E75EFE4FD491F901E35DFE4FC49132
:1031D000CC2391F081110E944418EC2FF0E0EE0F07
:1031E000FF1FEF5BFE4FA591B491EC91ED2381E0C1
:1031F00090E021F480E002C080E090E0DF91CF9188
:10320000089597FB072E16F4009407D077FD09D098
:103210000E94611907FC05D03EF4909581959F4F5F
:103220000895709561957F4F0895A1E21A2EAA1B0B
:10323000BB1BFD010DC0AA1FBB1FEE1FFF1FA21766
:10324000B307E407F50720F0A21BB30BE40BF50B63
:10325000661F771F881F991F1A9469F760957095EC
:10326000809590959B01AC01BD01CF010895052E7D
:1032700097FB1EF400940E944E1957FD07D00E9440
:10328000151907FC03D04EF40C944E195095409537
:10329000309521953F4F4F4F5F4F08959095809502
:1032A000709561957F4F8F4F9F4F08950E947B19B6
:1032B000A59F900DB49F900DA49F800D911D11248A
:1032C0000895AA1BBB1B51E107C0AA1FBB1FA6176D
:1032D000B70710F0A61BB70B881F991F5A95A9F7BF
:1032E00080959095BC01CD010895EE0FFF1F0590CC
:1032F000F491E02D0994A29FB001B39FC001A39F58
:10330000700D811D1124911DB29F700D811D11241E
:10331000911D08959111089581568A5108F48052A3
:1033200085580895FB01DC0102C001900D924150C7
:103330005040D8F70895FB01DC018D910190801970
:103340000110D9F3990B0895FB01DC0101900D9256
:103350000020E1F708950E94DD0010E0C2EBD0E00C
:1033600004C0FE010E9475192196C33BD107C9F71D
:04337000F894FFCFFF
:103374000101FF0000F30580000000400014005428
:1033840000533A00523A0062626220002020004159
:1033940000420043002D2A2D2A0044004500460027
:1033A4002A2A2D2A004700480049004A004B004CB5
:1033B400002A2D2A2A004D004E004F0050002A2DCD
:1033C4002D2A0051002D2D2A2D00520053005400A7
:1033D40055005600570058002D2A2A2D0059005A2E
:1033E4000030002D2D2D2D2D0031002A2D2D2D2DB9
:1033F4000032002A2A2D2D2D0033002A2A2A2D2DB1
:103404000034002A2A2A2A2D0035002A2A2A2A2AA8
:103414000036002D2A2A2A2A0037002D2D2A2A2A8E
:103424000038002D2D2D2A2A0039002E002A2D2A9D
:103434002D2A2D002C002D2D2A2A2D2D003F002A67
:103444002A2D2D2A2A0027002A2D2D2D2D2A002150
:10345400002D2A2D2A2D2D0000000000160ADF0F52
:1034640055091A093B096D0900000000020EDF0F1F
:10347400000000005F0EDF0F080E340E180E540E0D
:00000001FF
