:100000000C9456010C947E010C947E010C940E0A03
:100010000C94EA090C94C0090C947E010C94B31260
:100020000C947E010C947E010C947E010C947E0154
:100030000C947E010C947E010C947E010C947E0144
:100040000C9457170C947E010C94E60D0C94290E19
:100050000C947E010C947E010C947E010C947E0124
:100060000C947E010C947E0182017D017801740163
:1000700072016D016901640161015C015801530164
:1000800050014D01490144013F013B013701350158
:1000900031012C01280123011E01190113010D0159
:1000A00007010101FB00F500EF00E900E300DD00BE
:1000B000D600CF00C800C100BA002D2A2D2A2D2D50
:1000C000002A2D2D2D2D2A002A2A2D2D2A2A002DF9
:1000D0002D2A2A2D2D002A2D2A2D2A2D002D2D2DB9
:1000E0002D2A002D2D2D2A2A002D2D2A2A2A002DD9
:1000F0002A2A2A2A002A2A2A2A2A002A2A2A2A2DB1
:10010000002A2A2A2D2D002A2A2D2D2D002A2D2DB8
:100110002D2D002D2D2D2D2D002D2D2A2A002D2A9F
:100120002D2D002D2A2A2D002A2D2D002A2A2A2D98
:10013000002A2A2D002D002A2A2A002A2D2A002DE5
:100140002D2A2D002A2D2D2A002D2D2D002D2A009F
:100150002D2D002A2D2A2A002D2A2D002A2D2D2D65
:10016000002A2A002A2A2A2A002D2D2A002A2A2D8E
:100170002A002A002D2A2A002D2A2D2A002D2A2A7B
:100180002A002A2D004142434445464748494A4BEC
:100190004C4D4E4F505152535455565758595A3052
:1001A0003132333435363738392E2C3F2721000091
:1001B000C201000100110011000C0000E100000A62
:1001C00000250025002100009600001900390039A3
:1001D000003600127A00001F0046004600440080EE
:1001E00070000022004D004D004A00004B00003618
:1001F00000750075007200403800004A009C009CA9
:10020000009900802500007200EC00EC00E900C0BD
:10021000120000E900DA01DA01D70160090000D715
:1002200001B603B603B303B0040000B3036E076E58
:10023000076B07580200006E07DC0EDC0ED80E2C90
:10024000010000DC0EC11DC11DBE1D020000000723
:10025000000201000003040600000000000000008E
:10026000010204081020408001020408102001024D
:10027000040810200404040404040404020202021A
:10028000020203030303030300000000230026000F
:10029000290000000000250028002B0000000000BD
:1002A000240027002A008707E80E4E0811241FBEED
:1002B000CFEFD8E0DEBFCDBF11E0A0E0B1E0E6E8CF
:1002C000F4E302C005900D92AA3AB107D9F723E0F2
:1002D000AAEAB1E001C01D92AB34B207E1F711E028
:1002E000C5E5D1E004C02197FE010E944019C33545
:1002F000D107C9F70E9448170C94361A0C940000D5
:1003000081E08093B8010895CF93DF93DC018C9155
:10031000082E000C990BED0121E030E0FD01019069
:100320000020E9F73197EA1BFB0B2E173F0728F453
:10033000498149932F5F3F4FF1CFEA0FFB1F319760
:100340001082DF91CF91089581309105D1F4809191
:10035000B70181110AC080911B02853414F48F5FAC
:1003600001C081E480931B0208959091040181E013
:1003700089278093040190910501892780930501C5
:100380000895029731F49091B70181E08927809315
:10039000B7010895BF92CF92DF92EF92FF920F9331
:1003A0001F93CF93DF93CDB7DEB727970FB6F8949F
:1003B000DEBF0FBECDBF7C016B01B42E8C010C5F84
:1003C0001F4F41E04B2560E0C8010E94360CF70149
:1003D000BB2011F0608101C06181C8010E94970FAC
:1003E0006AE3C8010E94970FF60124813581F70165
:1003F000828193818217930798F4A901481B590BB6
:10040000B601CE0101960E94F114BE016F5F7F4FCD
:10041000C8010E94600FCE0101960E94311315C0E1
:10042000B601C8010E94600FC12CD12CF701828156
:100430009381C816D90648F46CE771E0C8010E94A0
:10044000950FFFEFCF1ADF0AF1CF27960FB6F8947A
:10045000DEBF0FBECDBFDF91CF911F910F91FF90F7
:10046000EF90DF90CF90BF900895E5E8F1E0082E7F
:10047000000C990B21E0EE3AF20741F0249130E0B4
:10048000319682179307B1F781E0089580E00895CF
:10049000EF92FF920F931F93CF93DF937C0108E6B7
:1004A00010E0C0E0D0E0C932D10589F0F8016591D3
:1004B0007491C7010E94FF190E5F1F4F892B29F409
:1004C000FE01EB57FE4F849103C02196ECCF80E0F4
:1004D000DF91CF911F910F91FF90EF9008950F93AF
:1004E0001F93CF93DF93CDB7DEB728970FB6F8945D
:1004F000DEBF0FBECDBF8C01CB0120E030E048E075
:1005000050E0BE016F5F7F4F0E94C214CE01019682
:100510000E944802811106C06DE771E0C8010E9487
:100520009F1304C0682FC8010E942F14C801289689
:100530000FB6F894DEBF0FBECDBFDF91CF911F91F4
:100540000F910895CF92DF92EF92FF920F931F9336
:10055000CF93DF93CDB7DEB728970FB6F894DEBF01
:100560000FBECDBF7C0100E010E0C62E660FDD0897
:10057000C6010E94F719F801EB57FE4FE491F0E035
:10058000E817F90779F4F801EE0FFF1FE859FF4F5C
:1005900065917491CE0101960E94081ABE016F5FA9
:1005A0007F4F07C00F5F1F4F0932110509F76DE735
:1005B00071E0C7010E949F13C70128960FB6F894F7
:1005C000DEBF0FBECDBFDF91CF911F910F91FF9086
:1005D000EF90DF90CF900895CF93DF93EC01688385
:1005E0001A8219821C821B821E821D820E94A11700
:1005F0006F83788789879A871C861B861E861D864F
:10060000188A1F86DF91CF910895CF92DF92EF92E3
:10061000FF920F931F93CF93DF93EC0188810E9489
:10062000A3188C010E94A1176B017C018F81988512
:10063000A985BA85B701A601481B590B6A0B7B0B2C
:100640008B859C85092E000CAA0BBB0B8417950784
:10065000A607B70760F48D859E85181619063CF429
:10066000ED81FE81309719F009951E861D860130B7
:10067000110591F489819A81892B71F4EB81FC81B8
:10068000309709F00995CF82D886E986FA868D855C
:100690009E8501969E878D8789819A810817190703
:1006A00031F0EF85F889309711F0C80109951A8368
:1006B0000983DF91CF911F910F91FF90EF90DF9011
:1006C000CF900895EF92FF920F931F93CF93DF93F4
:1006D000CDB7DEB72E970FB6F894DEBF0FBECDBFF5
:1006E0007C01162F862F0E943502882309F450C002
:1006F00088E3E80EF11C612FCE0108960E94A20249
:100700006DE771E0CE0101960E949F1300E010E0BA
:100710008C859D850817190750F5B801CE010896FC
:100720000E949F14FC0180818A3219F468E771E00D
:1007300017C0B801CE0108960E949F14FC01808169
:100740008D3219F466E771E00BC0B801CE0108964E
:100750000E949F14FC018081803231F46BE771E0CC
:10076000CE0101960E947D140F5F1F4FD1CF20E074
:1007700030E044E250E0B701CE0101960E94C2147D
:10078000CE0101960E943113CE0108960E943113CA
:100790002E960FB6F894DEBF0FBECDBFDF91CF917E
:1007A0001F910F91FF90EF900895EF92FF920F939A
:1007B0001F93CF93DF93EC0188AD811103C08C812F
:1007C00081116CC088AD8823C1F10E94A1177E0100
:1007D0002DE5E20EF11CF7010081118122813381A8
:1007E000DC01CB01801B910BA20BB30B8E010F59C7
:1007F0001F4F8D329140A105B105C0F088AD811128
:1008000003C0F801108212C0CE01C8960E94840174
:1008100021E08236910509F020E0F80120830E9452
:10082000A117F7016083718382839383F80180812C
:10083000882319F081E08B838A838881811101C02C
:100840001A828981811101C01B828A81882351F01B
:1008500020E030E0A9016CEB72E086E00E9403101A
:100860001A8203C086E00E949E128B81882361F069
:1008700061E082E00E9474181B82DF91CF911F918A
:100880000F91FF90EF90089560E082E0DF91CF91AB
:100890001F910F91FF90EF900C947418FE01E45A91
:1008A000FF4F808181508083CE0104960E94840195
:1008B000BC01CE010E94620385CF0F931F93CF939B
:1008C000C09160010C2F10E098012F5F3F4F223341
:1008D000310560F4082E000C990B0E94F719F801FD
:1008E000EC5FFE4F8483CF5FC0936001CF911F9177
:1008F0000F910895CF93DF93CDB7DEB727970FB64B
:10090000F894DEBF0FBECDBF8130910541F46091F8
:10091000C5017091C6016115710511F56DC0823078
:100920009105A1F46DE771E081EC91E00E9418144B
:100930006DE771E088EC91E00E94181410920801B4
:1009400010923C01109260018FE554C0039709F0AA
:1009500053C06DE771E08AEB91E00E9418144CC01F
:100960008091B901882361F16150710981EC91E0B6
:100970000E949F14FC018081803211F52091C501F5
:100980003091C6012250310940E050E061EC71E045
:10099000CE0101960E94F114BE016F5F7F4F81EC82
:1009A00091E00E940C14CE0101960E9431138DE259
:1009B0000E945D048DE20E945D041092B9011CC08A
:1009C0002091C5013091C6012150310940E050E02D
:1009D00061EC71E0CE0101960E94F114BE016F5FDF
:1009E0007F4F81EC91E00E940C14CE0101960E9491
:1009F00031138DE20E945D0427960FB6F894DEBF96
:100A00000FBECDBFDF91CF910895CF92DF92EF92CD
:100A1000FF921F93CF93DF93CDB7DEB727970FB623
:100A2000F894DEBF0FBECDBF8091AF0181110DC024
:100A30000E94A1176093AB017093AC018093AD014C
:100A40009093AE0181E08093AF0184E00E94A318EF
:100A5000182F0E94A117C090AB01D090AC01E0907C
:100A6000AD01F090AE019B01AC012C193D094E097E
:100A70005F0969017A018091AA01181759F1109252
:100A8000B80111110FC036E9C316D104E104F10415
:100A900018F46EE771E002C060E871E088EC91E064
:100AA0000E947D148091CC019091CD01089730F087
:100AB0006DE771E088EC91E00E9418140E94A11784
:100AC0006093AB017093AC018093AD019093AE0144
:100AD0001093AA01111161C08091CC019091CD01B8
:100AE000892B19F1D701C601835C9140A109B10995
:100AF00087359240A105B105C0F468EC71E0CE01E4
:100B000001960E946F02BE016F5F7F4F81EC91E002
:100B10000E947614CE0101960E9431136DE771E0B8
:100B200088EC91E00E9418142AC06091C501709170
:100B3000C6016115710589F16150710981EC91E07F
:100B40000E949F14FC018081803239F18091B801AC
:100B5000811123C0FBE1CF1AF4E0DF0AE108F108BC
:100B600025E9C216D104E104F104B8F46CE771E0A0
:100B700081EC91E00E947D1481E08093B901609145
:100B8000C5017091C6016150710981EC91E00E942C
:100B90009F14FC0180810E945D0427960FB6F89493
:100BA000DEBF0FBECDBFDF91CF911F91FF90EF90C1
:100BB000DF90CF9008951F93CF93DF93CDB7DEB72B
:100BC00027970FB6F894DEBF0FBECDBF88E58093A0
:100BD000020261EC71E0CE0101960E94021468EC01
:100BE00071E0CE0101960E948C1441E0BC0182E0CC
:100BF00092E00E94CA01CE0101960E94311340E0AA
:100C00006AEB71E082E092E00E94CA0110911B023F
:100C100040E06EE086E092E00E94360C6AE386E0F7
:100C200092E00E94970F612F86E092E00E94970F5A
:100C300080910501811102C083E301C081E310911D
:100C4000040191E01927180F41E06EE086E092E080
:100C50000E94360C6AE386E092E00E94970F612FB3
:100C600086E092E00E94970F27960FB6F894DEBFB9
:100C70000FBECDBFDF91CF911F910895EF92FF92EC
:100C80000F931F93CF93DF93CDB7DEB727970FB6A0
:100C9000F894DEBF0FBECDBF80E00E94F2170E9425
:100CA0000F1360E08091F1010E94381800EE11E00E
:100CB00060E0D8018C910E94381880E891E0F8013A
:100CC000948383838AE794E0968385838CE2E82E7D
:100CD000FF24F394F486E3860FEC11E060E0D80182
:100CE0008C910E94381884EA91E0F80196838583FC
:100CF000F486E38661E082E00E94381861E086E0D5
:100D00000E943818E4E0F1E0148210AE40E855E2A9
:100D100060E070E08CE192E00E94AB0A40E855E2AE
:100D200060E070E08EE792E00E94640E80E790E061
:100D30000E9455178C0169E170E080E090E00E940C
:100D400017136F5BD8016C9311961C9211978EE765
:100D500092E013969C938E93129784E3F801349655
:100D6000DF01982F1D929A95E9F7F496DF011D9205
:100D70008A95E9F7F49610821182128213821093F9
:100D800039020093380220E040E162E086E092E020
:100D90000E946C0C86E092E00E942F0C6CE771E0E0
:100DA000CE0101960E949F1341E0BE016F5F7F4F0D
:100DB00082E092E00E94CA01CE0101960E943113A6
:100DC0006CE771E0CE0101960E949F1340E0BE01E6
:100DD0006F5F7F4F82E092E00E94CA01CE010196D0
:100DE0000E94311327960FB6F894DEBF0FBECDBF19
:100DF000DF91CF911F910F91FF90EF900895EF92A7
:100E0000FF920F931F93CF93DF93CDB7DEB7279752
:100E10000FB6F894DEBF0FBECDBF0091380210911F
:100E20003902D80112968D919C911397DC01ED91B6
:100E3000FC910480F581E02D0995892BA9F07801BA
:100E4000B4E0EB0EF11C24E330E0A70160E0F80110
:100E5000828193810E94CE0FB701D80112968D91A5
:100E60009C9113970E94950F81EF91E00E940503DA
:100E700080EE91E00E9405038FEC91E00E94050353
:100E80000E9405058091C5019091C6010F9798F0C9
:100E900041E050E061EC71E0CE0101960E94361510
:100EA000BE016F5F7F4F81EC91E00E940C14CE0178
:100EB00001960E9431138091BE019091BF010F975E
:100EC00098F041E050E06AEB71E0CE0101960E949B
:100ED0003615BE016F5F7F4F8AEB91E00E940C14C4
:100EE000CE0101960E9431130E94DB0584E091E05F
:100EF0000E94D50327960FB6F894DEBF0FBECDBF74
:100F0000DF91CF911F910F91FF90EF900895CF92B5
:100F1000EF920F93CF93DF93CDB7DEB76C970FB6F9
:100F2000F894DEBF0FBECDBF20E04AE06BE0CE01FB
:100F300001960E94800AEBE1F2E081E480838B81DC
:100F40009C81948383838D819E81AF81B8858583C5
:100F50009683A783B08789859A85AB85BC85818771
:100F60009287A387B48786E891E0928381838D85F9
:100F700085878E8586878F859889908B87878989D5
:100F8000818B8A899B89938B828B8C899D89958B98
:100F9000848B8E899F89978B868B888D998D918F75
:100FA000808F8A8D9B8D938F828F9C8DA7E3B2E07B
:100FB0008C9190FB80F99695917090FB81F98C93C0
:100FC000168E158ECE0101960E94710B8CE0C82EF4
:100FD00099E0E92E08E027E045E063E0CE010196C4
:100FE0000E94200D82E092E023E5FC01208322E5AF
:100FF00021832CE030E0338322832B813C813783B3
:10100000268326E931E0358324832D8120872E81B4
:1010100021872F81228728E0FE013896ADE0B2E0DB
:1010200001900D922A95E1F72889FC01238B2989EB
:10103000248B2A89258B2B89268B2C89278B2D891C
:10104000208F64E081EF91E00E94EC026DE080EE81
:1010500091E00E94EC0263E18FEC91E00E94EC02CF
:101060006DE771E088EC91E00E949F136DE771E0FD
:1010700081EC91E00E949F136DE771E08AEB91E0B3
:101080000E949F136C960FB6F894DEBF0FBECDBFC3
:10109000DF91CF910F91EF90CF9008958AEB91E07F
:1010A0000E94311381EC91E00E94311388EC91E0B1
:1010B0000E9431138CE192E00C94710B20917C0220
:1010C00030917D0228173907B9F490913A02809146
:1010D0003B02981789F0E0913A02F0E0E45CFD4FA2
:1010E000808120913A0230E02F5F3F4F2F733327EA
:1010F00020933A0290E008958FEF9FEF089520919A
:101100007C0230917D022817390781F490913A02D0
:1011100080913B02981751F0E0913A02F0E0E45CD4
:10112000FD4F8081082E000C990B08958FEF9FEFE3
:10113000089520917C0230917D022817390771F4BF
:1011400080913B0220913A0290E0805C9F4F821B8D
:10115000910960E470E00E94CC18089580E090E06E
:10116000089520917C0230917D022817390739F4C7
:101170008FB7F89410923B0210923A028FBF0895F5
:10118000DC015196ED91FC915297908150968C9193
:10119000809589238083089520E001972FEF8F3F6A
:1011A0009207D9F7089520917C0230917D0228178B
:1011B000390789F0FC01238D2E7F238F2FB7F894F8
:1011C00010923B0210923A0290937D0280937C022F
:1011D0002FBF81E0089580E00895EF92FF920F9372
:1011E0001F93CF93DF93EC018B8DEE85FF859D855B
:1011F00081FF04C08081982329F446C08081982310
:1012000009F042C08B899C890E94CC0888E0E82EB6
:10121000F12C10E001E08D899E890E94CC08EE85BA
:10122000FF8590818D85892311F0102B03C0802FBD
:1012300080951823000F81E0E81AF10861F78F8983
:10124000988D0E94CC088B8D81FD109580913B027A
:1012500020913A0290E001968F73992730E082172F
:10126000930779F0E0913B02F0E0E45CFD4F1083DE
:1012700080913B0290E001968F73992780933B0207
:1012800003C08B8D81608B8FDF91CF911F910F9168
:10129000FF90EF900895611102C00C94C008DC012A
:1012A0005196ED91FC915297208150968C91822B12
:1012B00080830895DF92EF92FF920F931F93CF9355
:1012C000DF93EC01298D3A8D2115310529F481E058
:1012D00090E09B838A834BC0162FDFB6F8946B8D0A
:1012E000669561700E944B09898D9A8D05960E94C2
:1012F000CC088B8D98E0E92EF12C01E081FF18C01D
:10130000812F802321F0CE010E94C00804C061E03B
:10131000CE010E944B09898D9A8D0E94CC08000F46
:1013200081E0E81AF10861F7CE010E94C00818C0F8
:10133000812F802329F061E0CE010E944B0903C078
:10134000CE010E94C008898D9A8D0E94CC08000FA2
:1013500081E0E81AF10861F761E0CE010E944B09D3
:10136000DFBE898D9A8D0E94CC0821E030E0C90152
:10137000DF91CF911F910F91FF90EF90DF90089533
:101380001F920F920FB60F9211242F933F934F93FA
:101390005F936F937F938F939F93AF93BF93EF93DD
:1013A000FF9380917C0290917D02009711F00E9442
:1013B000ED08FF91EF91BF91AF919F918F917F9138
:1013C0006F915F914F913F912F910F900FBE0F90B2
:1013D0001F9018951F920F920FB60F9211242F9302
:1013E0003F934F935F936F937F938F939F93AF93AD
:1013F000BF93EF93FF930E94C009FF91EF91BF91BC
:10140000AF919F918F917F916F915F914F913F919C
:101410002F910F900FBE0F901F9018951F920F9253
:101420000FB60F9211242F933F934F935F936F93B7
:101430007F938F939F93AF93BF93EF93FF930E94FC
:10144000C009FF91EF91BF91AF919F918F917F91D3
:101450006F915F914F913F912F910F900FBE0F9021
:101460001F9018951F93CF93DF93EC01162F61E027
:10147000812F0E94381861E0812F0E947418812FFB
:1014800090E0FC01E05AFD4FE491E88BFC01EC5840
:10149000FD4FE491F0E0EE0FFF1FEE56FD4F8591FA
:1014A00094919A8B898BDF91CF911F9108951F930F
:1014B000CF93DF93EC01162F60E0812F0E94381844
:1014C0008B8D81FD04C061E0812F0E9474181C8700
:1014D000812F90E0FC01E05AFD4FE491ED87FC0183
:1014E000EC58FD4FE491F0E0EE0FFF1FE857FD4F81
:1014F000859194919F878E87DF91CF911F91089559
:101500001F93CF93DF93EC01162F1B821A8288EE74
:1015100093E0A0E0B0E08C839D83AE83BF8386E838
:1015200091E0998388831C8A1B8A1E8A1D8A188EE3
:101530001F8A1A8E198E8B8D8E7F20FB81F98B8FDF
:10154000642FCE010E94320A612FCE01DF91CF912C
:101550001F910C94570ACF92DF92EF92FF92CF9394
:10156000DF93EC011A8E198E188E1F8A1E8A1D8A2F
:101570008FEA91E020E030E0FC01C590D590E59045
:10158000F490C416D506E606F70619F54CE0429F1E
:10159000C001439F900D1124FC01ED54FE4F259195
:1015A00034913C8B2B8BFC01EB54FE4F25913491F5
:1015B0003E8B2D8BFC01E954FE4F25913491388FE1
:1015C0002F8BFC01E754FE4F859194919A8F898F60
:1015D00009C02F5F3F4F0C962D30310509F0CCCF5D
:1015E0001C8A1B8A8F89988D892B09F444C08C85AD
:1015F0008631E8F590916800883050F021E08E3017
:1016000008F420E081E001C0880F2A95EAF701C0C4
:1016100084E0892B809368009C85983038F09E3058
:1016200040F0963148F0E0E0F0E008C0EDE6F0E090
:1016300005C0EBE6F0E002C0ECE6F0E04081983057
:1016400030F481E001C0880F9A95EAF70EC0292F87
:1016500030E09E3018F42850310902C02E50310974
:1016600081E001C0880F2A95EAF7842B8083898D59
:101670009A8D0E94CC08CE01DF91CF91FF90EF9020
:10168000DF90CF900C94D308FC012485263140F5DF
:10169000283028F02E3030F4EBE6F0E005C0EDE61F
:1016A000F0E002C0ECE6F0E03081283038F481E070
:1016B00090E001C0880F2A95EAF70FC0422F50E052
:1016C0002E3018F44850510902C04E50510981E0A3
:1016D00090E001C0880F4A95EAF7809583238083C4
:1016E000089526E831E0FC01318320830C94440BFB
:1016F000CF93DF93EC0160E08E810E94741881E04B
:1017000090E00E94AD1761E08E810E94741881E024
:1017100090E00E94AD1760E08E810E94741884E60C
:1017200090E0DF91CF910C94AD17AF92BF92CF9222
:10173000DF92EF92FF920F931F93CF93DF935C01A1
:101740007C0187E0E80EF11CC0E0D0E0062F10E03D
:10175000670161E0F70181917F010E943818B801AB
:101760000C2E02C0759567950A94E2F76170F60138
:1017700080810E9474182196C430D10549F7C501B3
:10178000DF91CF911F910F91FF90EF90DF90CF905D
:10179000BF90AF900C94780BAF92BF92CF92DF9234
:1017A000EF92FF920F931F93CF93DF935C017C0125
:1017B00087E0E80EF11CC0E0D0E0062F10E06701E2
:1017C00061E0F70181917F010E943818B8010C2E69
:1017D00002C0759567950A94E2F76170F601808101
:1017E0000E9474182196C830D10549F7C501DF91D0
:1017F000CF911F910F91FF90EF90DF90CF90BF900E
:10180000AF900C94780B1F93CF93DF93EC01162FBE
:10181000642F8C810E9474188D818F3F19F060E0D5
:101820000E9474188F85612F84FF06C0CE01DF915E
:10183000CF911F910C94CC0B70E084E07595679567
:101840008A95E1F7CE010E94950B612FCE01DF91C1
:10185000CF911F910C94950B40E00C94030C61E028
:101860000E942C0C80ED97E00C94AD17CF93DF9382
:10187000CDB7DEB728970FB6F894DEBF0FBECDBF49
:101880009C0188E0EEE6F1E0DE01119601900D92F8
:101890008A95E1F7F9018389481710F04FEF480F57
:1018A000FE013196E40FF11DE40FF11D9081690FE7
:1018B0006068C90128960FB6F894DEBF0FBECDBF91
:1018C000DF91CF910C942C0CFC016089262F2460B1
:1018D000208B6C600C942C0CCF93DF93EC01423086
:1018E00018F08F8588608F874B8B1C8A222329F004
:1018F000413019F48F8584608F8780E593EC0E94D6
:10190000AD1760E08C810E94741860E08E810E94A7
:1019100074188D818F3F19F060E00E9474186F85F4
:1019200064FD1DC063E0CE010E94950B84E991E146
:101930000E94AD1763E0CE010E94950B84E991E10E
:101940000E94AD1763E0CE010E94950B86E990E0FE
:101950000E94AD1762E0CE010E94950B16C0606236
:10196000CE010E942C0C84E991E10E94AD176F8595
:101970006062CE010E942C0C86E990E00E94AD17B7
:101980006F856062CE010E942C0C6F856062CE0173
:101990000E942C0C84E0888BCE010E94640CCE0146
:1019A0000E942F0C82E0898B66E0CE01DF91CF91FF
:1019B0000C942C0C6F927F928F92AF92CF92EF92F9
:1019C0000F931F93CF93DF93CDB7DEB73C01162F54
:1019D000842F5D854E853F859889F3018483258317
:1019E0000683E782C086A18682865387448735872F
:1019F000968761E00E943818F30185818F3F19F0C6
:101A000061E00E94381861E0F30186810E94381875
:101A1000112319F0F301178603C080E1F3018787D2
:101A200020E041E060E1C301DF91CF911F910F9170
:101A3000EF90CF90AF908F907F906F900C946C0C44
:101A40008F92AF92CF92EF920F93DC0113961C927C
:101A50001E921297E6E9F1E0ED93FC931F921F921C
:101A60001F921F928C2CAE2CC02EE22E042F2FEF33
:101A7000462F61E00E94DA0C0F900F900F900F90AC
:101A80000F91EF90CF90AF908F90089541E00E941A
:101A9000030C81E090E00895FC0124853585F9016F
:101AA000E05CFF4F80819181329620813181821BE1
:101AB000930B8F7399270895DC011C96ED91FC918F
:101AC0001D97DF01A05CBF4F2D913C91119712969D
:101AD0008D919C9111972817390739F08D919C9120
:101AE000E80FF91F808190E008958FEF9FEF089530
:101AF000FC01A485B585FD01E05CFF4F20813181AB
:101B00003296808191812817390779F080819181FF
:101B1000A80FB91F8C91208131812F5F3F4F2F7308
:101B200033273183208390E008958FEF9FEF08954E
:101B3000FC0181A1882329F0A489B5898C9186FFB5
:101B4000FBCF11A208950F931F93CF93DF93FC0156
:101B5000A685B7858D01005C1F4FE80188819981BA
:101B600001968F739927AD014E5B5F4FEA01288183
:101B7000398128173907D1F3E80128813981A20F6B
:101B8000B31F6C93A685B785A05CBF4F11969C933D
:101B90008E93A689B7892C9181E090E0078C02C0D2
:101BA000880F991F0A94E2F7822B8C9381E081A31E
:101BB0000488F589E02D80818064808381E090E055
:101BC000DF91CF911F910F91089508951F920F9269
:101BD0000FB60F9211242F934F935F938F939F9380
:101BE000EF93FF938091C00082FD1CC02091C6003E
:101BF000809124039091250340912603509127035F
:101C000001968F7399274817590771F0E0912403C3
:101C1000F0912503EC51FD4F208390932503809391
:101C2000240302C08091C600FF91EF919F918F9194
:101C30005F914F912F910F900FBE0F901F901895AD
:101C40008EE792E00E944C0D892B11F00C94E50D6B
:101C500008951F920F920FB60F9211242F933F9366
:101C60008F939F93EF93FF932091E0023091E102D5
:101C70008091E2029091E3022817390731F48091B4
:101C8000C1008F7D8093C10014C0E091E202F09109
:101C9000E302E056FD4F20818091E2029091E30241
:101CA00001968F7399279093E3028093E202209329
:101CB000C600FF91EF919F918F913F912F910F90CF
:101CC0000FBE0F901F901895CF92DF92EF92FF9268
:101CD000CF93DF93EC016A017B014115514E610501
:101CE000710509F1EC89FD8981E090E008A002C04E
:101CF000880F991F0A94E2F7808360E079E08DE312
:101D000090E0A70196010E94E018DA01C90101974D
:101D1000A109B109B695A795979587959C012115BD
:101D200080E13807A8F0EC89FD89108260E874E84A
:101D30008EE190E0A70196010E94E018DA01C90146
:101D40000197A109B109B695A795979587959C012B
:101D5000E889F9893083EA89FB89208319A2EE8911
:101D6000FF89408181E090E09C010C8C02C0220F31
:101D7000331F0A94E2F7242B2083EE89FF894081E8
:101D80009C010D8C02C0220F331F0A94E2F7242B12
:101D90002083EE89FF8940819C010E8C02C0220FB6
:101DA000331F0A94E2F7242B2083EE89FF892081D8
:101DB0000F8C02C0880F991F0A94E2F78095822346
:101DC0008083DF91CF91FF90EF90DF90CF900895C7
:101DD000EEE7F2E01382128288EE93E0A0E0B0E03A
:101DE00084839583A683B7838EE991E09183808372
:101DF00084EE92E09587848780EA92E097878687D1
:101E000085EC90E0918B808B84EC90E0938B828BBF
:101E100080EC90E0958B848B81EC90E0978B868BA7
:101E200082EC90E0918F808F86EC90E0938F828F90
:101E300084E0848F83E0858F87E0868F85E0878FBD
:101E400081E080A30895CF92DF92EF92FF920F93EB
:101E50001F93CF93DF936C01EB017B01E40EF51E22
:101E600000E010E0CE15DF0561F06991D601ED913B
:101E7000FC910190F081E02DC6010995080F191F12
:101E8000F1CFC801DF91CF911F910F91FF90EF909B
:101E9000DF90CF9008956115710579F0FB010190F5
:101EA0000020E9F73197AF01461B570BDC01ED919C
:101EB000FC910280F381E02D099480E090E0089588
:101EC000AF92BF92CF92DF92EF92FF920F931F9348
:101ED000CF93DF937C016B01C0E0D0E000E010E025
:101EE000D60114968D919C911597C817D90788F43F
:101EF000D701ED91FC91A080B180BE01C6010E9486
:101F0000B114682FC701F5010995080F191F219613
:101F1000E7CFC801DF91CF911F910F91FF90EF9014
:101F2000DF90CF90BF90AF9008950C944B0FDC01E1
:101F3000ED91FC910190F081E02D09940F931F9396
:101F4000CF93DF93EC010E94A117688779878A8776
:101F50009B87E881F9810680F781E02DCE01099504
:101F600097FF17C00E94A117088519852A853B8510
:101F7000DC01CB01801B910BA20BB30B0C811D81EB
:101F80002E813F8180179107A207B30710F38FEFCF
:101F90009FEFDF91CF911F910F910895AF92BF9264
:101FA000CF92DF92EF92FF920F931F93CF93DF9325
:101FB00021153105C9F089015C016A01C0E0D0E05A
:101FC000E62E660FFF08C5010E949E0F97FD0FC009
:101FD0008E159F0561F0F60181936F0121960C1714
:101FE0001D0789F7C80104C080E090E001C0CE0160
:101FF000DF91CF911F910F91FF90EF90DF90CF90E5
:10200000BF90AF9008954F925F926F927F928F92A0
:102010009F92AF92BF92CF92DF92EF92FF920F9377
:102020001F93CF93DF9300D000D01F92CDB7DEB7C0
:102030008B0129013A0190916601891721F09F3F98
:1020400009F046C205C0EBE4F2E024912D8384C080
:1020500080936601EBE4F2E094919D839F3F09F445
:1020600037C2913009F44DC058F1923009F074C074
:102070001092B0001092B1009091B00092609093D5
:10208000B0009091B10091609093B100282F30E0A2
:10209000F901EC58FD4FE491F0E0EE0FFF1FEE5612
:1020A000FD4F4591549150932A0340932903F90120
:1020B000E05AFD4FE491E093280392E09D8304C22F
:1020C00014BC15BC94B5926094BD95B5916095BD56
:1020D000282F30E0F901EC58FD4FE491F0E0EE0FCD
:1020E000FF1FEE56FD4F4591549150933803409396
:1020F0003703F901E05AFD4FE491E09336031D8266
:10210000E3C110928000109281009091810098604C
:102110009093810090918100916090938100282F8D
:1021200030E0F901EC58FD4FE491F0E0EE0FFF1FB5
:10213000EE56FD4F45915491509331034093300337
:10214000F901E05AFD4FE491E0932F0361E00E9412
:10215000381821E02D8382C02D8127FDB9C161E0AF
:102160000E9438188D818D7F09F078C04801A12C1C
:10217000B12C60E072E18AE790E0A50194010E9431
:10218000021929833A834B835C8369017A0181E0D8
:10219000C81AD108E108F1089FEFC916D104E1047B
:1021A000F10409F008F44EC060E472E48FE090E0BE
:1021B000A50194010E94021969017A0181E0C81AFF
:1021C000D108E108F1089D81923009F52FEFC21680
:1021D000D104E104F10409F008F43DC160E970EDB7
:1021E00083E090E0A50194010E94021969017A013F
:1021F00081E0C81AD108E108F1089FEFC916D1049F
:10220000E104F10411F008F0B3C083E024C02FEF23
:10221000C216D104E104F104B9F0B0F068E478EE3C
:1022200081E090E0A50194010E94021969017A0100
:1022300081E0C81AD108E108F1089D81992309F4C9
:102240000CC1D5C081E001C082E09D81911103C025
:1022500085BD40C085E08093B1003CC04801A12C01
:10226000B12C60E072E18AE790E0A50194010E9440
:10227000021969017A0181E0C81AD108E108F10860
:10228000C114D10491E0E906F10488F068E478EE25
:1022900081E090E0A50194010E94021969017A0190
:1022A00081E0C81AD108E108F10883E001C081E0AB
:1022B0009D81913079F490918100987F892B809352
:1022C0008100411451046104710449F42FEF3FEF80
:1022D000A9012CC0411451046104710471F0D801AA
:1022E000AA0FBB1FA30192010E94211928EE33E01F
:1022F00040E050E00E94E01803C02FEF3FEFA9013B
:102300008D81813099F0823019F18111E1C0C7BC13
:102310002093390330933A0340933B0350933C039B
:1023200080916E00826080936E00D2C0D09289004E
:10233000C0928800209332033093330340933403D8
:102340005093350380916F00826080936F00C0C00E
:10235000C092B30020932B0330932C0340932D03A2
:1023600050932E0380917000826080937000B0C003
:1023700068E478EE81E090E0A50194010E940219E2
:1023800069017A0191E0C91AD108E108F1082FEF3B
:10239000C216D104E104F10441F138F164E274EFB2
:1023A00080E090E0A50194010E94021969017A0180
:1023B00081E0C81AD108E108F1089FEFC916D104DD
:1023C000E104F10409F008F445CF62E17AE780E026
:1023D00090E0A50194010E94021969017A0181E04F
:1023E000C81AD108E108F10819C084E034CF2FEFF2
:1023F000C216D104E104F10409F008F463C062E1FB
:102400007AE780E090E0A50194010E940219690139
:102410007A0191E0C91AD108E108F1088FEFC816D6
:10242000D104E104F104A9F0A0F089819A81AB8183
:10243000BC812AE0B595A795979587952A95D1F700
:102440006C017D0121E0C21AD108E108F10887E0A2
:1024500002CF86E000CF82E0FECE8FEFC816D10417
:10246000E104F10469F160F162E17AE780E090E073
:10247000A50194010E94021969017A0191E0C91A2B
:10248000D108E108F1082FEFC216D104E104F104EC
:10249000A9F0A0F089819A81AB81BC813AE0B59521
:1024A000A795979587953A95D1F76C017D0121E025
:1024B000C21AD108E108F10885E0CACE84E0C8CE8E
:1024C00083E0C6CE84E0C1CE61E00E9438184ECED3
:1024D0000F900F900F900F900F90DF91CF911F9161
:1024E0000F91FF90EF90DF90CF90BF90AF909F90B3
:1024F0008F907F906F905F904F900895813039F06A
:1025000018F0823051F0089510926E000895809175
:102510006F008D7F80936F000895809170008D7F94
:102520008093700081E08093B0008091B100887F3B
:1025300084608093B1001092B3000895CF93C82FA8
:1025400080916601C81307C0EBE4F2E084919FEF2D
:102550009093660101C08FEF0E947E1260E08C2F85
:10256000CF910C9474181F920F920FB60F921124F2
:102570002F933F934F935F936F937F938F939F938B
:10258000AF93BF93EF93FF9380912B0390912C0314
:10259000A0912D03B0912E03892B8A2B8B2B51F107
:1025A00090912803E0912903F0912A0380818927E3
:1025B000808380912B0390912C03A0912D03B091E7
:1025C0002E03181619061A061B06C4F480912B0355
:1025D00090912C03A0912D03B0912E030197A10996
:1025E000B10980932B0390932C03A0932D03B093F8
:1025F0002E0304C0809166010E949E12FF91EF910C
:10260000BF91AF919F918F917F916F915F914F910A
:102610003F912F910F900FBE0F901F90189500972C
:1026200029F0BC0180E090E00C94EE190895CF925F
:10263000DF92EF92FF92611571058105910549F0D6
:102640006B017C010E94A019A70196010E9402194A
:1026500003C060E070E0CB01FF90EF90DF90CF907F
:102660000895FC01808191810C94DA15CF93DF935A
:10267000EC0188819981009711F00E94DA15198286
:1026800018821D821C821B821A82DF91CF910895CD
:102690000F931F93CF93DF93EC018B016F5F7F4FFD
:1026A000888199810E946316009731F0998388830D
:1026B0001B830A8381E001C080E0DF91CF911F91ED
:1026C0000F910895CF93DF93EC0188819981892B35
:1026D00029F08A819B818617970760F4CE010E94BA
:1026E0004813882341F08C819D81892B19F4E8815E
:1026F000F981108281E0DF91CF910895EF92FF92EE
:102700000F931F93CF93DF93EC017B018A01BA01F2
:102710000E946213811104C0CE010E94361307C0CB
:102720001D830C83B701888199810E94181ACE01FC
:10273000DF91CF911F910F91FF90EF900895FC01D1
:102740001182108213821282158214821682611500
:10275000710551F0FB0101900020E9F73197AF01BD
:10276000461B570B0C947E1308950F931F93CF9322
:10277000DF938C01EB01FC0180819181009799F03E
:10278000428153812C813D814217530750F068816B
:1027900079810E94181A8C819D81F8019583848328
:1027A00013C00E94DA1588819981F8019183808392
:1027B0008A819B81938382838C819D81958384838D
:1027C000198218821B821A821D821C82DF91CF918E
:1027D0001F910F910895CF93DF93EC01FB018617B2
:1027E000970761F0608171816115710529F044815D
:1027F00055810E947E1302C00E943613CE01DF91E4
:10280000CF910895FC0111821082138212821582E9
:10281000148216820C94EB13CF93DF93EC0186178E
:10282000970711F00E94B513CE01DF91CF91089563
:10283000CF93DF93EC016115710559F0FB01019015
:102840000020E9F73197AF01461B570B0E947E131A
:1028500002C00E943613CE01DF91CF910895CF932D
:10286000DF9300D0CDB7DEB7FC0111821082138256
:10287000128215821482168269831A82BE016F5FEA
:102880007F4F0E9418140F900F90DF91CF91089501
:10289000EF92FF920F931F93CF93DF936115710512
:1028A00011F480E01CC041155105C1F07B01EC0121
:1028B0008C819D818A01080F191FB801CE010E94E9
:1028C0006213882371F3288139818C819D81B7013E
:1028D000820F931F0E94181A1D830C8381E0DF91E1
:1028E000CF911F910F91FF90EF900895FB014481CC
:1028F0005581608171810C9448146115710551F006
:10290000FB0101900020E9F73197AF01461B570BFF
:102910000C94481480E00895CF93DF93EC01FB0101
:1029200044815581608171810E944814811103C0E6
:10293000CE010E943613CE01DF91CF910895FC01A4
:10294000248135816217730720F48081918100977B
:1029500029F410923D038DE393E00895860F971FAD
:102960000895FC01248135816217730748F4808142
:102970009181009729F0FC01E60FF71F80810895EF
:1029800080E008950F931F93CF93DF934115510576
:1029900019F16115710501F1DC011496ED91FC91BD
:1029A00015972E173F0718F0FB01108215C0E21B88
:1029B000F30BEA012197EC17FD0708F4EF018B01F7
:1029C000FC0160817181620F731FAE01C8010E941A
:1029D0001F1AC00FD11F1882DF91CF911F910F9145
:1029E0000895BF92CF92DF92EF92FF920F931F93C1
:1029F000CF93DF937C016B018A01E901241735072E
:102A000020F4812F8901C42FD82F6DE771E0C70111
:102A10000E949F13D60114968D919C911597801753
:102A20009107C8F08C179D0708F4EC01D601ED91D1
:102A3000FC911197EC0FFD1FB08010826D917C917D
:102A4000600F711FC7010E941814D601ED91FC910F
:102A5000EC0FFD1FB082C701DF91CF911F910F9145
:102A6000FF90EF90DF90CF90BF900895CF93DF93CA
:102A7000EC01FB01248135810E94F114CE01DF912C
:102A8000CF9108950F931F93CF93DF9382309105D9
:102A900010F482E090E0E0914903F0914A0320E0D5
:102AA00030E0A0E0B0E0309719F14081518102811F
:102AB000138148175907C8F08417950769F41097D0
:102AC00031F012960C93129713961C9327C0009323
:102AD000490310934A0322C02115310519F042170A
:102AE000530718F49A01BD01EF01DF01F801DBCFB4
:102AF00021153105F9F0281B390B2430310580F4FC
:102B00008A819B816115710521F0FB01938382838A
:102B100004C090934A0380934903FE01329644C057
:102B2000FE01E20FF31F8193919322503109398303
:102B300028833AC02091470330914803232B41F466
:102B40002091690130916A01309348032093470333
:102B500020916701309168012115310541F42DB7AD
:102B60003EB740916B0150916C01241B350BE091F5
:102B70004703F0914803E217F307A0F42E1B3F0B25
:102B80002817390778F0AC014E5F5F4F24173507DF
:102B900048F04E0F5F1F50934803409347038193C3
:102BA000919302C0E0E0F0E0CF01DF91CF911F915F
:102BB0000F910895CF93DF93009709F481C0FC0132
:102BC000329713821282A0914903B0914A03109761
:102BD00081F420813181820F931F2091470330912E
:102BE00048032817390751F5F0934803E09347034A
:102BF00067C0ED0120E030E0CE17DF0740F44A81E6
:102C00005B819E0141155105F1F0EA01F5CFD383B7
:102C1000C28340815181840F951FC817D90759F489
:102C200088819981840F951F0296918380838A8180
:102C30009B81938382832115310529F4F0934A0304
:102C4000E09349033DC0E901FB83EA83499159912F
:102C5000C40FD51FEC17FD0761F480819181840FAB
:102C6000951F0296E90199838883828193819B83D2
:102C70008A83E0E0F0E012968D919C911397009783
:102C800019F0FD01DC01F7CF8D919C9111979D0109
:102C90002E5F3F4F820F931F2091470330914803CF
:102CA0002817390769F4309729F410924A031092D3
:102CB000490302C013821282B0934803A0934703D2
:102CC000DF91CF9108956F927F928F929F92AF92F2
:102CD000BF92CF92DF92EF92FF920F931F93CF9309
:102CE000DF93009789F4CB01DF91CF911F910F9172
:102CF000FF90EF90DF90CF90BF90AF909F908F901C
:102D00007F906F900C944215FC01E60FF71F9C0119
:102D100022503109E217F30708F4A9C0EC01D901E8
:102D20000D911C91119706171707B0F0053011058A
:102D300008F49BC0C80104978617970708F495C04C
:102D400002501109061B170B019311936D937C938D
:102D5000CF010E94DA1589C05B01A01AB10A4C01AB
:102D6000800E911EA0914903B0914A03612C712CF1
:102D7000E12CF12C109709F446C08D919C9111978C
:102D8000A815B905B1F56C0142E0C40ED11CCA14F6
:102D9000DB0478F14C018A189B08640142E0C40E00
:102DA000D11C1296BC9012971396AC91B5E0CB163D
:102DB000D10440F0B282A38391828082D9016D93C5
:102DC0007C9309C00E5F1F4F800F911FF901918303
:102DD0008083EB2DFA2FE114F10431F0D701139623
:102DE000FC93EE93129741C0F0934A03E09349039A
:102DF0003CC06816790608F43C017D0112960D90DE
:102E0000BC91A02DB7CF80914703909148038816BD
:102E10009906E1F466167706C8F4809167019091EF
:102E20006801009741F48DB79EB740916B015091B6
:102E30006C01841B950BE817F907C8F4F09348035D
:102E4000E0934703F901718360830FC0CB010E94B7
:102E500042157C01009759F0A801BE010E940F1A8B
:102E6000CE010E94DA15C70104C0CE0102C080E085
:102E700090E0DF91CF911F910F91FF90EF90DF9045
:102E8000CF90BF90AF909F908F907F906F9008955C
:102E90000E94B7170E943E06C0E2DEE00E94FF06D5
:102EA0002097E1F30E94200EF9CF0C9442151F9257
:102EB0000F920FB60F9211242F933F938F939F93EE
:102EC000AF93BF9380913F0390914003A091410342
:102ED000B091420330913E0323E0230F2D3720F4BD
:102EE0000196A11DB11D05C026E8230F0296A11D64
:102EF000B11D20933E0380933F0390934003A09322
:102F00004103B09342038091430390914403A09105
:102F10004503B09146030196A11DB11D8093430363
:102F200090934403A0934503B0934603BF91AF91A0
:102F30009F918F913F912F910F900FBE0F901F90F7
:102F400018952FB7F89460913F03709140038091DA
:102F50004103909142032FBF0895019739F0880FE4
:102F6000991F880F991F02970197F1F70895789498
:102F700084B5826084BD84B5816084BD85B582607E
:102F800085BD85B5816085BDEEE6F0E0808181601C
:102F90008083E1E8F0E0108280818260808380811C
:102FA00081608083E0E8F0E0808181608083E1EBF4
:102FB000F0E0808184608083E0EBF0E080818160DC
:102FC0008083EAE7F0E08081846080838081826092
:102FD000808380818160808380818068808310927B
:102FE000C10008958E3008F08E5020916D0190E45C
:102FF000299F900111248770822B80937C008091FF
:103000007A00806480937A0080917A0086FDFCCFFC
:10301000809178002091790090E0922B0895833080
:1030200081F028F4813099F08230A1F00895863043
:10303000A9F08730B9F08430D1F4809180008F7D81
:1030400003C0809180008F7780938000089584B5BD
:103050008F7702C084B58F7D84BD08958091B000C4
:103060008F7703C08091B0008F7D8093B00008956A
:10307000CF93DF9390E0FC01E05AFD4F2491FC01D7
:10308000EC58FD4F8491882361F190E0880F991FDF
:10309000FC01E456FD4FC591D491FC01EE56FD4F65
:1030A000A591B491611109C09FB7F89488812095CA
:1030B00082238883EC912E230BC0623061F49FB78A
:1030C000F8948881322F309583238883EC912E2BBE
:1030D0002C939FBF06C08FB7F894E8812E2B2883CE
:1030E0008FBFDF91CF9108951F93CF93DF93282F48
:1030F00030E0F901E45BFD4F8491F901E05AFD4FA6
:10310000D491F901EC58FD4FC491CC23C1F0162F96
:1031100081110E940F18EC2FF0E0EE0FFF1FEE560A
:10312000FD4FA591B4919FB7F894111104C08C91F3
:10313000D095D82302C0EC91DE2BDC939FBFDF91AA
:10314000CF911F910895CF93DF93282F30E0F9019D
:10315000E45BFD4F8491F901E05AFD4FD491F901F0
:10316000EC58FD4FC491CC2391F081110E940F18AF
:10317000EC2FF0E0EE0FFF1FE857FD4FA591B49143
:10318000EC91ED2381E090E021F480E002C080E04A
:1031900090E0DF91CF91089597FB072E16F40094ED
:1031A00007D077FD09D00E942C1907FC05D03EF40A
:1031B000909581959F4F0895709561957F4F0895E3
:1031C000A1E21A2EAA1BBB1BFD010DC0AA1FBB1F2B
:1031D000EE1FFF1FA217B307E407F50720F0A21B9D
:1031E000B30BE40BF50B661F771F881F991F1A940A
:1031F00069F760957095809590959B01AC01BD0134
:10320000CF010895052E97FB1EF400940E94191912
:1032100057FD07D00E94E01807FC03D04EF40C9431
:10322000191950954095309521953F4F4F4F5F4F5D
:10323000089590958095709561957F4F8F4F9F4F22
:1032400008950E944619A59F900DB49F900DA49FCC
:10325000800D911D11240895AA1BBB1B51E107C0CD
:10326000AA1FBB1FA617B70710F0A61BB70B881F16
:10327000991F5A95A9F780959095BC01CD010895A5
:10328000EE0FFF1F0590F491E02D0994A29FB0016D
:10329000B39FC001A39F700D811D1124911DB29F8A
:1032A000700D811D1124911D08958F929F92AF92F0
:1032B000BF92CF92DF92EF92FF92CF93DF93EC0118
:1032C000688179818A819B816115710581059105EC
:1032D00021F464E279ED8BE597E02DE133EF41E0F5
:1032E00050E00E94021949015A019B01AC01A7EA72
:1032F000B1E40E9421196B017C01ACEEB4EFA50191
:1033000094010E94311ADC01CB018C0D9D1DAE1D74
:10331000BF1DB7FF03C00197A109B04888839983F7
:10332000AA83BB83BC01CD019F77DF91CF91FF9032
:10333000EF90DF90CF90BF90AF909F908F900895C7
:103340008F929F92AF92BF92CF92DF92EF92FF92B5
:10335000609100017091010180910201909103013F
:10336000611571058105910521F464E279ED8BE524
:1033700097E02DE133EF41E050E00E94021949014E
:103380005A019B01AC01A7EAB1E40E9421196B012B
:103390007C01ACEEB4EFA50194010E94311ADC016E
:1033A000CB018C0D9D1DAE1DBF1DB7FF03C0019746
:1033B000A109B0488093000190930101A0930201FC
:1033C000B0930301BC01CD019F77FF90EF90DF9098
:1033D000CF90BF90AF909F908F9008956093000121
:1033E000709301018093020190930301089591115C
:1033F000089581568A5108F4805285580895FB013A
:10340000DC018D91059080190110D9F3990B089575
:10341000FB01DC0105900D920020E1F70895FB010E
:10342000DC0102C001900D9241505040D8F7089540
:10343000FB01DC0101900D920020E1F70895FB01F2
:10344000DC014150504048F001900D920020C9F736
:1034500001C01D9241505040E0F70895B7FF0C9411
:1034600021190E942119821B930B089511E0C5E5D3
:10347000D1E004C0FE010E9440192196C635D10753
:06348000C9F7F894FFCF2C
:103486000100000001010000000000000000000033
:103496000000000000000000000000000000000026
:1034A6000000000000000000000000000000000016
:1034B6000000000000000000000000000000000006
:1034C60000000000000000000000000000000000F6
:1034D60000000000000000000000000000000000E6
:1034E600000000000000FF00004B03800001000008
:1034F60040001400540062626220002020002A006E
:103506002D00000000005A09230F99085E087F0865
:10351600B10800000000460D230F00000000A30DB7
:0A352600230F4C0D780D5C0D980D7D
:00000001FF
