:100000000C9456010C947E010C947E010C940D0A04
:100010000C94E9090C94BF090C947E010C944D12C8
:100020000C947E010C947E010C947E010C947E0154
:100030000C947E010C947E010C947E010C947E0144
:100040000C9400170C947E010C94E50D0C94280E72
:100050000C947E010C947E010C947E010C947E0124
:100060000C947E010C947E0182017D017801740163
:1000700072016D016901640161015C015801530164
:1000800050014D01490144013F013B013701350158
:1000900031012C01280123011E01190113010D0159
:1000A00007010101FB00F500EF00E900E300DD00BE
:1000B000D600CF00C800C100BA002D2A2D2A2D2D50
:1000C000002A2D2D2D2D2A002A2A2D2D2A2A002DF9
:1000D0002D2A2A2D2D002A2D2A2D2A2D002D2D2DB9
:1000E0002D2A002D2D2D2A2A002D2D2A2A2A002DD9
:1000F0002A2A2A2A002A2A2A2A2A002A2A2A2A2DB1
:10010000002A2A2A2D2D002A2A2D2D2D002A2D2DB8
:100110002D2D002D2D2D2D2D002D2D2A2A002D2A9F
:100120002D2D002D2A2A2D002A2D2D002A2A2A2D98
:10013000002A2A2D002D002A2A2A002A2D2A002DE5
:100140002D2A2D002A2D2D2A002D2D2D002D2A009F
:100150002D2D002A2D2A2A002D2A2D002A2D2D2D65
:10016000002A2A002A2A2A2A002D2D2A002A2A2D8E
:100170002A002A002D2A2A002D2A2D2A002D2A2A7B
:100180002A002A2D004142434445464748494A4BEC
:100190004C4D4E4F505152535455565758595A3052
:1001A0003132333435363738392E2C3F2721000091
:1001B000C201000100110011000C0000E100000A62
:1001C00000250025002100009600001900390039A3
:1001D000003600127A00001F0046004600440080EE
:1001E00070000022004D004D004A00004B00003618
:1001F00000750075007200403800004A009C009CA9
:10020000009900802500007200EC00EC00E900C0BD
:10021000120000E900DA01DA01D70160090000D715
:1002200001B603B603B303B0040000B3036E076E58
:10023000076B07580200006E07DC0EDC0ED80E2C90
:10024000010000DC0EC11DC11DBE1D020000000723
:10025000000201000003040600000000000000008E
:10026000010204081020408001020408102001024D
:10027000040810200404040404040404020202021A
:10028000020203030303030300000000230026000F
:10029000290000000000250028002B0000000000BD
:1002A000240027002A000107E70EB80711241FBE0B
:1002B000CFEFD8E0DEBFCDBF11E0A0E0B1E0E0E6D7
:1002C000F2E302C005900D92A435B107D9F722E000
:1002D000A4E5B1E001C01D92AD3FB207E1F711E026
:1002E000C5E5D1E004C02197FE010E94CC18C335BA
:1002F000D107C9F70E94F3160C9421190C94000041
:10030000A0915401B0915501109769F0ED91FC91C5
:10031000119712968D919C9113979093550180930C
:1003200054010995EDCF0895CF93DF93EC0184E05C
:1003300090E00E94ED14009781F0FC01D183C0830E
:1003400020915401309155013383228390935501BC
:100350008093540180E090E002C081E090E0DF9162
:10036000CF91089587E691E00C94A9128EE691E072
:100370000C94A912BF92CF92DF92EF92FF920F934B
:100380001F93CF93DF93CDB7DEB727970FB6F894BF
:10039000DEBF0FBECDBF7C016B01B42E8C010C5FA4
:1003A0001F4F41E04B2560E0C8010E94350CF7016A
:1003B000BB2011F0608101C06181C8010E94960FCD
:1003C0006AE3C8010E94960FF60124813581F70186
:1003D000828193818217930798F4A901481B590BD6
:1003E000B601CE0101960E948814BE016F5F7F4F57
:1003F000C8010E945F0FCE0101960E94A91215C08C
:10040000B601C8010E945F0FC12CD12CF701828177
:100410009381C816D90648F467E171E0C8010E94CB
:10042000940FFFEFCF1ADF0AF1CF27960FB6F8949B
:10043000DEBF0FBECDBFDF91CF911F910F91FF9017
:10044000EF90DF90CF90BF900895EF92FF920F93BF
:100450001F93CF93DF937C0108E610E0C0E0D0E06B
:10046000C932D10589F0F80165917491C7010E94E4
:10047000E9180E5F1F4F892B29F4FE01EB57FE4F41
:10048000849103C02196ECCF80E0DF91CF911F9142
:100490000F91FF90EF9008950F931F93CF93DF93E9
:1004A000CDB7DEB728970FB6F894DEBF0FBECDBF2D
:1004B0008C01CB0120E030E048E050E0BE016F5FEE
:1004C0007F4F0E945914CE0101960E94250281118E
:1004D00006C068E171E0C8010E94171304C0682FCC
:1004E000C8010E94A713C80128960FB6F894DEBF72
:1004F0000FBECDBFDF91CF911F910F910895CF9285
:10050000DF92EF92FF920F931F93CF93DF93CDB7BC
:10051000DEB728970FB6F894DEBF0FBECDBF7C01C3
:1005200000E010E0C62E660FDD08C6010E94E1184B
:10053000F801EB57FE4FE491F0E0E817F90779F482
:10054000F801EE0FFF1FE859FF4F65917491CE013E
:1005500001960E94F218BE016F5F7F4F07C00F5FC8
:100560001F4F0932110509F768E171E0C7010E94C8
:100570001713C70128960FB6F894DEBF0FBECDBF84
:10058000DF91CF911F910F91FF90EF90DF90CF906F
:100590000895CF92DF92EF92FF920F931F93CF9324
:1005A000DF93CDB7DEB727970FB6F894DEBF0FBE47
:1005B000CDBF8C016B0168E171E00E941713E12C43
:1005C000F12CF60184819581E816F90610F5B70142
:1005D000C6010E944814803299F0B701C6010E94FA
:1005E0004814682FCE0101960E947F02BE016F5F02
:1005F0007F4FC8010E94EE13CE0101960E94A912FE
:1006000067E171E0C8010E94F513FFEFEF1AFF0ADE
:10061000D8CFC80127960FB6F894DEBF0FBECDBF66
:10062000DF91CF911F910F91FF90EF90DF90CF90CE
:100630000895EF92FF920F931F93CF93DF938C0156
:100640007B0168E171E00E941713C0E0D0E0F70180
:1006500084819581C817D90728F5BE01C7010E947A
:100660003614FC0180818A3219F463E171E015C00F
:10067000BE01C7010E943614FC0180818D3219F43D
:1006800061E171E00AC0BE01C7010E943614FC019D
:100690008081803229F466E171E0C8010E94F5137F
:1006A0002196D5CFC801DF91CF911F910F91FF9077
:1006B000EF9008950F931F93CF93DF93CDB7DEB7DD
:1006C00027970FB6F894DEBF0FBECDBF8C01CE01C9
:1006D00001960E94C902BE016F5F7F4FC8010E9450
:1006E0001903CE0101960E94A912C80127960FB6E0
:1006F000F894DEBF0FBECDBFDF91CF911F910F9158
:1007000008950F931F93CF93DF93CDB7DEB72E9746
:100710000FB6F894DEBF0FBECDBF8C01809195015E
:1007200081110DC068E171E08EE691E00E9417131F
:1007300081E08093950186EB91E00E949401809185
:100740008D0181110DC068E171E087E691E00E94A2
:10075000171381E080938D0182EB91E00E94940158
:100760008091850181110DC00E944A176093630139
:1007700070936401809365019093660181E080939A
:10078000850160E070E0C8010E941714811106C065
:10079000F80184819581892B09F071C080916B01EA
:1007A00090916C01892B09F044C080917201909165
:1007B0007301892B09F47FC060E070E08EE691E060
:1007C0000E943614FC016081CE0108960E94A71396
:1007D000BE01685F7F4F80EA91E00E94EE13BE0188
:1007E000685F7F4FCE0101960E945A03BE016F5F82
:1007F0007F4F87E691E00E948413CE0101960E940C
:10080000A91241E050E06EE671E0CE0101960E942F
:10081000CD14BE016F5F7F4F8EE691E00E9484137E
:10082000CE0101960E94A912CE0108960E94A9123B
:1008300015C00E944A170091630110916401209134
:10084000650130916601DC01CB01801B910BA20B8D
:10085000B30B8D329140A105B105D0F480916B01AD
:1008600090916C01892B91F160E070E087E691E056
:100870000E943614FC018081823641F530C0C801E7
:100880000E94D914B8018EE691E00E94EE1386CF43
:1008900041E050E067E671E0CE0101960E94CD1480
:1008A000BE016F5F7F4F87E691E00E948413CE0107
:1008B00001960E94A9120E944A17609363017093E7
:1008C00064018093650190936601C8CF8091010116
:1008D0008823A1F060E082E00E9400180FC08091A0
:1008E0000101882321F061E082E00E9400188091DC
:1008F0000001882319F081E080939D012E960FB6A8
:10090000F894DEBF0FBECDBFDF91CF911F910F9145
:1009100008950F931F93CF93DF93CDB7DEB727973B
:100920000FB6F894DEBF0FBECDBF80917D0181115F
:100930000DC00E944A1760935F017093600180931D
:1009400061019093620181E080937D018DE00E94BE
:100950002F18182F80915E011817C9F00E944A17AE
:1009600060935F01709360018093610190936201D5
:10097000113059F480915C0190915D010196909342
:100980005D0180935C0110939E0110935E010E94B3
:100990004A1700915F01109160012091610130912F
:1009A0006201DC01CB01801B910BA20BB30B8739D9
:1009B0009105A105B10508F474C080915C01909186
:1009C0005D01019789F56091AB017091AC016115F2
:1009D000710551F180919F01882309F448C061504D
:1009E000710987EA91E00E943614FC01808180320F
:1009F000F1F52091AB013091AC012250310940E07A
:100A000050E067EA71E0CE0101960E948814BE01B1
:100A10006F5F7F4F87EA91E00E948413CE010196B9
:100A20000E94A91210929F0180915C0190915D013A
:100A3000029761F468E171E087EA91E00E94901307
:100A400068E171E08EEA91E00E94901380915C0170
:100A500090915D01039731F468E171E080EA91E0E3
:100A60000E94901310925D0110925C011AC02091B7
:100A7000AB013091AC012150310940E050E067EA10
:100A800071E0CE0101960E948814BE016F5F7F4F16
:100A900087EA91E00E948413CE0101960E94A91278
:100AA000C3CF27960FB6F894DEBF0FBECDBFDF9140
:100AB000CF911F910F91089583E10E942F1890917B
:100AC0005B018917E9F0811119C020910101909112
:100AD0000001222331F0992361F01092010191E08D
:100AE0000BC0992331F091E0909301011092000125
:100AF00005C091E0909301019093000180935B0108
:100B00000895CF92DF92EF92FF921F93CF93DF93DE
:100B1000CDB7DEB727970FB6F894DEBF0FBECDBFB7
:100B20008091750181110DC00E944A176093570191
:100B3000709358018093590190935A0181E08093FA
:100B4000750184E00E942F18182F0E944A17C09048
:100B50005701D0905801E0905901F0905A019B0143
:100B6000AC012C193D094E095F0969017A01809198
:100B70005601181759F110929E0111110FC036E954
:100B8000C316D104E104F10418F469E171E002C074
:100B90006BE171E08EEA91E00E94F5138091B20161
:100BA0009091B301089730F068E171E08EEA91E02E
:100BB0000E9490130E944A17609357017093580146
:100BC0008093590190935A0110935601111157C007
:100BD0008091B2019091B301892BE9F0D701C60150
:100BE000835C9140A109B10987359240A105B10507
:100BF00090F46EEA71E0CE0101960E944C02BE01B3
:100C00006F5F7F4F8EEA91E00E948413CE010196C0
:100C10000E94A9122AC06091AB017091AC016115CC
:100C2000710569F16150710987EA91E00E943614FB
:100C3000FC018081803219F180919E0181111FC0D9
:100C4000FBE1CF1AF4E0DF0AE108F10825E9C2165A
:100C5000D104E104F10498F467E171E087EA91E0DE
:100C60000E94F51381E080939F016091AB01709128
:100C7000AC016150710987EA91E00E943614279611
:100C80000FB6F894DEBF0FBECDBFDF91CF911F919D
:100C9000FF90EF90DF90CF900895CF93DF93CDB783
:100CA000DEB727970FB6F894DEBF0FBECDBF67EA59
:100CB00071E0CE0101960E947A136EEA71E0CE01D6
:100CC00001960E94041441E0BC0185EB91E00E9472
:100CD000BA01CE0101960E94A91240E060EA71E0DB
:100CE00085EB91E00E94BA0127960FB6F894DEBF1B
:100CF0000FBECDBFDF91CF910895CF93DF93CDB7D6
:100D0000DEB727970FB6F894DEBF0FBECDBF60E009
:100D100070E0CE0101960E941713CE0101960E9449
:100D20008103CE0101960E94A91280919D01882322
:100D300049F020E030E0A9016CEB72E086E00E940F
:100D40009D0F03C086E00E94381210929D012796E5
:100D50000FB6F894DEBF0FBECDBFDF91CF910895DF
:100D6000CF93DF93CDB7DEB727970FB6F894DEBFEA
:100D70000FBECDBF8091AB019091AC010F9798F061
:100D800041E050E067EA71E0CE0101960E94CD1487
:100D9000BE016F5F7F4F87EA91E00E948413CE010E
:100DA00001960E94A9128091A4019091A5010F972C
:100DB00098F041E050E060EA71E0CE0101960E94B7
:100DC000CD14BE016F5F7F4F80EA91E00E948413D3
:100DD000CE0101960E94A91227960FB6F894DEBFA5
:100DE0000FBECDBFDF91CF9108950E94B0060E9443
:100DF00089040E945C050E9481050E944D060C94A6
:100E00007D06CF92EF920F93CF93DF93CDB7DEB7EE
:100E10006C970FB6F894DEBF0FBECDBF20E04AE05E
:100E20006BE0CE0101960E947F0AEEECF1E08B812F
:100E30009C81938382838D819E81AF81B8858483D9
:100E40009583A683B78389859A85AB85BC85808782
:100E50009187A287B3878FE291E0918380838D850C
:100E600084878E8585878F859889978786878989E6
:100E7000808B8A899B89928B818B8C899D89948BAD
:100E8000838B8E899F89968B858B888D998D908F8A
:100E9000878B8A8D9B8D928F818F9C8DA9EEB1E07F
:100EA0008C9190FB80F99695917090FB81F98C93D1
:100EB00081E6848F158ECE0101960E94700B8CE026
:100EC000C82E99E0E92E08E027E045E063E0CE0176
:100ED00001960E941F0D85EB91E023E5FC01208324
:100EE00022E521832EE030E0338322832B813C8175
:100EF000378326832FE331E0358324832D812087B8
:100F00002E8121872F81228728E0FE013896A0ECD0
:100F1000B1E001900D922A95E1F72889FC01238B1D
:100F20002989248B2A89258B2B89268B2C89278B31
:100F30002D89208F68E171E08EEA91E00E941713FD
:100F400068E171E087EA91E00E94171368E171E0BF
:100F500080EA91E00E9417136C960FB6F894DEBFFA
:100F60000FBECDBFDF91CF910F91EF90CF9008953D
:100F700080EA91E00E94A91287EA91E00E94A912FA
:100F80008EEA91E00E94A9128EEC91E00C94700B15
:100F9000CF93DF93CDB7DEB72E970FB6F894DEBFB1
:100FA0000FBECDBF60E084E00E94C41760E08DE01A
:100FB0000E94C41760E083E10E94C41761E082E0F0
:100FC0000E94C41761E086E00E94C41740E855E221
:100FD00060E070E08EEC91E00E94AA0A40E855E2E1
:100FE00060E070E080E392E00E94630E20E040E168
:100FF00062E089EB91E00E946B0C89EB91E00E942A
:101000002E0C67E171E0CE0101960E94171341E0BA
:10101000BE016F5F7F4F85EB91E00E94BA01CE0168
:1010200001960E94A91267E171E0CE0101960E942B
:10103000171340E0BE016F5F7F4F85EB91E00E9488
:10104000BA01CE0101960E94A9126DE171E0CE01B4
:1010500008960E941713BE01685F7F4FCE0101966C
:101060000E94C902BE016F5F7F4F80E392E00E9441
:101070005F0FCE0101960E94A912CE0108960E9430
:10108000A9126AE080E392E00E94A20D89E191E05A
:101090000E942502682F80E392E00E94960F6AE08A
:1010A00080E392E00E94A20D2E960FB6F894DEBF68
:1010B0000FBECDBFDF91CF91089520912E023091C8
:1010C0002F0228173907B9F49091EC018091ED01B6
:1010D000981789F0E091EC01F0E0E251FE4F808139
:1010E0002091EC0130E02F5F3F4F2F733327209387
:1010F000EC0190E008958FEF9FEF089520912E026C
:1011000030912F022817390781F49091EC018091DA
:10111000ED01981751F0E091EC01F0E0E251FE4F43
:101120008081082E000C990B08958FEF9FEF089592
:1011300020912E0230912F022817390771F48091E7
:10114000ED012091EC0190E0805C9F4F821B9109A2
:1011500060E470E00E945818089580E090E00895DF
:1011600020912E0230912F022817390739F48FB7BA
:10117000F8941092ED011092EC018FBF0895DC01FC
:101180005196ED91FC915297908150968C9180955B
:1011900089238083089520E001972FEF8F3F9207E6
:1011A000D9F7089520912E0230912F022817390780
:1011B00089F0FC01238D2E7F238F2FB7F894109296
:1011C000ED011092EC0190932F0280932E022FBF1D
:1011D00081E0089580E00895EF92FF920F931F93AE
:1011E000CF93DF93EC018B8DEE85FF859D8581FF8D
:1011F00004C08081982329F446C08081982309F097
:1012000042C08B899C890E94CB0888E0E82EF12C93
:1012100010E001E08D899E890E94CB08EE85FF8554
:1012200090818D85892311F0102B03C0802F80952C
:101230001823000F81E0E81AF10861F78F89988D73
:101240000E94CB088B8D81FD10958091ED0120913E
:10125000EC0190E001968F73992730E08217930795
:1012600079F0E091ED01F0E0E251FE4F10838091C2
:10127000ED0190E001968F7399278093ED0103C0F3
:101280008B8D81608B8FDF91CF911F910F91FF909C
:10129000EF900895611102C00C94BF08DC015196D3
:1012A000ED91FC915297208150968C91822B8083F6
:1012B0000895DF92EF92FF920F931F93CF93DF93E6
:1012C000EC01298D3A8D2115310529F481E090E05A
:1012D0009B838A834BC0162FDFB6F8946B8D66957F
:1012E00061700E944A09898D9A8D05960E94CB08EB
:1012F0008B8D98E0E92EF12C01E081FF18C0812F41
:10130000802321F0CE010E94BF0804C061E0CE011D
:101310000E944A09898D9A8D0E94CB08000F81E0B6
:10132000E81AF10861F7CE010E94BF0818C0812FAA
:10133000802329F061E0CE010E944A0903C0CE015A
:101340000E94BF08898D9A8D0E94CB08000F81E012
:10135000E81AF10861F761E0CE010E944A09DFBE98
:10136000898D9A8D0E94CB0821E030E0C901DF9180
:10137000CF911F910F91FF90EF90DF9008951F92F2
:101380000F920FB60F9211242F933F934F935F93B9
:101390006F937F938F939F93AF93BF93EF93FF933D
:1013A00080912E0290912F02009711F00E94EC087C
:1013B000FF91EF91BF91AF919F918F917F916F912D
:1013C0005F914F913F912F910F900FBE0F901F9003
:1013D00018951F920F920FB60F9211242F933F93DF
:1013E0004F935F936F937F938F939F93AF93BF932D
:1013F000EF93FF930E94BF09FF91EF91BF91AF91CF
:101400009F918F917F916F915F914F913F912F911C
:101410000F900FBE0F901F9018951F920F920FB64E
:101420000F9211242F933F934F935F936F937F936A
:101430008F939F93AF93BF93EF93FF930E94BF0946
:10144000FF91EF91BF91AF919F918F917F916F919C
:101450005F914F913F912F910F900FBE0F901F9072
:1014600018951F93CF93DF93EC01162F61E0812F26
:101470000E94C41761E0812F0E940018812F90E024
:10148000FC01E05AFD4FE491E88BFC01EC58FD4F64
:10149000E491F0E0EE0FFF1FEE56FD4F8591949121
:1014A0009A8B898BDF91CF911F9108951F93CF93D2
:1014B000DF93EC01162F60E0812F0E94C4178B8D03
:1014C00081FD04C061E0812F0E9400181C87812FDC
:1014D00090E0FC01E05AFD4FE491ED87FC01EC58EF
:1014E000FD4FE491F0E0EE0FFF1FE857FD4F8591AF
:1014F00094919F878E87DF91CF911F9108951F93BD
:10150000CF93DF93EC01162F1B821A8288EE93E0B3
:10151000A0E0B0E08C839D83AE83BF838FE291E037
:10152000998388831C8A1B8A1E8A1D8A188E1F8AAB
:101530001A8E198E8B8D8E7F20FB81F98B8F642FF5
:10154000CE010E94310A612FCE01DF91CF911F9110
:101550000C94560ACF92DF92EF92FF92CF93DF93D3
:10156000EC011A8E198E188E1F8A1E8A1D8A8FEA28
:1015700091E020E030E0FC01C590D590E590F4903A
:10158000C416D506E606F70619F54CE0429FC001E1
:10159000439F900D1124FC01ED54FE4F2591349191
:1015A0003C8B2B8BFC01EB54FE4F259134913E8BF1
:1015B0002D8BFC01E954FE4F25913491388F2F8BF0
:1015C000FC01E754FE4F859194919A8F898F09C051
:1015D0002F5F3F4F0C962D30310509F0CCCF1C8A80
:1015E0001B8A8F89988D892B09F444C08C8586319C
:1015F000E8F590916800883050F021E08E3008F4D2
:1016000020E081E001C0880F2A95EAF701C084E05C
:10161000892B809368009C85983038F09E3040F08C
:10162000963148F0E0E0F0E008C0EDE6F0E005C0FB
:10163000EBE6F0E002C0ECE6F0E04081983030F4F8
:1016400081E001C0880F9A95EAF70EC0292F30E09B
:101650009E3018F42850310902C02E50310981E023
:1016600001C0880F2A95EAF7842B8083898D9A8D93
:101670000E94CB08CE01DF91CF91FF90EF90DF90D9
:10168000CF900C94D208FC012485263140F52830F7
:1016900028F02E3030F4EBE6F0E005C0EDE6F0E0A7
:1016A00002C0ECE6F0E03081283038F481E090E0D0
:1016B00001C0880F2A95EAF70FC0422F50E02E3064
:1016C00018F44850510902C04E50510981E090E091
:1016D00001C0880F4A95EAF7809583238083089597
:1016E0002FE231E0FC01318320830C94430BCF9334
:1016F000DF93EC0160E08E810E94001881E090E0B1
:101700000E94561761E08E810E94001881E090E0EF
:101710000E94561760E08E810E94001884E690E0D7
:10172000DF91CF910C945617AF92BF92CF92DF9278
:10173000EF92FF920F931F93CF93DF935C017C0195
:1017400087E0E80EF11CC0E0D0E0062F10E0670152
:1017500061E0F70181917F010E94C417B8010C2E4E
:1017600002C0759567950A94E2F76170F601808171
:101770000E9400182196C430D10549F7C501DF91B8
:10178000CF911F910F91FF90EF90DF90CF90BF907E
:10179000AF900C94770BAF92BF92CF92DF92EF9203
:1017A000FF920F931F93CF93DF935C017C0187E03F
:1017B000E80EF11CC0E0D0E0062F10E0670161E008
:1017C000F70181917F010E94C417B8010C2E02C05D
:1017D000759567950A94E2F76170F60180810E9421
:1017E00000182196C830D10549F7C501DF91CF9186
:1017F0001F910F91FF90EF90DF90CF90BF90AF902F
:101800000C94770B1F93CF93DF93EC01162F642F6B
:101810008C810E9400188D818F3F19F060E00E943A
:1018200000188F85612F84FF06C0CE01DF91CF9114
:101830001F910C94CB0B70E084E0759567958A95A9
:10184000E1F7CE010E94940B612FCE01DF91CF9181
:101850001F910C94940B40E00C94020C61E00E94E8
:101860002B0C80ED97E00C945617CF93DF93CDB7F8
:10187000DEB728970FB6F894DEBF0FBECDBF9C0130
:1018800088E0E9E0F1E0DE01119601900D928A9581
:10189000E1F7F9018389481710F04FEF480FFE0177
:1018A0003196E40FF11DE40FF11D9081690F60681E
:1018B000C90128960FB6F894DEBF0FBECDBFDF91E9
:1018C000CF910C942B0CFC016089262F2460208B77
:1018D0006C600C942B0CCF93DF93EC01423018F02A
:1018E0008F8588608F874B8B1C8A222329F041309B
:1018F00019F48F8584608F8780E593EC0E945617DA
:1019000060E08C810E94001860E08E810E940018C7
:101910008D818F3F19F060E00E9400186F8564FD93
:101920001DC063E0CE010E94940B84E991E10E9406
:10193000561763E0CE010E94940B84E991E10E9466
:10194000561763E0CE010E94940B86E990E00E9456
:10195000561762E0CE010E94940B16C06062CE0161
:101960000E942B0C84E991E10E9456176F856062FA
:10197000CE010E942B0C86E990E00E9456176F85DD
:101980006062CE010E942B0C6F856062CE010E94C6
:101990002B0C84E0888BCE010E94630CCE010E9448
:1019A0002E0C82E0898B66E0CE01DF91CF910C9402
:1019B0002B0C6F927F928F92AF92CF92EF920F93F8
:1019C0001F93CF93DF93CDB7DEB73C01162F842F43
:1019D0005D854E853F859889F30184832583068341
:1019E000E782C086A186828653874487358796879B
:1019F00061E00E94C417F30185818F3F19F061E017
:101A00000E94C41761E0F30186810E94C41711236C
:101A100019F0F301178603C080E1F301878720E006
:101A200041E060E1C301DF91CF911F910F91EF90F1
:101A3000CF90AF908F907F906F900C946B0C8F92A3
:101A4000AF92CF92EF920F93DC0113961C921E92ED
:101A50001297EFE3F1E0ED93FC931F921F921F9218
:101A60001F928C2CAE2CC02EE22E042F2FEF462F6F
:101A700061E00E94D90C0F900F900F900F900F9182
:101A8000EF90CF90AF908F90089541E00E94020CAC
:101A900081E090E00895FC0124853585F901E05C42
:101AA000FF4F80819181329620813181821B930B7F
:101AB0008F7399270895DC011C96ED91FC911D9779
:101AC000DF01A05CBF4F2D913C91119712968D9133
:101AD0009C9111972817390739F08D919C91E80F47
:101AE000F91F808190E008958FEF9FEF0895FC012A
:101AF000A485B585FD01E05CFF4F208131813296E0
:101B0000808191812817390779F080819181A80F10
:101B1000B91F8C91208131812F5F3F4F2F73332765
:101B20003183208390E008958FEF9FEF0895FC01AB
:101B300081A1882329F0A489B5898C9186FFFBCFE8
:101B400011A208950F931F93CF93DF93FC01A685F5
:101B5000B7858D01005C1F4FE8018881998101964E
:101B60008F739927AD014E5B5F4FEA012881398160
:101B700028173907D1F3E80128813981A20FB31F53
:101B80006C93A685B785A05CBF4F11969C938E93EE
:101B9000A689B7892C9181E090E0078C02C0880F5C
:101BA000991F0A94E2F7822B8C9381E081A3048829
:101BB000F589E02D80818064808381E090E0DF9171
:101BC000CF911F910F91089508951F920F920FB614
:101BD0000F9211242F934F935F938F939F93EF93C3
:101BE000FF938091C00082FD1CC02091C6008091AF
:101BF000D6029091D7024091D8025091D902019615
:101C00008F7399274817590771F0E091D602F09128
:101C1000D702EA56FD4F20839093D7028093D602D5
:101C200002C08091C600FF91EF919F918F915F91CB
:101C30004F912F910F900FBE0F901F90189580E33A
:101C400092E00E944B0D892B11F00C94E40D089545
:101C50001F920F920FB60F9211242F933F938F93E1
:101C60009F93EF93FF932091920230919302809182
:101C70009402909195022817390731F48091C100A0
:101C80008F7D8093C10014C0E0919402F091950281
:101C9000EE5AFD4F20818091940290919502019619
:101CA0008F73992790939502809394022093C60096
:101CB000FF91EF919F918F913F912F910F900FBEC8
:101CC0000F901F901895CF92DF92EF92FF92CF93D3
:101CD000DF93EC016A017B014115514E61057105ED
:101CE00009F1EC89FD8981E090E008A002C0880F2D
:101CF000991F0A94E2F7808360E079E08DE390E039
:101D0000A70196010E946C18DA01C9010197A10987
:101D1000B109B695A795979587959C01211580E106
:101D20003807A8F0EC89FD89108260E874E88EE13C
:101D300090E0A70196010E946C18DA01C901019791
:101D4000A109B109B695A795979587959C01E88952
:101D5000F9893083EA89FB89208319A2EE89FF89FA
:101D6000408181E090E09C010C8C02C0220F331F67
:101D70000A94E2F7242B2083EE89FF8940819C019D
:101D80000D8C02C0220F331F0A94E2F7242B20830C
:101D9000EE89FF8940819C010E8C02C0220F331F07
:101DA0000A94E2F7242B2083EE89FF8920810F8C8F
:101DB00002C0880F991F0A94E2F7809582238083DE
:101DC000DF91CF91FF90EF90DF90CF900895E0E307
:101DD000F2E01382128288EE93E0A0E0B0E0848308
:101DE0009583A683B78387E491E09183808386E916
:101DF00092E09587848782E592E09787868785ECD5
:101E000090E0918B808B84EC90E0938B828B80ECC4
:101E100090E0958B848B81EC90E0978B868B82ECA5
:101E200090E0918F808F86EC90E0938F828F84E09A
:101E3000848F83E0858F87E0868F85E0878F81E0C0
:101E400080A30895CF92DF92EF92FF920F931F939A
:101E5000CF93DF936C01EB017B01E40EF51E00E0F4
:101E600010E0CE15DF0561F06991D601ED91FC918E
:101E70000190F081E02DC6010995080F191FF1CFDF
:101E8000C801DF91CF911F910F91FF90EF90DF90EC
:101E9000CF9008956115710579F0FB010190002044
:101EA000E9F73197AF01461B570BDC01ED91FC912F
:101EB0000280F381E02D099480E090E00895AF92D4
:101EC000BF92CF92DF92EF92FF920F931F93CF9327
:101ED000DF937C016B01C0E0D0E000E010E0D601B0
:101EE00014968D919C911597C817D90788F4D7013E
:101EF000ED91FC91A080B180BE01C6010E94481402
:101F0000682FC701F5010995080F191F2196E7CF22
:101F1000C801DF91CF911F910F91FF90EF90DF905B
:101F2000CF90BF90AF9008950C944A0FDC01ED91D3
:101F3000FC910190F081E02D09944F925F926F9295
:101F40007F928F929F92AF92BF92CF92DF92EF9249
:101F5000FF920F931F93CF93DF9300D000D01F9277
:101F6000CDB7DEB78B0129013A01909102018917A3
:101F700021F09F3F09F046C205C0EBE4F2E0249156
:101F80002D8384C080930201EBE4F2E094919D8361
:101F90009F3F09F437C2913009F44DC058F1923097
:101FA00009F074C01092B0001092B1009091B0008E
:101FB00092609093B0009091B10091609093B100C5
:101FC000282F30E0F901EC58FD4FE491F0E0EE0FDE
:101FD000FF1FEE56FD4F459154915093DC02409304
:101FE000DB02F901E05AFD4FE491E093DA0292E05E
:101FF0009D8304C214BC15BC94B5926094BD95B584
:10200000916095BD282F30E0F901EC58FD4FE49127
:10201000F0E0EE0FFF1FEE56FD4F459154915093A7
:10202000EA024093E902F901E05AFD4FE491E0939E
:10203000E8021D82E3C1109280001092810090910D
:1020400081009860909381009091810091609093BD
:102050008100282F30E0F901EC58FD4FE491F0E0C9
:10206000EE0FFF1FEE56FD4F459154915093E30242
:102070004093E202F901E05AFD4FE491E093E1025E
:1020800061E00E94C41721E02D8382C02D8127FDCD
:10209000B9C161E00E94C4178D818D7F09F078C0BD
:1020A0004801A12CB12C60E072E18AE790E0A50123
:1020B00094010E948E1829833A834B835C836901C3
:1020C0007A0181E0C81AD108E108F1089FEFC9162A
:1020D000D104E104F10409F008F44EC060E472E4B4
:1020E0008FE090E0A50194010E948E1869017A01A9
:1020F00081E0C81AD108E108F1089D81923009F504
:102100002FEFC216D104E104F10409F008F43DC137
:1021100060E970ED83E090E0A50194010E948E18C3
:1021200069017A0181E0C81AD108E108F1089FEF3E
:10213000C916D104E104F10411F008F0B3C083E042
:1021400024C02FEFC216D104E104F104B9F0B0F0BD
:1021500068E478EE81E090E0A50194010E948E1879
:1021600069017A0181E0C81AD108E108F1089D816E
:10217000992309F40CC1D5C081E001C082E09D81A2
:10218000911103C085BD40C085E08093B1003CC083
:102190004801A12CB12C60E072E18AE790E0A50132
:1021A00094010E948E1869017A0181E0C81AD10851
:1021B000E108F108C114D10491E0E906F10488F0C6
:1021C00068E478EE81E090E0A50194010E948E1809
:1021D00069017A0181E0C81AD108E108F10883E0B9
:1021E00001C081E09D81913079F490918100987FC8
:1021F000892B80938100411451046104710449F4D6
:102200002FEF3FEFA9012CC0411451046104710468
:1022100071F0D801AA0FBB1FA30192010E94AD1853
:1022200028EE33E040E050E00E946C1803C02FEF2E
:102230003FEFA9018D81813099F0823019F1811130
:10224000E1C0C7BC2093EB023093EC024093ED0257
:102250005093EE0280916E00826080936E00D2C037
:10226000D0928900C09288002093E4023093E50266
:102270004093E6025093E70280916F008260809362
:102280006F00C0C0C092B3002093DD023093DE0225
:102290004093DF025093E00280917000826080934F
:1022A0007000B0C068E478EE81E090E0A501940190
:1022B0000E948E1869017A0191E0C91AD108E108DB
:1022C000F1082FEFC216D104E104F10441F138F115
:1022D00064E274EF80E090E0A50194010E948E1802
:1022E00069017A0181E0C81AD108E108F1089FEF7D
:1022F000C916D104E104F10409F008F445CF62E104
:102300007AE780E090E0A50194010E948E186901AF
:102310007A0181E0C81AD108E108F10819C084E007
:1023200034CF2FEFC216D104E104F10409F008F410
:1023300063C062E17AE780E090E0A50194010E9429
:102340008E1869017A0191E0C91AD108E108F108F3
:102350008FEFC816D104E104F104A9F0A0F089813F
:102360009A81AB81BC812AE0B595A7959795879511
:102370002A95D1F76C017D0121E0C21AD108E1084C
:10238000F10887E002CF86E000CF82E0FECE8FEF3B
:10239000C816D104E104F10469F160F162E17AE761
:1023A00080E090E0A50194010E948E1869017A01F5
:1023B00091E0C91AD108E108F1082FEFC216D10443
:1023C000E104F104A9F0A0F089819A81AB81BC817C
:1023D0003AE0B595A795979587953A95D1F76C0111
:1023E0007D0121E0C21AD108E108F10885E0CACEDA
:1023F00084E0C8CE83E0C6CE84E0C1CE61E00E9416
:10240000C4174ECE0F900F900F900F900F90DF914A
:10241000CF911F910F91FF90EF90DF90CF90BF90E1
:10242000AF909F908F907F906F905F904F900895A6
:10243000813039F018F0823051F0089510926E001A
:10244000089580916F008D7F80936F000895809133
:1024500070008D7F8093700081E08093B000809148
:10246000B100887F84608093B1001092B30008951A
:10247000CF93C82F80910201C81307C0EBE4F2E0AC
:1024800084919FEF9093020101C08FEF0E94181278
:1024900060E08C2FCF910C9400181F920F920FB612
:1024A0000F9211242F933F934F935F936F937F93DA
:1024B0008F939F93AF93BF93EF93FF938091DD0230
:1024C0009091DE02A091DF02B091E002892B8A2B6D
:1024D0008B2B51F19091DA02E091DB02F091DC025A
:1024E0008081892780838091DD029091DE02A09116
:1024F000DF02B091E002181619061A061B06C4F492
:102500008091DD029091DE02A091DF02B091E002A5
:102510000197A109B1098093DD029093DE02A09397
:10252000DF02B093E00204C0809102010E943812E1
:10253000FF91EF91BF91AF919F918F917F916F919B
:102540005F914F913F912F910F900FBE0F901F9071
:102550001895FC01808191810C948515CF93DF93B0
:10256000EC0188819981009711F00E9485151982EC
:1025700018821D821C821B821A82DF91CF910895DE
:102580000F931F93CF93DF93EC018B016F5F7F4F0E
:10259000888199810E940E16009731F09983888373
:1025A0001B830A8381E001C080E0DF91CF911F91FE
:1025B0000F910895CF93DF93EC0188819981892B46
:1025C00029F08A819B818617970760F4CE010E94CB
:1025D000C012882341F08C819D81892B19F4E881F8
:1025E000F981108281E0DF91CF910895EF92FF92FF
:1025F0000F931F93CF93DF93EC017B018A01BA0104
:102600000E94DA12811104C0CE010E94AE1207C0EE
:102610001D830C83B701888199810E940B19CE011B
:10262000DF91CF911F910F91FF90EF900895FC01E2
:102630001182108213821282158214821682611511
:10264000710551F0FB0101900020E9F73197AF01CE
:10265000461B570B0C94F61208950F931F93CF93BC
:10266000DF938C01EB01FC0180819181009799F04F
:10267000428153812C813D814217530750F068817C
:1026800079810E940B198C819D81F8019583848347
:1026900013C00E94851588819981F80191838083F8
:1026A0008A819B81938382838C819D81958384839E
:1026B000198218821B821A821D821C82DF91CF919F
:1026C0001F910F910895CF93DF93EC01FB018617C3
:1026D000970761F0608171816115710529F044816E
:1026E00055810E94F61202C00E94AE12CE01DF9107
:1026F000CF910895FC0111821082138212821582FB
:10270000148216820C946313CF93DF93EC01861727
:10271000970711F00E942D13CE01DF91CF910895FC
:10272000CF93DF93EC016115710559F0FB01019026
:102730000020E9F73197AF01461B570B0E94F612B4
:1027400002C00E94AE12CE01DF91CF910895CF93C7
:10275000DF9300D0CDB7DEB7FC0111821082138267
:10276000128215821482168269831A82BE016F5FFB
:102770007F4F0E9490130F900F90DF91CF9108959B
:10278000EF92FF920F931F93CF93DF936115710523
:1027900011F480E01CC041155105C1F07B01EC0132
:1027A0008C819D818A01080F191FB801CE010E94FA
:1027B000DA12882371F3288139818C819D81B701D8
:1027C000820F931F0E940B191D830C8381E0DF9100
:1027D000CF911F910F91FF90EF900895FB014481DD
:1027E0005581608171810C94C0136115710551F0A0
:1027F000FB0101900020E9F73197AF01461B570B11
:102800000C94C01380E00895CF93DF93EC01FB019B
:1028100044815581608171810E94C013811103C080
:10282000CE010E94AE12CE01DF91CF910895FC013E
:1028300024813581232B31F421E061157105A1F04C
:10284000FB0108C0FC01808191816115710531F4A3
:1028500021E0FC018081882339F005C00E94021923
:1028600021E0892B09F020E0822F0895FC012481CA
:1028700035816217730720F480819181009729F4D4
:102880001092EF028FEE92E00895860F971F089541
:10289000FC01248135816217730748F4808191819E
:1028A000009729F0FC01E60FF71F8081089580E072
:1028B00008950F931F93CF93DF934115510519F19D
:1028C0006115710501F1DC011496ED91FC911597EC
:1028D0002E173F0718F0FB01108215C0E21BF30B07
:1028E000EA012197EC17FD0708F4EF018B01FC01C9
:1028F00060817181620F731FAE01C8010E941219BD
:10290000C00FD11F1882DF91CF911F910F910895B1
:10291000BF92CF92DF92EF92FF920F931F93CF93CC
:10292000DF937C016B018A01E9012417350720F44C
:10293000812F8901C42FD82F68E171E0C7010E945F
:102940001713D60114968D919C91159780179107B6
:10295000C8F08C179D0708F4EC01D601ED91FC91AD
:102960001197EC0FFD1FB08010826D917C91600F6C
:10297000711FC7010E949013D601ED91FC91EC0FDD
:10298000FD1FB082C701DF91CF911F910F91FF9082
:10299000EF90DF90CF90BF900895CF93DF93EC013D
:1029A000FB01248135810E948814CE01DF91CF91F3
:1029B0000895CF93DF93FC01C081D181209751F01E
:1029C0008881882339F0082E000C990B0E94E118A9
:1029D0008993F6CFDF91CF9108950F931F93CF93F3
:1029E000DF938230910510F482E090E0E091FB02E9
:1029F000F091FC0220E030E0A0E0B0E0309719F167
:102A0000408151810281138148175907C8F084170A
:102A1000950769F4109731F012960C93129713965C
:102A20001C9327C00093FB021093FC0222C02115C7
:102A3000310519F04217530718F49A01BD01EF014F
:102A4000DF01F801DBCF21153105F9F0281B390B27
:102A50002430310580F48A819B816115710521F054
:102A6000FB019383828304C09093FC028093FB025A
:102A7000FE01329644C0FE01E20FF31F8193919351
:102A800022503109398328833AC02091F9023091CC
:102A9000FA02232B41F42091050130910601309375
:102AA000FA022093F90220910301309104012115CB
:102AB000310541F42DB73EB740910701509108010F
:102AC000241B350BE091F902F091FA02E217F307AB
:102AD000A0F42E1B3F0B2817390778F0AC014E5F8E
:102AE0005F4F2417350748F04E0F5F1F5093FA02CF
:102AF0004093F9028193919302C0E0E0F0E0CF01AE
:102B0000DF91CF911F910F910895CF93DF9300979D
:102B100009F481C0FC01329713821282A091FB025A
:102B2000B091FC02109781F420813181820F931FB4
:102B30002091F9023091FA022817390751F5F093E4
:102B4000FA02E093F90267C0ED0120E030E0CE1711
:102B5000DF0740F44A815B819E0141155105F1F088
:102B6000EA01F5CFD383C28340815181840F951F41
:102B7000C817D90759F488819981840F951F029647
:102B8000918380838A819B81938382832115310580
:102B900029F4F093FC02E093FB023DC0E901FB83C2
:102BA000EA8349915991C40FD51FEC17FD0761F4D1
:102BB00080819181840F951F0296E9019983888312
:102BC000828193819B838A83E0E0F0E012968D916D
:102BD0009C911397009719F0FD01DC01F7CF8D91BF
:102BE0009C9111979D012E5F3F4F820F931F209163
:102BF000F9023091FA022817390769F4309729F45D
:102C00001092FC021092FB0202C013821282B09357
:102C1000FA02A093F902DF91CF9108956F927F920B
:102C20008F929F92AF92BF92CF92DF92EF92FF92DC
:102C30000F931F93CF93DF93009789F4CB01DF911C
:102C4000CF911F910F91FF90EF90DF90CF90BF90A9
:102C5000AF909F908F907F906F900C94ED14FC013B
:102C6000E60FF71F9C0122503109E217F30708F421
:102C7000A9C0EC01D9010D911C91119706171707F6
:102C8000B0F00530110508F49BC0C8010497861701
:102C9000970708F495C002501109061B170B019302
:102CA00011936D937C93CF010E94851589C05B01C0
:102CB000A01AB10A4C01800E911EA091FB02B091A6
:102CC000FC02612C712CE12CF12C109709F446C008
:102CD0008D919C911197A815B905B1F56C0142E051
:102CE000C40ED11CCA14DB0478F14C018A189B086D
:102CF000640142E0C40ED11C1296BC901297139648
:102D0000AC91B5E0CB16D10440F0B282A38391829E
:102D10008082D9016D937C9309C00E5F1F4F800F95
:102D2000911FF90191838083EB2DFA2FE114F104B7
:102D300031F0D7011396FC93EE93129741C0F093B4
:102D4000FC02E093FB023CC06816790608F43C01E3
:102D50007D0112960D90BC91A02DB7CF8091F90204
:102D60009091FA0288169906E1F466167706C8F47F
:102D70008091030190910401009741F48DB79EB7B3
:102D80004091070150910801841B950BE817F90742
:102D9000C8F4F093FA02E093F902F90171836083B9
:102DA0000FC0CB010E94ED147C01009759F0A801DF
:102DB000BE010E94F918CE010E948515C70104C00A
:102DC000CE0102C080E090E0DF91CF911F910F9182
:102DD000FF90EF90DF90CF90BF90AF909F908F903B
:102DE0007F906F9008950E9460170E94C807CFE1FE
:102DF000DEE00E94F5062097E1F30E941F0EF9CF56
:102E00001F920F920FB60F9211242F933F938F931F
:102E10009F93AF93BF938091F1029091F202A091A2
:102E2000F302B091F4023091F00223E0230F2D372A
:102E300020F40196A11DB11D05C026E8230F0296BE
:102E4000A11DB11D2093F0028093F1029093F20234
:102E5000A093F302B093F4028091F5029091F602F0
:102E6000A091F702B091F8020196A11DB11D8093C7
:102E7000F5029093F602A093F702B093F802BF9187
:102E8000AF919F918F913F912F910F900FBE0F9017
:102E90001F9018952FB7F8946091F1027091F2028B
:102EA0008091F3029091F4022FBF0895019739F0B9
:102EB000880F991F880F991F02970197F1F70895BE
:102EC000789484B5826084BD84B5816084BD85B505
:102ED000826085BD85B5816085BDEEE6F0E08081CC
:102EE00081608083E1E8F0E01082808182608083ED
:102EF000808181608083E0E8F0E080818160808370
:102F0000E1EBF0E0808184608083E0EBF0E08081A1
:102F100081608083EAE7F0E0808184608083808143
:102F200082608083808181608083808180688083EB
:102F30001092C1000895833081F028F4813099F017
:102F40008230A1F008958630A9F08730B9F084303E
:102F5000D1F4809180008F7D03C0809180008F77B5
:102F600080938000089584B58F7702C084B58F7DEB
:102F700084BD08958091B0008F7703C08091B00028
:102F80008F7D8093B0000895CF93DF9390E0FC0194
:102F9000E05AFD4F2491FC01EC58FD4F84918823A9
:102FA00061F190E0880F991FFC01E456FD4FC59137
:102FB000D491FC01EE56FD4FA591B491611109C069
:102FC0009FB7F8948881209582238883EC912E23E3
:102FD0000BC0623061F49FB7F8948881322F30952E
:102FE00083238883EC912E2B2C939FBF06C08FB731
:102FF000F894E8812E2B28838FBFDF91CF9108951D
:103000001F93CF93DF93282F30E0F901E45BFD4F4E
:103010008491F901E05AFD4FD491F901EC58FD4F2C
:10302000C491CC23C1F0162F81110E949B17EC2F65
:10303000F0E0EE0FFF1FEE56FD4FA591B4919FB744
:10304000F894111104C08C91D095D82302C0EC9152
:10305000DE2BDC939FBFDF91CF911F910895CF931B
:10306000DF93282F30E0F901E45BFD4F8491F901F3
:10307000E05AFD4FD491F901EC58FD4FC491CC2397
:1030800091F081110E949B17EC2FF0E0EE0FFF1FD3
:10309000E857FD4FA591B491EC91ED2381E090E0CC
:1030A00021F480E002C080E090E0DF91CF910895AC
:1030B00097FB072E16F4009407D077FD09D00E94E5
:1030C000B81807FC05D03EF4909581959F4F089560
:1030D000709561957F4F0895A1E21A2EAA1BBB1B24
:1030E000FD010DC0AA1FBB1FEE1FFF1FA217B307D4
:1030F000E407F50720F0A21BB30BE40BF50B661FEA
:10310000771F881F991F1A9469F7609570958095AD
:1031100090959B01AC01BD01CF010895052E97FB51
:103120001EF400940E94A51857FD07D00E946C1849
:1031300007FC03D04EF40C94A5185095409530959B
:1031400021953F4F4F4F5F4F089590958095709513
:1031500061957F4F8F4F9F4F08950E94D218A59F72
:10316000900DB49F900DA49F800D911D1124089582
:10317000AA1BBB1B51E107C0AA1FBB1FA617B7079D
:1031800010F0A61BB70B881F991F5A95A9F78095B9
:103190009095BC01CD010895EE0FFF1F0590F491AD
:1031A000E02D0994A29FB001B39FC001A39F700DB1
:1031B000811D1124911DB29F700D811D1124911D3F
:1031C00008959111089581568A5108F480528558C6
:1031D0000895FB01DC018D91059080190110D9F350
:1031E000990B0895FB01DC0105900D920020E1F799
:1031F0000895FB01DC0102C001900D924150504046
:10320000D8F70895FB01DC018D9101908019011020
:10321000D9F3990B0895FB01DC0101900D92002078
:10322000E1F70895FB01DC014150504048F0019066
:103230000D920020C9F701C01D9241505040E0F7A7
:1032400008950E94800111E0C5E5D1E004C0FE01AF
:103250000E94CC182196C635D107C9F7F894FFCF44
:103260000101FF0000FD0280000000400014005436
:103270000062626220002020002A002D005669763C
:103280007377616E20536861682E0000000000595A
:1032900009220F98085D087E08B00800000000456C
:1032A0000D220F00000000A20D220F4B0D770D5BC9
:0432B0000D970D0069
:00000001FF
