:100000000C94B3000C94DB000C94DB000C94050BF7
:100010000C94E10A0C94B70A0C94DB000C9429139D
:100020000C94DB000C94DB000C94DB000C94DB00E4
:100030000C94DB000C94DB000C94DB000C94DB00D4
:100040000C94CF170C94DB000C94DD0E0C94200F55
:100050000C94DB000C94DB000C94DB000C94DB00B4
:100060000C94DB000C94DB0000C2010001001100C5
:1000700011000C0000E100000A002500250021000D
:10008000009600001900390039003600127A00008D
:100090001F004600460044008070000022004D0012
:1000A0004D004A00004B00003600750075007200DC
:1000B000403800004A009C009C0099008025000008
:1000C0007200EC00EC00E900C0120000E900DA0167
:1000D000DA01D70160090000D701B603B603B30304
:1000E000B0040000B3036E076E076B0758020000F0
:1000F0006E07DC0EDC0ED80E2C010000DC0EC11DDC
:10010000C11DBE1D02000000070002010000030423
:10011000060000000000000000010204081020405A
:1001200080010204081020010204081020040404C5
:100130000404040404020202020202030303030390
:100140000300000000230026002900000000002515
:100150000028002B0000000000240027002A0000D7
:10016000C406DF0F360911241FBECFEFD8E0DEBF73
:10017000CDBF12E0A0E0B1E0E0ECF3E302C00590F7
:100180000D92A632B107D9F726E0A6E2B2E001C08F
:100190001D92A830B207E1F710E0C2EBD0E004C036
:1001A0002197FE010E949B19C03BD107C9F70E940D
:1001B000C2170C94D1190C940000A0912602B091A2
:1001C0002702109769F0ED91FC91119712968D918D
:1001D0009C91139790932702809326020995EDCF67
:1001E0000895CF93DF93EC0184E090E00E94BC156A
:1001F000009781F0FC01D183C083209126023091C9
:10020000270233832283909327028093260280E083
:1002100090E002C081E090E0DF91CF91089589E302
:1002200092E00C94851380E492E00C9485136115A0
:10023000710579F0FB0101900020E9F73197AF01DA
:10024000461B570BDC01ED91FC910280F381E02D00
:10025000099480E090E008950F931F93CF93DF936C
:10026000CDB7DEB727970FB6F894DEBF0FBECDBF70
:100270008C01462F62E087E892E00E942D0DF80184
:10028000248135812F303105A0F0A9014E5051094C
:10029000B801CE0101960E945715BE016F5F7F4FD6
:1002A00087E892E00E944210CE0101960E948513D9
:1002B0000BC0B80187E892E00E94421061E171E052
:1002C00087E892E00E94771027960FB6F894DEBF79
:1002D0000FBECDBFDF91CF911F910F910895EF9287
:1002E000FF920F931F93CF93DF938C017B01C9EB98
:1002F000D2E0B701CE0107960E942315882329F08A
:10030000BE01C8010E9456140AC02E9684E0C73F61
:10031000D80779F76AE271E0C8010E94F313C801B7
:10032000DF91CF911F910F91FF90EF9008959F92D1
:10033000AF92BF92CF92DF92EF92FF920F931F93F3
:10034000CF93DF93CDB7DEB727970FB6F894DEBF14
:100350000FBECDBF7C015B016AE271E00E94F31326
:10036000C12CD12CF50184819581C816D906B8F528
:10037000B601C5010E943415FC0180818032F9F07C
:1003800009EB12E0B601C5010E943415FC01608141
:10039000CE0101960E948314BE016F5F7F4FC8019A
:1003A0000E942315982ECE0101960E948513992054
:1003B00061F0B801695F7F4FC7010E94CA146EE106
:1003C00071E0C7010E94D11406C0025F1F4FF4E024
:1003D000073F1F07B9F68FEFC81AD80AC3CFC70166
:1003E00027960FB6F894DEBF0FBECDBFDF91CF9139
:1003F0001F910F91FF90EF90DF90CF90BF90AF9043
:100400009F900895EF92FF920F931F93CF93DF93E6
:100410008C017B016AE271E00E94F313C0E0D0E03E
:10042000F70184819581C817D90728F5BE01C70156
:100430000E943415FC0180818A3219F462E271E075
:1004400015C0BE01C7010E943415FC0180818D32A8
:1004500019F460E271E00AC0BE01C7010E943415C0
:10046000FC018081803229F46DE171E0C8010E94B5
:10047000D1142196D5CFC801DF91CF911F910F9153
:10048000FF90EF9008950F931F93CF93DF93CDB715
:10049000DEB72E970FB6F894DEBF0FBECDBF8C012E
:1004A000CE0108960E945614BE01685F7F4FCE01B0
:1004B00001960E949701BE016F5F7F4FC8010E94A5
:1004C0000202CE0101960E948513CE0108960E9479
:1004D0008513C8012E960FB6F894DEBF0FBECDBFB0
:1004E000DF91CF911F910F9108951F93CF93DF93C9
:1004F000182FC9EBD2E060E070E0CE010E944615F3
:10050000811739F02E9684E0C73FD807A1F780E025
:1005100001C081E0DF91CF911F9108950F931F9348
:10052000CF93DF93CDB7DEB765970FB6F894DEBFF4
:100530000FBECDBF8C018091670281110DC06AE2B0
:1005400071E080E492E00E94F31381E080936702FF
:1005500083E191E00E94F10080915F0281110DC062
:100560006AE271E089E392E00E94F31381E08093F4
:100570005F028FE091E00E94F100809157028111AB
:100580000DC00E9419186093350270933602809353
:1005900037029093380281E080935702F8018481FA
:1005A0009581892B41F0C8010E94A815B80180E40B
:1005B00092E00E94CA1480913D0290913E02892BE4
:1005C00009F04FC08091440290914502892B09F4B3
:1005D00081C060E070E080E492E00E943415FC018C
:1005E0006081CE010F960E948314BE01615F7F4F30
:1005F00082E792E00E94CA14BE01615F7F4FCE0184
:1006000008960E945614BE01685F7F4FCE01019686
:100610000E944302BE016F5F7F4F89E392E00E9418
:100620006014CE0101960E948513CE0108960E94A7
:10063000851341E050E060E472E0CE0101960E9433
:100640009C15BE016F5F7F4F80E492E00E946014B2
:10065000CE0101960E948513CE010F960E9485134C
:1006600015C00E9419180091350210913602209190
:10067000370230913802DC01CB01801B910BA20BB9
:10068000B30B8D329140A105B10588F480913D02F4
:1006900090913E02892BC9F160E070E089E392E01D
:1006A0000E943415FC018081823679F51EC041E03C
:1006B00050E069E372E0CE0101960E949C15BE01F4
:1006C0006F5F7F4F89E392E00E946014CE01019634
:1006D0000E9485130E9419186093350270933602A8
:1006E0008093370290933802D1CF80910101882303
:1006F00021F061E082E00E94CF1880910001882300
:1007000061F081E080936F0208C08091010188232D
:1007100021F060E082E00E94CF1865960FB6F89451
:10072000DEBF0FBECDBFDF91CF911F910F91089516
:100730001F93CF93DF93CDB7DEB727970FB6F8940B
:10074000DEBF0FBECDBF182F8032F9F00E947502B8
:1007500081111BC01D3239F520917602309177024C
:100760002115310541F12150310940E050E062E7A7
:1007700072E0CE0101960E945715BE016F5F7F4F58
:1007800082E792E00E94601409C0612FCE010196B9
:100790000E948314CE0101960E948E02CE01019622
:1007A0000E94851308C01F3531F46AE271E082E7C8
:1007B00092E00E946C1427960FB6F894DEBF0FBE2D
:1007C000CDBFDF91CF911F9108950F931F93CF93CA
:1007D000DF93CDB7DEB727970FB6F894DEBF0FBE15
:1007E000CDBF80914F0281110DC00E9419186093F6
:1007F000310270933202809333029093340281E08D
:1008000080934F028DE00E94FE18182F80913002D5
:100810001817C9F00E9419186093310270933202C0
:100820008093330290933402113059F480912E0258
:1008300090912F02019690932F0280932E02109395
:100840007002109330020E94191800913102109129
:1008500032022091330230913402DC01CB01801B43
:10086000910BA20BB30B87399105A105B10508F4D3
:1008700081C080912E0290912F020197C1F5609165
:100880007D0270917E026115710589F1809171027E
:10089000882309F452C06150710989E792E00E94EF
:1008A0003415FC018081803209F047C020917D021F
:1008B00030917E022250310940E050E069E772E059
:1008C000CE0101960E945715BE016F5F7F4F89E7E9
:1008D00092E00E946014CE0101960E9485138DE281
:1008E0000E9498038DE20E949803109271028091F9
:1008F0002E0290912F02029779F46AE271E089E763
:1009000092E00E946C146AE271E080E892E00E943A
:100910006C148FE50E94980380912E0290912F0213
:10092000039731F46AE271E082E792E00E946C146E
:1009300010922F0210922E021DC020917D02309144
:100940007E022150310940E050E069E772E0CE01BB
:1009500001960E945715BE016F5F7F4F89E792E0B5
:100960000E946014CE0101960E9485138DE20E94C0
:100970009803BDCF27960FB6F894DEBF0FBECDBF4C
:10098000DF91CF911F910F910895CF9383E10E9442
:10099000FE18C82F811103C068E271E002C065E251
:1009A00071E08BE395E00E94170180912D02C8173A
:1009B000E9F0C11119C090910101809100019923C2
:1009C00031F0882361F01092010181E00BC088238F
:1009D00031F081E0809301011092000105C081E0B7
:1009E0008093010180930001C0932D02CF9108955F
:1009F000FF920F931F93CF93DF93CDB7DEB72E9760
:100A00000FB6F894DEBF0FBECDBF809147028111B3
:100A10000DC00E9419186093290270932A028093D6
:100A20002B0290932C0281E08093470284E00E9485
:100A3000FE18F82E0E9419182091290230912A02DE
:100A40008B01021B130B80912802F81641F11092C2
:100A50007002F1100CC00639110518F464EB71E056
:100A600002C06CEA71E080E892E00E94D1148091AB
:100A7000840290918502089730F06AE271E080E884
:100A800092E00E946C140E941918609329027093DE
:100A90002A0280932B0290932C02F0922802F110EC
:100AA00060C08091840290918502892B49F1C80130
:100AB000835C91408735924018F560E872E0CE0182
:100AC00008960E945614BE01685F7F4FCE010196C2
:100AD0000E946F01BE016F5F7F4F89E792E00E9425
:100AE000CA14CE0101960E948513CE0108960E9479
:100AF00085136AE271E080E892E00E946C1423C0E2
:100B000060917D0270917E026115710551F1615015
:100B1000710989E792E00E943415FC0180818032DE
:100B200001F18091700281111CC00B5114400539F4
:100B30001105B8F46EE171E089E792E00E94D114EA
:100B400081E08093710260917D0270917E0261501C
:100B5000710989E792E00E943415FC0180810E94AE
:100B600098032E960FB6F894DEBF0FBECDBFDF916F
:100B7000CF911F910F91FF900895CF93DF93CDB741
:100B8000DEB727970FB6F894DEBF0FBECDBF69E77B
:100B900072E0CE0101960E94561460E872E0CE0128
:100BA00001960E94E01460E00E942C01CE010196A3
:100BB0000E94851361E082E792E00E942C01279653
:100BC0000FB6F894DEBF0FBECDBFDF91CF91089571
:100BD000CF93DF93CDB7DEB727970FB6F894DEBF7C
:100BE0000FBECDBF6AE271E0CE0101960E94F31301
:100BF000CE0101960E948E02CE0101960E948513BD
:100C000080916F02882349F020E030E0A9016CEB6D
:100C100072E086E00E94791003C086E00E941413FF
:100C200010926F0227960FB6F894DEBF0FBECDBFAD
:100C3000DF91CF91089583E20C94980360E084E003
:100C40000E94931860E08DE00E94931860E083E1B9
:100C50000E94931861E082E00E94931861E086E0B0
:100C60000E94931840E855E260E070E08CE992E061
:100C70000E94A20B40E855E260E070E08BE395E053
:100C80000E945B0F20E042E060E187E892E00E9472
:100C9000630D87E892E00E94260D40E060E087E85F
:100CA00092E00E942D0D6BE271E087E892E00E94D5
:100CB000771041E060E087E892E00E942D0D6EE23F
:100CC00071E087E892E00C947710CF93DF93CDB773
:100CD000DEB727970FB6F894DEBF0FBECDBF809169
:100CE0007D0290917E020F9798F041E050E069E715
:100CF00072E0CE0101960E949C15BE016F5F7F4F8E
:100D000089E792E00E946014CE0101960E9485134B
:100D100080917602909177020F9798F041E050E031
:100D200062E772E0CE0101960E949C15BE016F5FE2
:100D30007F4F82E792E00E946014CE0101960E94EC
:100D4000851327960FB6F894DEBF0FBECDBFDF9197
:100D5000CF9108950E94650661E371E08BE395E011
:100D60000E94170161E371E08CE992E00E94170193
:100D70000E94E5030E94C5040E94F8040E94BD057C
:100D80000E94E8050C941B06CF92EF920F93CF932D
:100D9000DF93CDB7DEB76C970FB6F894DEBF0FBE0A
:100DA000CDBF64E371E089EB92E00E94F3136BEA3C
:100DB00071E080EC92E00E94F31366E371E087EC4F
:100DC00092E00E94F31361EC71E08EEC92E00E94DD
:100DD000F31368E371E085ED92E00E94F3136AE398
:100DE00071E08CED92E00E94F3136FE371E083EE0B
:100DF00092E00E94F31367E571E08AEE92E00E94B0
:100E0000F31361E471E081EF92E00E94F31364EB6D
:100E100071E088EF92E00E94F31363E471E08FEFDA
:100E200092E00E94F31365E471E086E093E00E9493
:100E3000F3136AE471E08DE093E00E94F31364E63B
:100E400071E084E193E00E94F3136CE471E08BE1C4
:100E500093E00E94F31361EB71E082E293E00E9461
:100E6000F3136EE471E089E293E00E94F31363EB05
:100E700071E080E393E00E94F31360E571E087E3A3
:100E800093E00E94F31369E971E08EE393E00E941E
:100E9000F31362E571E085E493E00E94F31365EDDE
:100EA00071E08CE493E00E94F31364E571E083E564
:100EB00093E00E94F31366E571E08AE593E00E94F7
:100EC000F3136BE571E081E693E00E94F31363EAAC
:100ED00071E088E693E00E94F3136DE571E08FE620
:100EE00093E00E94F31367E471E086E793E00E94C9
:100EF000F3136FE571E08DE793E00E94F3136AE965
:100F000071E084E893E00E94F31361E671E08BE8FE
:100F100093E00E94F31363E671E082E993E00E949C
:100F2000F31368E671E089E993E00E94F3136AE63F
:100F300071E080EA93E00E94F3136FE671E087EAC4
:100F400093E00E94F31366E471E08EEA93E00E945E
:100F5000F31361E771E085EB93E00E94F31362EB1A
:100F600071E08CEB93E00E94F31363E771E083EC94
:100F700093E00E94F3136CEA71E08AEC93E00E9424
:100F8000F31365E771E081ED93E00E94F3136AEAE1
:100F900071E088ED93E00E94F31367E771E08FED55
:100FA00093E00E94F31369EA71E086EE93E00E94F9
:100FB000F31369E771E08DEE93E00E94F31362EAA8
:100FC00071E084EF93E00E94F3136BE771E08BEF25
:100FD00093E00E94F3136DE771E082E094E00E94D9
:100FE000F31362E871E089E094E00E94F31368EF84
:100FF00071E080E194E00E94F31364E871E087E11E
:1010000094E00E94F31366EE71E08EE194E00E949A
:10101000F31366E871E085E294E00E94F31368E858
:1010200071E08CE294E00E94F3136EE871E083E3D8
:1010300094E00E94F31360E971E08AE394E00E9477
:10104000F31366E971E081E494E00E94F31368E928
:1010500071E088E494E00E94F3136EE971E08FE49C
:1010600094E00E94F31360EA71E086E594E00E9448
:10107000F31366EA71E08DE594E00E94F31368EAE9
:1010800071E084E694E00E94F3136EEA71E08BE66F
:1010900094E00E94F31360EB71E082E794E00E9419
:1010A000F31366EB71E089E794E00E94F31368EBB9
:1010B00071E080E894E00E94F3136EEB71E087E842
:1010C00094E00E94F31360EC71E08EE894E00E94DB
:1010D000F31366EC71E085E994E00E94F31368EC89
:1010E00071E08CE994E00E94F3136EEC71E083EA06
:1010F00094E00E94F3136EEE71E08AEA94E00E949D
:10110000F31360ED71E081EB94E00E94F31362ED64
:1011100071E088EB94E00E94F31369ED71E08FEBCE
:1011200094E00E94F3136BED71E086EC94E00E9472
:10113000F31362EE71E08DEC94E00E94F31364EE21
:1011400071E084ED94E00E94F3136BEE71E08BED9F
:1011500094E00E94F3136DEE71E082EE94E00E9441
:10116000F31364EF71E089EE94E00E94F31366EFED
:1011700071E080EF94E00E94F31320E04AE06BE01E
:10118000CE0101960E94770BECE9F2E08B819C8105
:10119000938382838D819E81AF81B885848395837B
:1011A000A683B78389859A85AB85BC85808791871F
:1011B000A287B38781E092E0918380838D858487C5
:1011C0008E8585878F859889978786878989808B83
:1011D0008A899B89928B818B8C899D89948B838B47
:1011E0008E899F89968B858B888D998D908F878B23
:1011F0008A8D9B8D928F818F9C8DA7EBB2E08C9115
:1012000090FB80F99695917090FB81F98C93148EE8
:10121000CE0101960E94680C8CE0C82E99E0E92E60
:1012200008E027E045E063E087E892E00E94170EBF
:101230006AE271E080E892E00E94F3136AE271E0F2
:1012400089E792E00E94F3136AE271E082E792E09C
:101250000E94F3136C960FB6F894DEBF0FBECDBF9D
:10126000DF91CF910F91EF90CF900895CF93DF93BF
:1012700082E792E00E94851389E792E00E9485133D
:1012800080E892E00E9485138CE992E00E94680C4D
:10129000C7EFD4E02797CE010E94851382E0C93BB7
:1012A000D807C1F7DF91CF9108952091390530918A
:1012B0003A0528173907B9F49091F7048091F8049A
:1012C000981789F0E091F704F0E0E750FB4F808138
:1012D0002091F70430E02F5F3F4F2F733327209387
:1012E000F70490E008958FEF9FEF0895209139055E
:1012F00030913A052817390781F49091F7048091CD
:10130000F804981751F0E091F704F0E0E750FB4F34
:101310008081082E000C990B08958FEF9FEF0895A0
:101320002091390530913A052817390771F48091D9
:10133000F8042091F70490E0805C9F4F821B910994
:1013400060E470E00E942719089580E090E008951D
:101350002091390530913A052817390739F48FB7AC
:10136000F8941092F8041092F7048FBF0895DC01EE
:101370005196ED91FC915297908150968C91809569
:1013800089238083089520E001972FEF8F3F9207F4
:10139000D9F708952091390530913A052817390772
:1013A00089F0FC01238D2E7F238F2FB7F8941092A4
:1013B000F8041092F70490933A05809339052FBFF3
:1013C00081E0089580E00895EF92FF920F931F93BC
:1013D000CF93DF93EC018B8DEE85FF859D8581FF9B
:1013E00004C08081982329F446C08081982309F0A5
:1013F00042C08B899C890E94C30988E0E82EF12CA9
:1014000010E001E08D899E890E94C309EE85FF8569
:1014100090818D85892311F0102B03C0802F80953A
:101420001823000F81E0E81AF10861F78F89988D81
:101430000E94C3098B8D81FD10958091F804209145
:10144000F70490E001968F73992730E08217930795
:1014500079F0E091F804F0E0E750FB4F10838091C1
:10146000F80490E001968F7399278093F80403C0E5
:101470008B8D81608B8FDF91CF911F910F91FF90AA
:10148000EF900895611102C00C94B709DC015196E8
:10149000ED91FC915297208150968C91822B808304
:1014A0000895DF92EF92FF920F931F93CF93DF93F4
:1014B000EC01298D3A8D2115310529F481E090E068
:1014C0009B838A834BC0162FDFB6F8946B8D66958D
:1014D00061700E94420A898D9A8D05960E94C30907
:1014E0008B8D98E0E92EF12C01E081FF18C0812F4F
:1014F000802321F0CE010E94B70904C061E0CE0133
:101500000E94420A898D9A8D0E94C309000F81E0D2
:10151000E81AF10861F7CE010E94B70918C0812FBF
:10152000802329F061E0CE010E94420A03C0CE016F
:101530000E94B709898D9A8D0E94C309000F81E02E
:10154000E81AF10861F761E0CE010E94420ADFBEAD
:10155000898D9A8D0E94C30921E030E0C901DF9195
:10156000CF911F910F91FF90EF90DF9008951F9200
:101570000F920FB60F9211242F933F934F935F93C7
:101580006F937F938F939F93AF93BF93EF93FF934B
:101590008091390590913A05009711F00E94E40975
:1015A000FF91EF91BF91AF919F918F917F916F913B
:1015B0005F914F913F912F910F900FBE0F901F9011
:1015C00018951F920F920FB60F9211242F933F93ED
:1015D0004F935F936F937F938F939F93AF93BF933B
:1015E000EF93FF930E94B70AFF91EF91BF91AF91E4
:1015F0009F918F917F916F915F914F913F912F912B
:101600000F900FBE0F901F9018951F920F920FB65C
:101610000F9211242F933F934F935F936F937F9378
:101620008F939F93AF93BF93EF93FF930E94B70A5B
:10163000FF91EF91BF91AF919F918F917F916F91AA
:101640005F914F913F912F910F900FBE0F901F9080
:1016500018951F93CF93DF93EC01162F61E0812F34
:101660000E94931861E0812F0E94CF18812F90E093
:10167000FC01E75EFE4FE491E88BFC01E35DFE4F69
:10168000E491F0E0EE0FFF1FE55BFE4F8591949132
:101690009A8B898BDF91CF911F9108951F93CF93E0
:1016A000DF93EC01162F60E0812F0E9493188B8D41
:1016B00081FD04C061E0812F0E94CF181C87812F1B
:1016C00090E0FC01E75EFE4FE491ED87FC01E35DF5
:1016D000FE4FE491F0E0EE0FFF1FEF5BFE4F8591B0
:1016E00094919F878E87DF91CF911F9108951F93CB
:1016F000CF93DF93EC01162F1B821A8288EE93E0C2
:10170000A0E0B0E08C839D83AE83BF8381E092E054
:10171000998388831C8A1B8A1E8A1D8A188E1F8AB9
:101720001A8E198E8B8D8E7F20FB81F98B8F642F03
:10173000CE010E94290B612FCE01DF91CF911F9125
:101740000C944E0BCF92DF92EF92FF92CF93DF93E8
:10175000EC011A8E198E188E1F8A1E8A1D8A88E641
:1017600090E020E030E0FC01C590D590E590F49049
:10177000C416D506E606F70619F54CE0429FC001EF
:10178000439F900D1124FC01E459FF4F25913491A2
:101790003C8B2B8BFC01E259FF4F259134913E8B02
:1017A0002D8BFC01E059FF4F25913491388F2F8B01
:1017B000FC01EE58FF4F859194919A8F898F09C053
:1017C0002F5F3F4F0C962D30310509F0CCCF1C8A8E
:1017D0001B8A8F89988D892B09F444C08C858631AA
:1017E000E8F590916800883050F021E08E3008F4E0
:1017F00020E081E001C0880F2A95EAF701C084E06B
:10180000892B809368009C85983038F09E3040F09A
:10181000963148F0E0E0F0E008C0EDE6F0E005C009
:10182000EBE6F0E002C0ECE6F0E04081983030F406
:1018300081E001C0880F9A95EAF70EC0292F30E0A9
:101840009E3018F42850310902C02E50310981E031
:1018500001C0880F2A95EAF7842B8083898D9A8DA1
:101860000E94C309CE01DF91CF91FF90EF90DF90EE
:10187000CF900C94CA09FC012485263140F528300C
:1018800028F02E3030F4EBE6F0E005C0EDE6F0E0B5
:1018900002C0ECE6F0E03081283038F481E090E0DE
:1018A00001C0880F2A95EAF70FC0422F50E02E3072
:1018B00018F44850510902C04E50510981E090E09F
:1018C00001C0880F4A95EAF78095832380830895A5
:1018D00021E032E0FC01318320830C943B0CCF9358
:1018E000DF93EC0160E08E810E94CF1881E090E0F0
:1018F0000E94251861E08E810E94CF1881E090E05F
:101900000E94251860E08E810E94CF1884E690E046
:10191000DF91CF910C942518AF92BF92CF92DF92B6
:10192000EF92FF920F931F93CF93DF935C017C01A3
:1019300087E0E80EF11CC0E0D0E0062F10E0670160
:1019400061E0F70181917F010E949318B8010C2E8C
:1019500002C0759567950A94E2F76170F60180817F
:101960000E94CF182196C430D10549F7C501DF91F7
:10197000CF911F910F91FF90EF90DF90CF90BF908C
:10198000AF900C946F0CAF92BF92CF92DF92EF9218
:10199000FF920F931F93CF93DF935C017C0187E04D
:1019A000E80EF11CC0E0D0E0062F10E0670161E016
:1019B000F70181917F010E949318B8010C2E02C09B
:1019C000759567950A94E2F76170F60180810E942F
:1019D000CF182196C830D10549F7C501DF91CF91C5
:1019E0001F910F91FF90EF90DF90CF90BF90AF903D
:1019F0000C946F0C1F93CF93DF93EC01162F642F81
:101A00008C810E94CF188D818F3F19F060E00E9479
:101A1000CF188F85612F84FF06C0CE01DF91CF9153
:101A20001F910C94C30C70E084E0759567958A95BE
:101A3000E1F7CE010E948C0C612FCE01DF91CF9196
:101A40001F910C948C0C40E00C94FA0C61E00E9405
:101A5000230D80ED97E00C942518CF93DF93CDB73D
:101A6000DEB728970FB6F894DEBF0FBECDBF9C013E
:101A700088E0E9E0F1E0DE01119601900D928A958F
:101A8000E1F7F9018389481710F04FEF480FFE0185
:101A90003196E40FF11DE40FF11D9081690F60682C
:101AA000C90128960FB6F894DEBF0FBECDBFDF91F7
:101AB000CF910C94230DFC016089262F2460208B8C
:101AC0006C600C94230DCF93DF93EC01423018F03F
:101AD0008F8588608F874B8B1C8A222329F04130A9
:101AE00019F48F8584608F8780E593EC0E94251818
:101AF00060E08C810E94CF1860E08E810E94CF1838
:101B00008D818F3F19F060E00E94CF186F8564FDD2
:101B10001DC063E0CE010E948C0C84E991E10E941B
:101B2000251863E0CE010E948C0C84E991E10E94AB
:101B3000251863E0CE010E948C0C86E990E00E949B
:101B4000251862E0CE010E948C0C16C06062CE01A6
:101B50000E94230D84E991E10E9425186F8560623F
:101B6000CE010E94230D86E990E00E9425186F8522
:101B70006062CE010E94230D6F856062CE010E94DB
:101B8000230D84E0888BCE010E945B0DCE010E9464
:101B9000260D82E0898B66E0CE01DF91CF910C9417
:101BA000230D6F927F928F92AF92CF92EF920F930D
:101BB0001F93CF93DF93CDB7DEB73C01162F842F51
:101BC0005D854E853F859889F3018483258306834F
:101BD000E782C086A18682865387448735879687A9
:101BE00061E00E949318F30185818F3F19F061E055
:101BF0000E94931861E0F30186810E9493181123DB
:101C000019F0F301178603C080E1F301878720E014
:101C100041E060E1C301DF91CF911F910F91EF90FF
:101C2000CF90AF908F907F906F900C94630D8F92B8
:101C3000AF92CF92EF920F93DC0113961C921E92FB
:101C40001297E1E1F2E0ED93FC931F921F921F9235
:101C50001F928C2CAE2CC02EE22E042F2FEF462F7D
:101C600061E00E94D10D0F900F900F900F900F9197
:101C7000EF90CF90AF908F90089541E00E94FA0CC2
:101C800081E090E00895FC0124853585F901E05C50
:101C9000FF4F80819181329620813181821B930B8D
:101CA0008F7399270895DC011C96ED91FC911D9787
:101CB000DF01A05CBF4F2D913C91119712968D9141
:101CC0009C9111972817390739F08D919C91E80F55
:101CD000F91F808190E008958FEF9FEF0895FC0138
:101CE000A485B585FD01E05CFF4F208131813296EE
:101CF000808191812817390779F080819181A80F1F
:101D0000B91F8C91208131812F5F3F4F2F73332773
:101D10003183208390E008958FEF9FEF0895FC01B9
:101D200081A1882329F0A489B5898C9186FFFBCFF6
:101D300011A208950F931F93CF93DF93FC01A68503
:101D4000B7858D01005C1F4FE8018881998101965C
:101D50008F739927AD014E5B5F4FEA01288139816E
:101D600028173907D1F3E80128813981A20FB31F61
:101D70006C93A685B785A05CBF4F11969C938E93FC
:101D8000A689B7892C9181E090E0078C02C0880F6A
:101D9000991F0A94E2F7822B8C9381E081A3048837
:101DA000F589E02D80818064808381E090E0DF917F
:101DB000CF911F910F91089508951F920F920FB622
:101DC0000F9211242F934F935F938F939F93EF93D1
:101DD000FF938091C00082FD1CC02091C6008091BD
:101DE000E1059091E2054091E3055091E4050196EB
:101DF0008F7399274817590771F0E091E105F09129
:101E0000E205EF55FA4F20839093E2058093E105B8
:101E100002C08091C600FF91EF919F918F915F91D9
:101E20004F912F910F900FBE0F901F9018958BE33D
:101E300095E00E94430E892B11F00C94DC0E08955E
:101E40001F920F920FB60F9211242F933F938F93EF
:101E50009F93EF93FF9320919D0530919E05809174
:101E60009F059091A0052817390731F48091C10092
:101E70008F7D8093C10014C0E0919F05F091A00573
:101E8000E35AFA4F208180919F059091A005019619
:101E90008F7399279093A00580939F052093C60088
:101EA000FF91EF919F918F913F912F910F900FBED6
:101EB0000F901F901895CF92DF92EF92FF92CF93E1
:101EC000DF93EC016A017B014115514E61057105FB
:101ED00009F1EC89FD8981E090E008A002C0880F3B
:101EE000991F0A94E2F7808360E079E08DE390E047
:101EF000A70196010E943B19DA01C9010197A109C6
:101F0000B109B695A795979587959C01211580E114
:101F10003807A8F0EC89FD89108260E874E88EE14A
:101F200090E0A70196010E943B19DA01C9010197CF
:101F3000A109B109B695A795979587959C01E88960
:101F4000F9893083EA89FB89208319A2EE89FF8908
:101F5000408181E090E09C010C8C02C0220F331F75
:101F60000A94E2F7242B2083EE89FF8940819C01AB
:101F70000D8C02C0220F331F0A94E2F7242B20831A
:101F8000EE89FF8940819C010E8C02C0220F331F15
:101F90000A94E2F7242B2083EE89FF8920810F8C9D
:101FA00002C0880F991F0A94E2F7809582238083EC
:101FB000DF91CF91FF90EF90DF90CF900895EBE30A
:101FC000F5E01382128288EE93E0A0E0B0E0848313
:101FD0009583A683B78389E192E09183808381EA28
:101FE00095E0958784878DE595E09787868785ECD2
:101FF00090E0918B808B84EC90E0938B828B80ECD3
:1020000090E0958B848B81EC90E0978B868B82ECB3
:1020100090E0918F808F86EC90E0938F828F84E0A8
:10202000848F83E0858F87E0868F85E0878F81E0CE
:1020300080A30895CF92DF92EF92FF920F931F93A8
:10204000CF93DF936C01EB017B01E40EF51E00E002
:1020500010E0CE15DF0561F06991D601ED91FC919C
:102060000190F081E02DC6010995080F191FF1CFED
:10207000C801DF91CF911F910F91FF90EF90DF90FA
:10208000CF900895AF92BF92CF92DF92EF92FF92DE
:102090000F931F93CF93DF937C016B01C0E0D0E0DF
:1020A00000E010E0D60114968D919C911597C81709
:1020B000D90788F4D701ED91FC91A080B180BE01D1
:1020C000C6010E944615682FC701F5010995080F42
:1020D000191F2196E7CFC801DF91CF911F910F9172
:1020E000FF90EF90DF90CF90BF90AF9008950C9449
:1020F00017014F925F926F927F928F929F92AF9251
:10210000BF92CF92DF92EF92FF920F931F93CF93E4
:10211000DF9300D000D01F92CDB7DEB78B0129012D
:102120003A0190910201891721F09F3F09F046C2C0
:1021300005C0E4E0F1E024912D8384C08093020186
:10214000E4E0F1E094919D839F3F09F437C2913020
:1021500009F44DC058F1923009F074C01092B000EB
:102160001092B1009091B00092609093B000909165
:10217000B10091609093B100282F30E0F901E35D48
:10218000FE4FE491F0E0EE0FFF1FE55BFE4F45913F
:1021900054915093E7054093E605F901E75EFE4F41
:1021A000E491E093E50592E09D8304C214BC15BC64
:1021B00094B5926094BD95B5916095BD282F30E09F
:1021C000F901E35DFE4FE491F0E0EE0FFF1FE55BE8
:1021D000FE4F459154915093F5054093F405F90154
:1021E000E75EFE4FE491E093F3051D82E3C1109298
:1021F00080001092810090918100986090938100FE
:1022000090918100916090938100282F30E0F90136
:10221000E35DFE4FE491F0E0EE0FFF1FE55BFE4F44
:10222000459154915093EE054093ED05F901E75E19
:10223000FE4FE491E093EC0561E00E94931821E0E9
:102240002D8382C02D8127FDB9C161E00E949318C2
:102250008D818D7F09F078C04801A12CB12C60E000
:1022600072E18AE790E0A50194010E945D1929833B
:102270003A834B835C8369017A0181E0C81AD108F3
:10228000E108F1089FEFC916D104E104F10409F057
:1022900008F44EC060E472E48FE090E0A501940180
:1022A0000E945D1969017A0181E0C81AD108E1082C
:1022B000F1089D81923009F52FEFC216D104E10497
:1022C000F10409F008F43DC160E970ED83E090E0AD
:1022D000A50194010E945D1969017A0181E0C81A83
:1022E000D108E108F1089FEFC916D104E104F10417
:1022F00011F008F0B3C083E024C02FEFC216D10460
:10230000E104F104B9F0B0F068E478EE81E090E027
:10231000A50194010E945D1969017A0181E0C81A42
:10232000D108E108F1089D81992309F40CC1D5C0B9
:1023300081E001C082E09D81911103C085BD40C054
:1023400085E08093B1003CC04801A12CB12C60E035
:1023500072E18AE790E0A50194010E945D1969018C
:102360007A0181E0C81AD108E108F108C114D1044A
:1023700091E0E906F10488F068E478EE81E090E00D
:10238000A50194010E945D1969017A0181E0C81AD2
:10239000D108E108F10883E001C081E09D8191301E
:1023A00079F490918100987F892B8093810041146A
:1023B00051046104710449F42FEF3FEFA9012CC0CF
:1023C000411451046104710471F0D801AA0FBB1FBC
:1023D000A30192010E947C1928EE33E040E050E016
:1023E0000E943B1903C02FEF3FEFA9018D8181307F
:1023F00099F0823019F18111E1C0C7BC2093F60534
:102400003093F7054093F8055093F90580916E00DD
:10241000826080936E00D2C0D0928900C092880002
:102420002093EF053093F0054093F1055093F205AA
:1024300080916F00826080936F00C0C0C092B30033
:102440002093E8053093E9054093EA055093EB05A6
:1024500080917000826080937000B0C068E478EE74
:1024600081E090E0A50194010E945D1969017A0163
:1024700091E0C91AD108E108F1082FEFC216D10482
:10248000E104F10441F138F164E274EF80E090E09E
:10249000A50194010E945D1969017A0181E0C81AC1
:1024A000D108E108F1089FEFC916D104E104F10455
:1024B00009F008F445CF62E17AE780E090E0A501F9
:1024C00094010E945D1969017A0181E0C81AD1085E
:1024D000E108F10819C084E034CF2FEFC216D1040F
:1024E000E104F10409F008F463C062E17AE780E0F6
:1024F00090E0A50194010E945D1969017A0191E0C3
:10250000C91AD108E108F1088FEFC816D104E10417
:10251000F104A9F0A0F089819A81AB81BC812AE005
:10252000B595A795979587952A95D1F76C017D016B
:1025300021E0C21AD108E108F10887E002CF86E065
:1025400000CF82E0FECE8FEFC816D104E104F10483
:1025500069F160F162E17AE780E090E0A501940121
:102560000E945D1969017A0191E0C91AD108E10858
:10257000F1082FEFC216D104E104F104A9F0A0F094
:1025800089819A81AB81BC813AE0B595A7959795F1
:1025900087953A95D1F76C017D0121E0C21AD108E7
:1025A000E108F10885E0CACE84E0C8CE83E0C6CE5B
:1025B00084E0C1CE61E00E9493184ECE0F900F9040
:1025C0000F900F900F90DF91CF911F910F91FF907F
:1025D000EF90DF90CF90BF90AF909F908F907F90C3
:1025E0006F905F904F900895813039F018F08230ED
:1025F00051F0089510926E00089580916F008D7FC4
:1026000080936F000895809170008D7F809370009B
:1026100081E08093B0008091B100887F84608093D6
:10262000B1001092B3000895CF93C82F809102019A
:10263000C81307C0E4E0F1E084919FEF909302019A
:1026400001C08FEF0E94F41260E08C2FCF910C94A8
:10265000CF181F920F920FB60F9211242F933F9312
:102660004F935F936F937F938F939F93AF93BF939A
:10267000EF93FF938091E8059091E905A091EA0519
:10268000B091EB05892B8A2B8B2B51F19091E505AD
:10269000E091E605F091E7058081892780838091AC
:1026A000E8059091E905A091EA05B091EB051816AF
:1026B00019061A061B06C4F48091E8059091E905F5
:1026C000A091EA05B091EB050197A109B1098093AA
:1026D000E8059093E905A093EA05B093EB0504C0E3
:1026E000809102010E941413FF91EF91BF91AF916D
:1026F0009F918F917F916F915F914F913F912F911A
:102700000F900FBE0F901F901895FC018081918152
:102710000C945416CF93DF93EC0188819981009734
:1027200011F00E945416198218821D821C821B828D
:102730001A82DF91CF9108950F931F93CF93DF9368
:10274000EC018B016F5F7F4F888199810E94DD16BC
:10275000009731F0998388831B830A8381E001C04D
:1027600080E0DF91CF911F910F910895CF93DF9378
:10277000EC0188819981892B29F08A819B818617B8
:10278000970760F4CE010E949C13882341F08C814E
:102790009D81892B19F4E881F981108281E0DF9114
:1027A000CF910895EF92FF920F931F93CF93DF93F2
:1027B000EC017B018A01BA010E94B613811104C0A9
:1027C000CE010E948A1307C01D830C83B701888144
:1027D00099810E94CA19CE01DF91CF911F910F916B
:1027E000FF90EF900895FC011182108213821282F3
:1027F0001582148216826115710551F0FB0101905A
:102800000020E9F73197AF01461B570B0C94D21308
:1028100008950F931F93CF93DF938C01EB01FC017D
:1028200080819181009799F0428153812C813D8173
:102830004217530750F0688179810E94CA198C8130
:102840009D81F8019583848313C00E94541688816A
:102850009981F801918380838A819B81938382830C
:102860008C819D8195838483198218821B821A82B0
:102870001D821C82DF91CF911F910F910895CF93FC
:10288000DF93EC01FB018617970761F0608171818E
:102890006115710529F0448155810E94D21302C04F
:1028A0000E948A13CE01DF91CF910895FC0111821D
:1028B0001082138212821582148216820C943F14A5
:1028C000CF93DF93EC018617970711F00E9409144C
:1028D000CE01DF91CF910895CF93DF93EC01611585
:1028E000710559F0FB0101900020E9F73197AF0124
:1028F000461B570B0E94D21302C00E948A13CE01BE
:10290000DF91CF910895CF93DF9300D0CDB7DEB79D
:10291000FC011182108213821282158214821682A7
:1029200069831A82BE016F5F7F4F0E946C140F9003
:102930000F90DF91CF910895EF92FF920F931F9325
:10294000CF93DF936115710511F480E01CC0411530
:102950005105C1F07B01EC018C819D818A01080F3A
:10296000191FB801CE010E94B613882371F3288184
:1029700039818C819D81B701820F931F0E94CA19F2
:102980001D830C8381E0DF91CF911F910F91FF9008
:10299000EF900895FB0144815581608171810C9411
:1029A0009C146115710551F0FB0101900020E9F7BD
:1029B0003197AF01461B570B0C949C1480E008958F
:1029C000CF93DF93EC01FB014481558160817181DC
:1029D0000E949C14811103C0CE010E948A13CE0173
:1029E000DF91CF910895CF93DF93DC01ED91FC91BE
:1029F000EB01A881B981309711F01097C9F41097B5
:102A000059F0EB012C813D81232B31F08C9190E02A
:102A100091958195910914C0309781F0DC0114964D
:102A20008D919C911597892B49F0808190E008C089
:102A3000BD01CF01DF91CF910C94C11980E090E0EE
:102A4000DF91CF910895FC0144815581FB012481E0
:102A500035814217530729F40E94F31421E0892B92
:102A600009F020E0822F0895FC012481358162174E
:102A7000730720F480819181009729F41092FA0560
:102A80008AEF95E00895860F971F0895FC01248131
:102A900035816217730748F480819181009729F08E
:102AA000FC01E60FF71F8081089580E00895BF9232
:102AB000CF92DF92EF92FF920F931F93CF93DF930A
:102AC0007C016B018A01E9012417350720F4812F6D
:102AD0008901C42FD82F6AE271E0C7010E94F31365
:102AE000D60114968D919C91159780179107C8F087
:102AF0008C179D0708F4EC01D601ED91FC9111971C
:102B0000EC0FFD1FB08010826D917C91600F711FE2
:102B1000C7010E946C14D601ED91FC91EC0FFD1FD2
:102B2000B082C701DF91CF911F910F91FF90EF907D
:102B3000DF90CF90BF900895CF93DF93EC01FB011E
:102B4000248135810E945715CE01DF91CF910895E0
:102B5000CF93DF93FC01C081D181209751F0888110
:102B6000882339F0082E000C990B0E94B019899324
:102B7000F6CFDF91CF9108950F931F93CF93DF93FB
:102B80008230910510F482E090E0E0910606F09129
:102B9000070620E030E0A0E0B0E0309719F1408176
:102BA00051810281138148175907C8F0841795078E
:102BB00069F4109731F012960C93129713961C93A8
:102BC00027C0009306061093070622C02115310581
:102BD00019F04217530718F49A01BD01EF01DF0104
:102BE000F801DBCF21153105F9F0281B390B243012
:102BF000310580F48A819B816115710521F0FB010B
:102C00009383828304C09093070680930606FE0197
:102C1000329644C0FE01E20FF31F8193919322503C
:102C20003109398328833AC0209104063091050682
:102C3000232B41F4209105013091060130930506C4
:102C400020930406209103013091040121153105E0
:102C500041F42DB73EB74091070150910801241B64
:102C6000350BE0910406F0910506E217F307A0F496
:102C70002E1B3F0B2817390778F0AC014E5F5F4FD2
:102C80002417350748F04E0F5F1F509305064093F9
:102C900004068193919302C0E0E0F0E0CF01DF9160
:102CA000CF911F910F910895CF93DF93009709F46F
:102CB00081C0FC01329713821282A0910606B09166
:102CC0000706109781F420813181820F931F209194
:102CD0000406309105062817390751F5F0930506CB
:102CE000E093040667C0ED0120E030E0CE17DF0777
:102CF00040F44A815B819E0141155105F1F0EA01E2
:102D0000F5CFD383C28340815181840F951FC817AB
:102D1000D90759F488819981840F951F0296918370
:102D200080838A819B81938382832115310529F4D5
:102D3000F0930706E09306063DC0E901FB83EA83B2
:102D400049915991C40FD51FEC17FD0761F480819B
:102D50009181840F951F0296E9019983888382816E
:102D600093819B838A83E0E0F0E012968D919C91A1
:102D70001397009719F0FD01DC01F7CF8D919C911D
:102D800011979D012E5F3F4F820F931F20910406E4
:102D9000309105062817390769F4309729F4109205
:102DA00007061092060602C013821282B09305062F
:102DB000A0930406DF91CF9108956F927F928F9236
:102DC0009F92AF92BF92CF92DF92EF92FF920F93BA
:102DD0001F93CF93DF93009789F4CB01DF91CF91BD
:102DE0001F910F91FF90EF90DF90CF90BF90AF9029
:102DF0009F908F907F906F900C94BC15FC01E60F14
:102E0000F71F9C0122503109E217F30708F4A9C00B
:102E1000EC01D9010D911C91119706171707B0F01D
:102E20000530110508F49BC0C80104978617970761
:102E300008F495C002501109061B170B019311935A
:102E40006D937C93CF010E94541689C05B01A01A38
:102E5000B10A4C01800E911EA0910606B0910706A2
:102E6000612C712CE12CF12C109709F446C08D9146
:102E70009C911197A815B905B1F56C0142E0C40EFB
:102E8000D11CCA14DB0478F14C018A189B08640138
:102E900042E0C40ED11C1296BC9012971396AC91CE
:102EA000B5E0CB16D10440F0B282A3839182808238
:102EB000D9016D937C9309C00E5F1F4F800F911F46
:102EC000F90191838083EB2DFA2FE114F10431F0A5
:102ED000D7011396FC93EE93129741C0F093070627
:102EE000E09306063CC06816790608F43C017D01B3
:102EF00012960D90BC91A02DB7CF809104069091B1
:102F0000050688169906E1F466167706C8F48091DE
:102F1000030190910401009741F48DB79EB7409151
:102F2000070150910801841B950BE817F907C8F4B5
:102F3000F0930506E0930406F901718360830FC0E6
:102F4000CB010E94BC157C01009759F0A801BE017D
:102F50000E94B819CE010E945416C70104C0CE01C8
:102F600002C080E090E0DF91CF911F910F91FF9020
:102F7000EF90DF90CF90BF90AF909F908F907F9019
:102F80006F9008950E942F180E941E06C7E1DFE08F
:102F90000E94AA062097E1F30E94170FF9CF1F9213
:102FA0000F920FB60F9211242F933F938F939F93FD
:102FB000AF93BF938091FC059091FD05A091FE0514
:102FC000B091FF053091FB0523E0230F2D3720F44E
:102FD0000196A11DB11D05C026E8230F0296A11D73
:102FE000B11D2093FB058093FC059093FD05A093F4
:102FF000FE05B093FF058091000690910106A09117
:103000000206B09103060196A11DB11D8093000632
:1030100090930106A0930206B0930306BF91AF916F
:103020009F918F913F912F910F900FBE0F901F9006
:1030300018952FB7F8946091FC057091FD0580916B
:10304000FE059091FF052FBF0895019739F0880F75
:10305000991F880F991F02970197F1F708957894A7
:1030600084B5826084BD84B5816084BD85B582608D
:1030700085BD85B5816085BDEEE6F0E0808181602B
:103080008083E1E8F0E0108280818260808380812B
:1030900081608083E0E8F0E0808181608083E1EB03
:1030A000F0E0808184608083E0EBF0E080818160EB
:1030B0008083EAE7F0E080818460808380818260A1
:1030C000808380818160808380818068808310928A
:1030D000C1000895833081F028F4813099F0823066
:1030E000A1F008958630A9F08730B9F08430D1F48A
:1030F000809180008F7D03C0809180008F778093C6
:103100008000089584B58F7702C084B58F7D84BD1B
:1031100008958091B0008F7703C08091B0008F7DBB
:103120008093B0000895CF93DF9390E0FC01E75EB9
:10313000FE4F2491FC01E35DFE4F8491882361F1F1
:1031400090E0880F991FFC01EB5AFE4FC591D49176
:10315000FC01E55BFE4FA591B491611109C09FB7D9
:10316000F8948881209582238883EC912E230BC0CC
:10317000623061F49FB7F8948881322F30958323B1
:103180008883EC912E2B2C939FBF06C08FB7F894A9
:10319000E8812E2B28838FBFDF91CF9108951F9355
:1031A000CF93DF93282F30E0F901EB5FFE4F84913E
:1031B000F901E75EFE4FD491F901E35DFE4FC49142
:1031C000CC23C1F0162F81110E946A18EC2FF0E079
:1031D000EE0FFF1FE55BFE4FA591B4919FB7F894EA
:1031E000111104C08C91D095D82302C0EC91DE2B34
:1031F000DC939FBFDF91CF911F910895CF93DF9311
:10320000282F30E0F901EB5FFE4F8491F901E75E72
:10321000FE4FD491F901E35DFE4FC491CC2391F0B0
:1032200081110E946A18EC2FF0E0EE0FFF1FEF5B98
:10323000FE4FA591B491EC91ED2381E090E021F453
:1032400080E002C080E090E0DF91CF91089597FB8D
:10325000072E16F4009407D077FD09D00E94871935
:1032600007FC05D03EF4909581959F4F0895709589
:1032700061957F4F0895A1E21A2EAA1BBB1BFD0189
:103280000DC0AA1FBB1FEE1FFF1FA217B307E40745
:10329000F50720F0A21BB30BE40BF50B661F771F9D
:1032A000881F991F1A9469F760957095809590957D
:1032B0009B01AC01BD01CF010895052E97FB1EF4C3
:1032C00000940E94741957FD07D00E943B1907FC17
:1032D00003D04EF40C947419509540953095219577
:1032E0003F4F4F4F5F4F0895909580957095619532
:1032F0007F4F8F4F9F4F08950E94A119A59F900D5A
:10330000B49F900DA49F800D911D11240895AA1BB8
:10331000BB1B51E107C0AA1FBB1FA617B70710F0C0
:10332000A61BB70B881F991F5A95A9F780959095F2
:10333000BC01CD010895EE0FFF1F0590F491E02D23
:103340000994A29FB001B39FC001A39F700D811D7E
:103350001124911DB29F700D811D1124911D08959E
:103360009111089581568A5108F480528558089524
:10337000FB01DC0102C001900D9241505040D8F792
:103380000895FB01DC018D91019080190110D9F3A2
:10339000990B0895FB01DC0101900D920020E1F7EB
:1033A00008950E94DD0010E0C2EBD0E004C0FE01F1
:1033B0000E949B192196C33BD107C9F7F894FFCF10
:1033C0000101FF00000806800000004000140054C6
:1033D000002020202020202020202020202020002D
:1033E0006262622000310A00300A00533A00523A09
:1033F00000770A004100420043002D2A2D2A004494
:1034000000450046002A2A2D2A00470048004900AE
:103410004A004B004C002A2D2A2A004D004E004F36
:103420000050002A2D2D2A0051002D2D2A2D00524A
:10343000005300540055005600570058002D2A2A0A
:103440002D0059005A0030002D2D2D2D2D0031005A
:103450002A2D2D2D2D0032002A2A2D2D2D0033004E
:103460002A2A2A2D2D0034002A2A2A2A2D00350046
:103470002A2A2A2A2A0036002D2A2A2A2A00370038
:103480002D2D2A2A2A0038002D2D2D2A2A00390018
:103490002E002A2D2A2D2A2D002C002D2D2A2A2DF2
:1034A0002D003F002A2A2D2D2A2A0027002A2D2D03
:1034B0002D2D2A0021002D2A2D2A2D2D000000005F
:1034C00000510A1A10900955097609A80900000050
:1034D000003D0E1A10000000009A0E1A10430E6FE5
:0634E0000E530E8F0E00DA
:00000001FF
